:100000000C94E0060C9418070C9418070C9418072D
:100010000C9418070C9418070C9418070C941807E4
:100020000C9418070C9418070C94A1240C947525B3
:100030000C94E91E0C9418070C9418070C941807DC
:100040000C9418070C9418070C9418070C941807B4
:100050000C9418070C94701F0C9418070C94180734
:100060000C9418070C9418070C9418070C94180794
:100070000C9418070C9418070C9418070C94180784
:100080000C9418070C9418070C9418070C94180774
:100090000C9418070C9418070C9418070C94180764
:1000A0000C9418070C9418070C941807015703A612
:1000B000681E7D107E7E5F1CB8F2470C7B744B146B
:1000C0008B7566510B8C76744B14AAD60F9CBAF6BE
:1000D0006E3FDD38D502809B826D5813A4ABB5C945
:1000E00010A2C60A7F5D1991A0A3CEEB3EC9F160B4
:1000F00042E74CFB746A562EBFDD38D3058892A6C2
:10010000CEFF5D38D1CFEF58CB6548F03585A9B229
:100110008F5EF38094977E7597877313B08A69D446
:100120000ADEC1795936DB9DD6B8156FCE3C7232E6
:100130004588DF6CA56DE87696147420DCF4FA37F8
:100140006A2732E329BFC4C7069D58E7877C2E9FE4
:100150006E49075D236454836ECBB777F72B6E0F20
:100160002E6612605565FC43B358735BE867044321
:1001700002DEB389A06D3A2779645B0C169E66B1E6
:100180008B870C5DF2B63D71DF42038A068DEF1D51
:10019000A8965CED31615CA134F68C0860330700F1
:1001A0003E79951B437FFEB6A6D49D7672BFADC047
:1001B00015E83731A37263521D1C5D511BE1A9ED97
:1001C00060323EA95028530659E2FCE70264392107
:1001D000564AA5408081D55A607B6884F1E0B1B66B
:1001E0005BDFA81D6D6520C0A2B9D9BB00A6DB8B63
:1001F000015391FEC45185B0967FFD51DD14036714
:100200002E751C76D36EDD995576E5AB23FC4AD569
:10021000C6E82ECA8AB3F68C6CB0E9F2E79E694153
:10022000EDF16DD286D87ECB5D476C856A23ED20DB
:100230004093B420C7A5C9AF0315AC19E52A36DF32
:100240006DC58C8007CE920CD806620FDD48461A29
:1002500053C78A8C5D5DB4A102D3A9B8F3948F3FD4
:10026000E554D41165B25E090B81E375A789813924
:100270006C46F6069F273BB62D5F1D4BD47B1D6158
:100280007489E4E3BD981BC4513BA4FAE092F7BE25
:10029000F24DBBFFAD4F6D68C27940AA9B8F0C3207
:1002A0004B5F3EAB5998B3F51DAC5EBC78D3016C87
:1002B00064152FD871A62D45E12242E44E043C7D01
:1002C000F44021B46705A8E2F372874C7DD91B6521
:1002D00097F3C2E3E4C8D2DEF6EFDCBB44085EE28B
:1002E000452701B0F643E73AF6DC9DEDF3C50CB8BF
:1002F0009C983AD836EE967267E78191D5050AE068
:1003000082D58FE8F9B0C9CF93E704C5BC2B43561B
:100310007EE8677CE5FB49AD5E9F2513DE6E6EE9E6
:10032000F1EC870B5981768476B324AF30FD278BAF
:10033000ABD8008B9B0CD2B24E5E9D1D9601006720
:10034000C15F0220FD456A01605845CA4721905AA5
:10035000C443261AD7A54AB25D2B3549FBA517928F
:10036000211E939667A27E367ADE5FBE7A589DF88C
:1003700078A3FAC8D517F021978C80B54B3BBDBB4D
:100380004121A85067F7E71980108ECE04183F511D
:100390006B77D89E16AFECEF48164D9E8538183E09
:1003A000D42887602AF67F09866F9C3C3AFFABD041
:1003B00061A2970D71947EFDB98002896AB3846C45
:1003C0002A7762BE0BF4AFAC7B7C8ECA01BA71781F
:1003D00094FDB539A44D2F78CFCA920C1A99484C88
:1003E0001196B54E4128E4A6FE4B7291E7D4DD9FED
:1003F00012E62938CE45AE02B824AEBDE9660862E1
:10040000A22C2B00E223D9C448E4D3ACBB34C7F000
:10041000E34FB930EAA212F1302C36DE48F2B04C8C
:10042000433F2E58E420E358CD3122F0A22AE619AA
:10043000905586F65579D1D7462FC0DC99E8F36AF6
:10044000DF7FEB244A1E5A75DE2F5C19610353547B
:100450006A3B1870B64FF19C0A599D1992658C83BE
:10046000142D448A75A9F590D2664EFA690F5B0B7C
:100470009865C81142597FDD1B7517314C7558EBD3
:1004800058637DF2A6C26EB73F3E5E47ADB704E843
:1004900005F8B2CF19F3D285FE3E3EB162082C10AA
:1004A000070D739017FA9B560275F951E0E91A7B14
:1004B0009FB3F398B81C9CE1D535AEC860481109CC
:1004C000946BD08B15BC0568D3548A51395C427645
:1004D000CED8AD8930C9051CCC943F0F906F722DDA
:1004E00085649AB923F90BC37C390F970797DA58BB
:1004F00048330523B882E8D35389AF338022840C74
:10050000955C67B8770C5CA25F3D580F27F32FAE60
:1005100048BD0B6F54FB674CEA3227F1FAE2B0ECAE
:100520000B15B470F65CDD7160C3C1A83265AC7A9E
:100530007741E5A96B1181FA348DFBC1806EC460EF
:100540003007D48B67BDAA8C9C64ACDB0B248B6317
:100550006FE6BCE733A44A4CA79F4353D2BB8F43FB
:10056000C73D78683FA53DCA6984A6972DC07D31F7
:1005700034551D07B15F405C93B0BC7CB0BCE71242
:10058000EE6B2BD34D67703A9AF23C7C81FAD7D947
:10059000909181B8B1F3486A264F0CCEB09EFD4AC7
:1005A0003AAFAC5B3FBF445AA3191E4BE7366AD73C
:1005B00020AED77D3BE7FF3A862ED04A3EAF9F8ED6
:1005C00001BFF84FC1E86F74E145D3F7046A4B9D52
:1005D000EC332776D7C5E1B03B0E23ECF086D21A78
:1005E000BF3D0462B36CB2EB1705A60A8A7E831C7A
:1005F000B63709C60B703CB59381D893A05F1E082F
:10060000E2C6E5C972F1F1C1EDD5589383F865678B
:100610002E0DA9F16412E64CEA153F8C1AB6BFF60E
:10062000B9523509B0E6F7CDF1A5AA81D1816FB4F1
:10063000A9661FFC48C0B6D18B062FF6EF1F0AE64D
:10064000CE3A4A55BF6DF94DD408454BC366199251
:1006500010E1178E289116BF3CEEA3A6999210E1E7
:10066000F6CCACB8650B4366F8E3E53F2489475DFB
:100670007843D06117BD5B645408455993F6958A59
:100680004151624B51023073C787C54BA2970FE8A7
:10069000465F7E2AE13020B0FAE7CE6142576E21F4
:1006A000F37AECE325C725F367A757400002CF1C78
:1006B000807767BD70A119923175932727B682E4C0
:1006C000EB1D7848E7A55E57EF6428641BF611B26E
:1006D000039DB9180227F7BE9D55FC00D2C7AEADE9
:1006E0000BC5E9424148D832CFF60FF5BC97C69901
:1006F0004776BD89060F630C51D45EEA48A8A2561E
:100700001C7984864088417655FCC2D7FDC9C780D4
:100710006135A74320F7EB6C6613B0EC02753E4BD6
:10072000AFB95D40DAD66E2D3954C2953554257275
:10073000E178B8EBC116580F9C9BB4EA37EC3B113B
:10074000BAD58AA9E39800511C14E04096E5E9F275
:100750002122B1236078D317F87AA5A8BA20D3153F
:100760001E32E45E1548AEA9E5B833ECE8A242AC0F
:10077000BF1084538719B45F764D019D5674D95CC0
:1007800097E788EA3ABFDC4C338A16B95BFAD8425D
:10079000A7BB3C04277849812A5A7D7C23A8BAF755
:1007A0009A9FD2663E383C75F9D13026306E5A6E2B
:1007B000DC6A69325033479EA4A86466F08AE4FD7F
:1007C000276F51258B4374C98EBD8831BEEC65D22D
:1007D000CB8D5A1348168C610B11F6C666AEC3CC8E
:1007E0000CD2E19F82413F56F973EFDC3050CFB617
:1007F0007FBCD0B310AB24E4ECAD188C392D304C59
:10080000C5400DF6ACD6185D96BF5F717596229700
:100810000F02946EA6AE6D8F1ECA129B2A1CCEA923
:10082000EEFD128EFCED0933BAF41A15F69D87160B
:10083000437C7857E144C9EB1F584DC149115CB264
:1008400011A85516F1C650E98789F6CFD89C51A753
:10085000BC5B316D4D51D04CBC0D582D7B887AF965
:100860008ED6404DBBBEC4E507FCD97B6DA6425772
:100870008F02944FE42A65E2195A50E125654A60D7
:10088000C2CDA8EC052E877B95B74FA00B1B4A7FE6
:1008900092C890EE891E10D285E49F63C812BB4EA9
:1008A000B8CF0AEC184EE67CB33326C71FD2042318
:1008B000EA070C5F90BDA76A0F4AD610013C1229C7
:1008C0002E96C04DBBBEE5A783D56A3CE35BB8F26C
:1008D0005C6D1FA6F31224F6D63B1014090782E8BC
:1008E000306A99DC95019CD4683BCA9812AB772595
:1008F000157D10324598CD7ADF718A75C11CD46898
:1009000025EBBB54276F2AF7B9980327DE24A8BB31
:1009100098C284FF9B51D85350DAF588AA872FAE2E
:10092000D6EA6BDEC8D7A7286581E8B23B1D4F75B4
:100930008F9F7A748EC15F9AA89DFA03A3719B372B
:100940006DD50BF5E1A11B016AC667AAEA2C9DA42F
:10095000D26EFCDE2E7F9469E54AE001483C6BF7DD
:100960001EB60B5FF92E07C5E8AE371BBC3CD8D5C9
:100970000B919E8024F5060C0E9807962D19DC58D5
:1009800093CCFB4EEBBD0FF5AF01FAF17C438CB875
:10099000563EBE774E2BF7BBB74547CDCCA64C7223
:1009A0007B6A2A701307FDB89C983AD823675B349A
:1009B000D5140CAB771FF83D5A9F92B72CAD31DEA2
:1009C0006107B36BF73815954614485369526607AB
:1009D0006D83718A6725200FFED702D76E2CD21A3D
:1009E0000A5DFD0F74E3A436079ADFD479BFEF598F
:1009F000C04452879A6E1D0EEEDE2E1AA98F3AC998
:100A0000BAEC99782D556B14C206D5FC93534D1151
:100A10008CF8FA797CA664AE61B87B9456A63978D6
:100A20009AE5C7DF1863239CFA66BBB75A274CD1F7
:100A3000A18322B3524935B022835912001698DDA2
:100A4000ADC294F9D37B647F443E3C8B9A839C690E
:100A50006BE4DF9FED541FE55D7A0582B3DDEFFCAB
:100A60005396B02C5AF8DF9C8B164EDFDA4D0909ED
:100A700069500365D87370E886BFBB35CEB246CBEC
:100A800002005BB4E2C68F2F98AF874B4845EDCC90
:100A90001DE658D6F250259F52C7CB8A179D5BE5BD
:100AA000C8D772B752B2C498E37A173EC660A79708
:100AB000B0CF188153844CD5173203133951091024
:100AC000E377494F6201BF8C9AE0419E897436F901
:100AD00096862E961C4AB72B4A97BC9940A3E03DB8
:100AE000C8AD2FDF4F2CC469829F9B810C615CA530
:100AF0009D8C89C02CB44A334EEBA25640C0C246EE
:100B0000AF6AFC67D1805EC56D8443273F5515965B
:100B10006AA0A5DAB7FFB7756E4C49919D22A3462E
:100B2000EAED9A00E232C3D6A9712055A319EDF877
:100B30004FA7129C6687AF4EB7F0DBBFEFF0F6AF62
:100B4000EADA09FEDE385CA5A2DF9945A8E4E7925F
:100B5000AC67AA4FBF773EA24049224A1E3BAA700B
:100B60007F95AF374BFC99E2E0BAD734CE55885B1E
:100B7000841B57C4800353C92F93044DD596E57049
:100B8000A66E635D9D6CDB020AA9DA8B53DCD99AF1
:100B9000C5942C91922ADEBB8B13B9199664CCF2C2
:100BA0006439B77549E986C28662D924D38135494B
:100BB000FCA0A5A0930564B41A57CE0C900227C5DB
:100BC0007A2B5DAE3ED5DD107C14EA3A08AC724E4D
:100BD000903D3B7C862EEBD40670E6C7FB5FBD18CC
:100BE000F411A41A93C3BED9FB26482F373CD00377
:100BF000471AF76219245CF4A892207AF29E2AC55B
:100C000095A2FBA4EA85D856B770D16030A5308292
:100C100070DC7A658A363F5B0CAE547CD357847B9C
:100C20003A651881EE059B444DB8DAA2A1C915D3E7
:100C300073030E43E98E15F9BEC6C58AE5C01EC210
:100C4000379E2A26A5A0BD245FB9C1AB3448B95D43
:100C500098B46518F36319441B1116FFDCF1790889
:100C6000860F529873C492902B4709D0436C2F2063
:100C7000EBDCDAC5087B9442306AC7DA8CC376A70E
:100C8000A5CC621300603158449BF56414F511C57E
:100C9000545283D47301160EB37A29693556D4EEB3
:100CA0008A17A299249CD78FDB55B53E0C034100CF
:100CB000420061006C006C000000260352006900D5
:100CC000630068006100720064002000530075003A
:100CD00074006800650072006C0061006E006400C2
:100CE00000000403090409023B00020100A0FA0904
:100CF0000400000103010100092111010001224447
:100D00000007058103080001090401000103000038
:100D1000000921110100012249000705820320007A
:100D2000011201000200000008EDFEF0C201000106
:100D300002000105010902A10185020901A10005C6
:100D40000919012908150025019508750181020579
:100D500001093009311581257F9502750881060941
:100D6000381581257F950175088106050C0A380222
:100D70001581257F950175088106C0C0050109060A
:100D8000A101050719E029E715002501950875015E
:100D900081029501750881010507190029FF1500D9
:100DA00026FF00950675088100050819012905151B
:100DB000002501950575019102950175039101C00A
:100DC00011241FBECFEFDAE0DEBFCDBF04B603FEB5
:100DD00018C08091090290910A02A0910B02B09173
:100DE0000C028730904BA740B04B59F41092090287
:100DF00010920A0210920B0210920C02E0E0F8E34B
:100E0000099511E0A0E0B1E0EAE9F3E502C0059040
:100E10000D92A034B107D9F722E0A0E4B1E001C0FF
:100E20001D92A930B207E1F70E9453160C948C2949
:100E30000C94000080912101853079F030F48250CB
:100E4000823038F01092210108958730D9F782ED71
:100E500001C081ED0E940A0AF5CF10924A01F2CF3B
:100E6000FC018281813039F4858182FD16C080FFCA
:100E700014C083E00895823039F4858182FD0FC06B
:100E800080FD0FC084E00895833069F4858182FD80
:100E90000CC080FF0AC088E0089582E0089586E0D3
:100EA000089585E0089581E0089587E008950E94FF
:100EB000300780932101853061F020F48250823028
:100EC00020F00895873049F0089581ED0E94DB09F4
:100ED000089581E080934A01089582EDF7CF4F9203
:100EE0005F926F927F928F929F92AF92BF92FF928A
:100EF0000F931F93CF93DF93CDB7DEB72C970FB629
:100F0000F894DEBF0FBECDBF4F8358878B879C8779
:100F1000162FB72E84E6860F893C08F010E084E691
:100F20008B0D893C08F0B12C80914A01882309F48B
:100F300093C0612F110F770B880B990B0E943328F8
:100F400020E030E048E452E40E94892720914601E5
:100F50003091470140914801509149010E941D275D
:100F60002B013C016B2DBB0C770B880B990B0E945E
:100F7000332820E030E048E452E40E9489272091A1
:100F800042013091430140914401509145010E943A
:100F90001D274B015C01C301B2010E94FB27062FF4
:100FA000C501B4010E94FB27F62E602F002E000C15
:100FB000770B880B990B0E9433289B01AC01C3016E
:100FC000B2010E941C2760934601709347018093F1
:100FD0004801909349016F2D0F2C000C770B880B63
:100FE000990B0E9433289B01AC01C501B4010E94FA
:100FF0001C276093420170934301809344019093B6
:101000004501B12C10E01987BA86FB860C8786E073
:10101000FE013796DE01119601900D928A95E1F757
:1010200029813A814B815C816D817E8180E090E0F5
:101030002C960FB6F894DEBF0FBECDBFDF91CF91D7
:101040001F910F91FF90BF90AF909F908F907F90D6
:101050006F905F904F900895FB840C850E94F51D62
:1010600081FD67CFD0CF80349E4721F4FB0185817D
:1010700080934A0181E00895089588E893E10E94F1
:1010800038170E9465160895642B682B29F4ECEA42
:10109000F0E085919491089581E090E008950E9498
:1010A0004408089581E008950E945208089581E05F
:1010B00008950E943308089508950E945C080895D9
:1010C000A6E0B0E0E6E6F8E00C94FC2849835A83F9
:1010D0009E833091500189819A8131111AC03E81DD
:1010E000332399F0222389F00E94BC0D182F682F1A
:1010F00089819A810E94A60D69817A81812F0E943F
:10110000B7142696E3E00C9418290E94B10D182F0D
:10111000F3CF0E94BC0D69817A81F1CFFC01262FAB
:101120004081518162817381848195810E94600830
:101130000895CF93DF93EC0161E00E948E08BE0119
:101140000E945408DF91CF910895CF93DF93EC0173
:1011500060E00E948E08BE010E945D08DF91CF9181
:10116000089581E008950E94B1080895CF93C82F93
:101170000E947E0C8C2F0E94B3082FEF84E39CE02A
:10118000215080409040E1F700C00000CF910895C9
:1011900081E00E94B6080E94941F089580E00E949A
:1011A000B6080E94B81F08950F931F93CF93DF9343
:1011B0008C0161E00E948E08EC01B8010E941D1DA7
:1011C000882329F061E0C8010E948E08EC01B80173
:1011D000CE010E945908811106C080E0DF91CF91B5
:1011E0001F910F910895B801CE010E94451D8823DB
:1011F000A1F3B801CE010E94961C882371F3B801B7
:10120000CE010E949A18882341F3B801CE010E94B2
:101210007018882311F3F8018581882361F0C330A9
:10122000FCE7DF07E9F058F4C115ECE7DE07A9F0A9
:10123000C130DC47B9F0C8010E945708CFCFCB3589
:101240008CE7D807A9F0CC35ECE7DE0771F0CA359A
:10125000DC4789F70E942012EECF0E94C808BDCF5C
:101260000E9428120E94CE08B8CF0E941612E3CF27
:101270000E942412E0CF0E94CB1E0E9464090E94AB
:10128000D61608950E9468090E94D01E08950895F8
:1012900081E008950895CF93DF93D82F0E944809E5
:1012A000C82F882319F08D2F0E944A098C2FDF91B7
:1012B000CF9108950895CF93C82F0E9447098C2F8E
:1012C0000E944B09CF91089580E00E945B09089528
:1012D0000E94E81D0E945B090895CF930E94E81DBB
:1012E000C82F80914B018C1779F0C0934B010E945D
:1012F000551F60934C0170934D0180934E01909364
:101300004F018C2F0E945B09CF910895ADE0B0E0B2
:10131000ECE8F9E00C94FD28488759876A877B87B9
:101320008C879D8791110E9453111F8286E0FE01D8
:101330003896DE01119601900D928A95E1F78D8124
:1013400081110DC029813A814B815C816D817E8143
:101350008F810E949A102D96E2E00C941929CE01FB
:1013600001960E9499088111EDCFF5CFFC012481EF
:10137000213021F4808191810E94EE0D0895CF9358
:10138000DF93C82FD62F662381F00E94FB198C2F84
:1013900090E09C01215D31092830310548F46D2F22
:1013A0000E943E17DF91CF9108950E94671AEFCFF8
:1013B0000E94E01AF7CFCF93C82F882399F08CEFC3
:1013C0008C0F813A88F48C2F0E94261E882329F0E6
:1013D0008C2F0E94691E0E94C5118C2F0E94611ED5
:1013E0000E94C511CF91089580E28C0F883048F497
:1013F000C77081E001C0880FCA95EAF70E943311D7
:10140000EFCF83E38C0F833168F761E08C2F0E946C
:10141000BF09E8CF8823F1F09CEF980F913A28F4A8
:101420000E94691E0E94C511089590E2980F98309D
:1014300050F4877091E001C0990F8A95EAF7892FDF
:101440000E943911EFCF93E3980F933118F460E0C5
:101450000E94BF0908951F93CF93DF93182FEB01CC
:101460000E94DB09209739F4812F0E940A0ADF913C
:10147000CF911F9108958FE99FE00197F1F700C088
:1014800000002197EFCF70E060E0893311F460E550
:1014900070E00E942B0A0895882321F00E943311E6
:1014A0000E94C5110895882321F00E9439110E94DD
:1014B000C5110895B0E0A0E0E0E6FAE00C94F6284B
:1014C0006C01D62FC72FFC011581068102950F7084
:1014D0000E942911E82E8823F9F0E12E1123E1F072
:1014E0008C2F807F803461F080E28D0F883008F18E
:1014F0008C2F807E803221F4D230D8F00023C9F0C6
:101500008091F50182FF15C082E00E94EA110E94DD
:10151000291191E0E82EE926BC2EB2949FE0B92271
:10152000FBE0FB15B8F1EB2DF0E0E257F64D0C9423
:10153000E728E12CF1CF0C2F0F70C07F11F002953E
:10154000007F112399F0002359F080E28D0F88303D
:1015500010F0D11107C0802F0E9433110E94C511D5
:101560008D2F5AC0802F0E944611F8CF8D2F0E94D8
:101570000A0A002379F080E28D0F883010F0D11133
:1015800004C0802F0E94391103C0802F0E944C118B
:101590000E94C511EB2DE850FF0B349720F40E94F8
:1015A000E81D0E945B09EE2089F00E94251180FD54
:1015B0000DC0F60115820E941F110E94040DC60184
:1015C0000E944D0C0E941F110E94140DCDB7DEB772
:1015D000E9E00C9412292C2F2F70F22EC07FC0321C
:1015E00019F0F29480EFF822DD2341F0D130D1F1EF
:1015F000112309F444C00023F1F0B2CF8091F5012A
:1016000082FD15C0112359F0FF2029F08F2D0E9473
:1016100033110E94C51180E00E94DB09BBCF80E03E
:101620000E940A0AFF2009F4B5CF8F2DABCF1123FA
:1016300069F0011104C08F2D0E944C0AABCF01301C
:1016400009F0A8CF8F2D0E946D11A4CF0111A2CF58
:101650008F2D0E94530A8F2D0E9479118F2D0E9489
:101660005D1198CF112321F0063008F093CFE3CF1E
:10167000053008F08FCF8F2D0E94530A8BCF0023A7
:10168000D1F3D93349F43FEF87EE93E031508040F6
:101690009040E1F700C000008D2F0E940A0A7ACF27
:1016A000612F8D2F0E94BF0975CF8C2F8370A1F5FC
:1016B000111170CF4D2F429546954770440F440F3E
:1016C0002D2F2F7030E0042E02C0220F331F0A94FA
:1016D000E2F790E080E0D4FF09C08FE090E002C024
:1016E000880F991F4A95E2F780959095C695C69503
:1016F000C370822B932BC23049F058F4C13019F0DB
:101700000E94D70C47CF0E94CE0C44CF0E94E00C21
:1017100041CF0E94CB0C3ECF8695112311F08C2F28
:101720008170882309F436CF4D2F42954695477036
:10173000440F440F2D2F2F7030E0042E02C0220FD3
:10174000331F0A94E2F790E080E0D4FF09C08FE0F5
:1017500090E002C0880F991F4A95E2F78095909516
:10176000C695C695C370822B932BC23049F058F4AE
:10177000C13019F00E943F0D0DCF0E94360D0ACFE7
:101780000E94480D07CF0E94EC0C04CFCF701123AC
:1017900029F08C2F0E94040D8D2F4ECF8D2F0E948B
:1017A000530A8C2F0E94140DF5CED23F41F160F404
:1017B000D03FB9F0D13F81F0112309F446C00111A7
:1017C000CFCE8C2F8F711FC0D33F01F1D43FA1F733
:1017D0008091F50182FD24C08C2F8F71112311F3AC
:1017E00012C0112341F0053008F0D4CE8C2F8F7138
:1017F0000E94260DCFCE063008F0CCCEF7CF8C2F2E
:101800008F711111CFCF0E94040DC4CE112329F086
:101810008C2F8F710E94F80CBDCE0E94F30CBACEB3
:10182000112349F0CF718C2F0E94040D63E08C2F9F
:101830000E94CC11AFCE81E00E94EA11023008F480
:10184000A9CE82E00E94EA11A5CE002359F0D93337
:1018500009F022CFEFEFF7EE23E0E150F040204017
:10186000E1F718CF8C2F8F719DCF0F931F93CF93DC
:10187000DF93EC01688179818D810E94F90D8C01E3
:101880000E94510D0E94CA0CB801CE010E945A0A52
:10189000DF91CF911F910F910895CF93DF93EC01CA
:1018A0008C81882399F0CE010E94D408811111C047
:1018B0000E942911882351F08D81882339F080916D
:1018C000F50182FF03C082E00E94EA11DF91CF910F
:1018D0000895CE010E94350CCE010E94A508F6CFD6
:1018E0000E9453110E94C5110E94FC1A0E94E01A26
:1018F00008950E94711E0E94700C08950E9440116C
:101900000E94790C089592959F70963091F058F44A
:10191000925F9F70923058F4803F19F030F4883E07
:1019200030F481E008959A5FF4CF843FD1F380E0F2
:101930000895883EB0F3813FD1F7F3CFFC012481B5
:10194000222339F0808191810E94EE0D0E94830C48
:10195000089580E00895A6E0B0E0E1EBFCE00C948F
:10196000FD282696E2E00C941929A7E0B0E0EBEB05
:10197000FCE00C94FD282796E2E00C9419290895C8
:101980000E94BF0C08950E94C00C90935801809350
:101990005701089508950E94C30C0895209157019E
:1019A00030915801822B932B0E94C30C08952091F3
:1019B000570130915801822393230E94C30C08954C
:1019C0002091570130915801822793270E94C30C20
:1019D00008950E943C0808950E94E90C90935601D6
:1019E00080935501089590E080E00E94EC0C0895EA
:1019F00021E030E0A90102C0440F551F8A95E2F7AB
:101A0000CA010E94EC0C089521E030E002C0220FD0
:101A1000331F8A95E2F78091550190915601822BF0
:101A2000932B0E94EC0C089521E030E002C0220FBD
:101A3000331F8A95E2F7209530958091550190915A
:101A40005601822393230E94EC0C089521E030E09C
:101A500002C0220F331F8A95E2F7809155019091C1
:101A60005601822793270E94EC0C0895209155017E
:101A700030915601822B932B0E94EC0C08952091FB
:101A8000550130915601822393230E94EC0C089556
:101A90002091550130915601822793270E94EC0C2A
:101AA00008950895262F277091E001C0990F2A9577
:101AB000EAF723E0769567952A95E1F7660F771F99
:101AC000660F771FFA01E60FF71F50E040E0682F1E
:101AD00070E08191DF0111979B01042E02C03695C1
:101AE00027950A94E2F72170219528272923282792
:101AF0002C934F5F5F4F4430510559F70895A82F3D
:101B0000A77023E0969587952A95E1F7880F991F8E
:101B1000880F991FFB01E80FF91F50E040E080E0BB
:101B2000219130E00A2E02C0369527950A94E2F7FB
:101B300021703327042E01C0220F0A94EAF7822B6A
:101B40004F5F5F4F4430510559F70895262F892B79
:101B500039F441E551E070E060E0822F0E94520DBF
:101B60000895892B39F461E571E090E080E00E94EE
:101B70007F0D089580E00895B0E0A0E0E2ECFDE084
:101B80000C94F6287C01009155011091560180912A
:101B9000570190915801082B192BCFE0D0E0CC24AD
:101BA000C394D12CBC2EC6010C2E02C0880F991FE5
:101BB0000A94E2F780239123892B49F4219790F727
:101BC000B12C8B2DCDB7DEB7E9E00C941229B7010B
:101BD0008C2F0E94C014019789F3F3CFCF93DF932A
:101BE000EC010E94BC0DBE010E94C014DF91CF9198
:101BF00008951F93CF93DF93EB01909150019923A8
:101C000039F0CB010E94EE0DDF91CF911F91089525
:101C1000882369F0CB010E94BC0D182F682FCE01DC
:101C20000E94A60DBE01812F0E94C014EDCFCB01F2
:101C30000E94B10D182FF6CF1F93CF93DF93C09161
:101C4000590117E080915A018C1304C0DF91CF91A4
:101C50001F910895D0E01C9FF0011D9FF00D1124ED
:101C6000E55AFE4F20813181428153816481758123
:101C700086810E94B50C2196C770E4CF2091930114
:101C80003091940140919501509196016091970196
:101C900070919801809199010E94B50C0895482F88
:101CA0002091590190915A0157E0291302C080E018
:101CB000089530E0529FF001539FF00D1124E55A32
:101CC000FE4F8181681306C08081481303C085815F
:101CD0008111EECF2F5F3F4F2770E7CF8FEA90E063
:101CE0000895B0E0A0E0E7E7FEE00C94F8288091CA
:101CF0009901807F09F054C080919801882309F4EC
:101D00004FC0E091590187E0D82E80915A018E177B
:101D100009F446C00E2F10E0ED9DF0011124E55AA4
:101D2000FE4F8481882309F440C0D09EE001D19EFB
:101D3000D00D1124FE01E55AFE4F9181809194014E
:101D4000981333C090818091930198132EC08581A0
:101D500081112BC0E280F3808091950190919601D2
:101D6000E81AF90A60E083E991E00E948E0863E9CD
:101D700071E00E946E0EE816F906B8F480919901A0
:101D80008F70806180939901CF59DE4F88818F7069
:101D90008061888383E991E00E944D0C0E941C0EB3
:101DA000CDB7DEB7E7E00C941429F8013196E7705F
:101DB000ACCFA4E1B0E0EFEDFEE00C94F0288C0194
:101DC00086E0F801DE011F9601900D928A95E1F7F9
:101DD000F801F480E58083E9882E81E0982E8091D7
:101DE0009701811126C0F11007C0FF24F3948F2DB5
:101DF0006496EFE00C940C29EE20B9F0C8010E9423
:101E00009E0CF82E882389F087E0F801A3E9B1E061
:101E100001900D928A95E1F783E991E00E94B6095D
:101E20000E94710E0E943E0EE2CFC8010E944D0C2E
:101E3000DCCF5080A180C280D380B0909801809187
:101E40009501909196013601681A790A60E083E95C
:101E500091E0BB2009F408C10E948E0863E971E09B
:101E60000E946E0E6816790608F0ABC0FF2009F4D8
:101E7000BCCF80919901382F307F20919401F801D7
:101E8000918131115AC0FE2C291316C02091930163
:101E90009081291311C0E11049C08F708061809337
:101EA00099010E943E0E83E991E00E944D0C8091C1
:101EB0009901F80186839BCFE11038C06A2D852DEA
:101EC0000E944F0E6A2D852D0E944F0EE82E811123
:101ED0008ECF5F86A88A8F8598890E94EE0D292F64
:101EE00022952F70243058F49F70223088F0992367
:101EF00099F0F8019681907F79F4FE2C78CF2A5FD3
:101F00002F70223068F0C8010E944D0CEB2CF5CFE9
:101F1000992311F0882389F3805E883070F3F3CF22
:101F2000803F58F3815F833070F7E7CF809199014C
:101F3000816080939901F12C5ACF291317C0209109
:101F400093019081291312C0E11010C08683C8014B
:101F50000E944D0C87E0F801A3E9B1E001900D92D9
:101F60008A95E1F70E943E0EFB2C41CFC8010E94EA
:101F70009E0C882309F459CFEE2009F456CF8091A6
:101F80009901803288F02091930130919401398732
:101F90002887DB86CA86909197019C871D868E874D
:101FA000CE0108960E944D0C87E0F801A3E9B1E04C
:101FB00001900D928A95E1F70E94710E0E943E0EEB
:101FC00014CF80919901982F907FB1F46C2DDA8A0B
:101FD000C98A452D5A2D7A898F2D9E2D0E94AB0CD2
:101FE00083E991E00E944D0C87E0F40111928A95FB
:101FF000E9F70E943E0E9FCFFF2009F4F6CE209114
:102000009401F8019181291311C0209193019081CD
:1020100029130CC0E1100AC08683C8010E944D0C30
:1020200087E0F40111928A95E9F79ECFC8010E94DA
:102030009E0C882309F4F9CEEE2009F4F6CE8091A7
:102040009901803208F4B0CF20919301309194012E
:102050003A832983DC82CB82909197019D831E82F3
:102060008F83CE0101969ECF0E948E0863E971E0B6
:102070000E946E0E6816790608F051C0FF2009F420
:10208000B4CEFE2CEE2009F4D0CE90919401F8014C
:102090008181981336C0909193018081981331C04B
:1020A0008091950190919601C81AD90AFFEACF163E
:1020B000D104F0F49091990190FD1AC0907FC1F085
:1020C00080919901F8018683903F31F0982F907F9D
:1020D000905F8F70892B8683C8010E944D0C87E02A
:1020E000F801A3E9B1E001900D928A95E1F79ACE4B
:1020F00087E0F801A3E9B1E001900D928A95E1F73C
:1021000076CEC8010E949E0C81114ECF809199011C
:10211000816080939901C8010E944D0C68CE6C2D9E
:10212000DA8AC98A452D5A2D7A898F2D9E2D0E94D3
:10213000AB0C5ACFAEE0B0E0E0EAF0E10C94FC2842
:10214000288739874A875B876C877D878E87CE0192
:1021500008960E94D90E8823B1F06C85662341F061
:10216000288539854A855B857D858E850E94B50CDD
:1021700017E08091590190915A0189133DC02E9624
:10218000E3E00C94182987E0FE013896DE011196F1
:1021900001900D928A95E1F78C85882349F320916F
:1021A0005A0130E0C9010196877099274091590181
:1021B0004817190699F097E0929FD001939FB00DB0
:1021C0001124A55ABE4FFE01319601900D929A95A9
:1021D000E1F780935A010E941C0ECACF0E947E0C28
:1021E00010925A011092590187E0E3E9F1E0DF0112
:1021F0001D928A95E9F7BCCF819FC0011124855AB1
:102200009E4F0E94D90E882309F4B9CFE09159015D
:102210001E9FF0011124E55AFE4F20813181428139
:1022200053816481758186810E94B50C809159012A
:1022300090E0019687709927809359019ACF8091F9
:10224000A20186958695869508958091A201877052
:1022500008959091A201977081E009F480E00895BB
:102260008091AE0108959091AE01892B8093AE01CB
:10227000089580959091AE0198239093AE010895B2
:102280001092AE0108958091AD0108959091AD0135
:10229000892B8093AD01089580959091AD0198238D
:1022A0009093AD0108951092AD0108958091A4011D
:1022B000089508950E94591108959091A301292F1E
:1022C000282331F0809589238093A3010E945A111D
:1022D000089508950E94691108959091A401292FED
:1022E0002823281729F0982B9093A4010E946A11A3
:1022F00008959091A401292F282331F080958923F6
:102300008093A4010E946A1108958091A4018823FA
:1023100029F01092A40180E00E946A1108950F93A1
:102320001F93CF93DF930091220110912301C0915D
:10233000AE018091AD01C82B8091A401882331F0BA
:10234000C82B0E94111E81110E948511F801C083C3
:10235000C0912201D091230148E050E06AE971E088
:10236000CE010E942429892B59F088E0FE01AAE9B8
:10237000B1E001900D928A95E1F7CE010E94F81D1F
:10238000DF91CF911F910F9108950E948F110895B1
:1023900008950E94C81108959091F50192FF11C00F
:1023A00098E0899F90011124622B6093A2010E9402
:1023B000040D8091A2018695869586950E94C9118B
:1023C00008950E94040D08951092A20180E00E94D9
:1023D000C91108959091A201809589238093A2014B
:1023E000282F277069F4891759F09091F50192FF11
:1023F00007C08695869586950E94140D0E94E4116B
:1024000008959091F50192FB222720F9281769F091
:1024100080FB92F99093F5018091F4019091F50180
:102420000E94491282E00E94EA1108958091F5010C
:1024300082FB882780F991E089270E940112089584
:1024400081E00E940112089580E00E940112089527
:102450006FEF7FEF90E080E00E947629089590E092
:1024600080E00E94422921E0863E9E4F09F020E054
:10247000822F089582E090E00E943A29089583E037
:1024800090E00E943A29089584E090E00E94422959
:102490000895BC0184E090E00E9476290895AB0184
:1024A000BC018FE090E00E946A290895AB01BC0155
:1024B00083E190E00E946A29089560E070E0CB011A
:1024C0000E945612089560E070E0CB010E944F1206
:1024D0000E945D120895A8E0B0E0E1E7F2E10C94FB
:1024E000FD2866EE7EEF90E080E00E94762960E0B5
:1024F00082E090E00E94582981E090E0909358019A
:102500008093570161E083E090E00E94582960E0E9
:1025100074E184E090E00E94762960E086E090E03B
:102520000E94582960E087E090E00E94582940E02E
:1025300050E0BA0188E090E00E946A2960E084E2FD
:1025400090E00E94582960E087E190E00E945829BD
:1025500060E08CE090E00E94582960E08DE090E01F
:102560000E94582919821A821B821C821D821E8297
:102570001F82188648E050E068E170E0CE010196C5
:102580000E94482940E050E0BA0180E290E00E94B9
:102590006A290E9463122896E2E00C9419290E948D
:1025A0006B120895682F8EE090E00E9458290895DC
:1025B000A6E0B0E0EEEDF2E10C94FB280E94491F8A
:1025C0008C018091AF019091B0018017910781F04B
:1025D00019821A820E94491F682F49815A81792FD6
:1025E00080E090E00E9486091093B0010093AF0153
:1025F0002696E4E00C9417290E94551F6093BA01B7
:102600007093BB018093BC019093BD016093B601B0
:102610007093B7018093B8019093B90108950E9417
:10262000551F6093BA017093BB018093BC019093D6
:10263000BD016093B2017093B3018093B401909394
:10264000B5010895089508950E94221308950895EC
:102650000E942713089586EB95E10E9460160E9460
:1026600023130E942413089581E008950E943413D7
:1026700008950E9434130895089508950E943C130C
:102680000E943D1308950E942F12811102C00E94E2
:10269000CF120E943A128093BE010E94441290937E
:1026A000F5018093F4010E943F1290E00E94CB0C50
:1026B00080915501909156010E94E90C08950E9465
:1026C000401F0E94DA150E9443130E945A090E947B
:1026D00081160E9428130895A6E0B0E0E2E7F3E136
:1026E0000C94FB280E943613811111C00E94D8124D
:1026F0000E94A71D0E94D61681110E940F130E94EE
:10270000391B0E946D092696E4E00C9417290E945B
:10271000E6151091B10180E00E94C015181731F341
:102720008091BE0181FD0E94C6150E943913082FB9
:1027300080E00E94C015182F8091B101912F982739
:10274000181303C00E94FC12D3CF90FF0FC00023C8
:1027500069F019821A820E94491F682F49815A81A3
:10276000792F81E0912F91700E9486091093B10119
:10277000E9CF1F93CF93DF930E94C514EC01C115DD
:1027800082E5D80708F03FC0C11590E5D90708F0E9
:10279000C2C0C83ED105C0F4C03ED10580F4C53AE0
:1027A000D10548F4C430D10550F4C130D10539F019
:1027B000D0E0C0E004C0CD3CD105D0F3D065CE015F
:1027C000DF91CF911F910895C11580E4D80708F0DB
:1027D00053C0C11590E2D90708F0B7C0C11581E018
:1027E000D80730F38D2F0E946715182FCE01992737
:1027F0000E94C514C12FD0E0DC2FCC27CC27DF717D
:10280000C82BD92BDCCFC03892E5D907A8F4C03645
:1028100082E5D80708F063C0C03492E5D90708F014
:1028200049C0C03282E5D80788F1CF71D0E0DC2FF3
:10283000CC27C16FD06AC3CFC03C92E5D90780F4E2
:102840008C2F8F71C03AD24508F45EC00E94671584
:10285000C82FD0E0DC2FCC27CC27DF71D062AFCFE0
:10286000C03E82E5D80708F0A3CFDC2FCC27CC27C9
:10287000DF71C06FD06AA3CFCE0199270E94C51423
:10288000CC27DF70C82BD92BD06A99CF2C2F269557
:10289000269590E2299F900111248C2F8370C1E02E
:1028A000D0E002C0CC0FDD1F8A95E2F7C22BD32BFC
:1028B000DD6885CF2C2F26952695277080E2289FEE
:1028C000900111248C2F8370C1E0D0E002C0CC0FA6
:1028D000DD1F8A95E2F7C22BD32BDC6870CF2C2F3B
:1028E00026952695277090E2299F900111248C2F20
:1028F0008370C1E0D0E002C0CC0FDD1F8A95E2F703
:10290000C22BD32BDA685BCFC82FD0E0DC2FCC27CB
:10291000C46FD06A54CF8C2F8F710E94671555E019
:10292000D695C7955A95E1F7CF70D0E0DC2FCC272C
:10293000282F30E084FF05C044E0220F331F4A9562
:10294000E1F7C22BD32BD0693ACF8D2F8F710E9424
:102950006715182FCE0199270E94C514C12FD0E00A
:10296000DC2FCC27CC27DF71C82BD92B77CF672B57
:1029700021F440E00E944F08089590E080E008951F
:102980000E94B7140E94B913089582389105B9F1D5
:10299000B0F48133910509F47DC048F48932910582
:1029A00009F46DC08A32910509F47BC0089585331E
:1029B000910509F45FC08933910509F10895833EBB
:1029C0009105D9F138F4803E910529F1823E9105B7
:1029D00079F10895863E9105D9F1873E910509F474
:1029E0003EC0843E910541F52091F50121FF24C0B0
:1029F0008091F40184FD19C087EE90E00895209144
:102A0000F401237009F05AC02091F50123FF14C08E
:102A100089E290E008952091F40120FD38C03091C2
:102A2000F50130FF09C024FF43C090E080E0089525
:102A30002091F40122FDF7CF08952091F40122FDA9
:102A40003AC03091F50130FD39C024FFF5CFEDCF0C
:102A50002091F40123FFF0CF24FDE7CFCDCF2091CB
:102A6000F40123FD2EC03091F50131FFEECF84EE4D
:102A700090E008952091F40125FFDECFC9CF209189
:102A8000F40125FD21C02091F50123FFD5CF89E375
:102A900090E0D2CF2091F40126FFCECF8AE290E0E1
:102AA00008952091F40126FFC7CF81E390E00895B7
:102AB00083EE90E0089582EE90E0089580EE90E03D
:102AC000089586EE90E0089585E390E00895909152
:102AD000F40192FF10C041E0282F2471243009F046
:102AE00040E031E0282F2871283009F030E043170A
:102AF00011F02CE0822793FF10C041E0282F2471B1
:102B0000243109F040E031E0282F2871283109F004
:102B100030E0431711F02CE082273091F50130FFAF
:102B200010C051E0282F2171213009F050E041E020
:102B3000282F2871283009F040E0541711F029E0BF
:102B4000822731FF10C041E0282F2171213109F087
:102B500040E031E0282F2871283109F030E0431798
:102B600011F029E0822794FD877E089580E0089582
:102B700008950E94B815089508950E94BC150895FF
:102B8000E82FF0E0E950FE4F808108950895859880
:102B90008D9A08952FB1860F911D30E045E035954F
:102BA00027954A95E1F72095309521703327FC0150
:102BB000208308950E94C7151092F7011092F60124
:102BC00081E00E940B160E94B9150895A1E0B0E0C3
:102BD000ECEEF5E10C94FC28198260E0CE01019640
:102BE0000E94CA159091F601898121E0981301C0D5
:102BF00020E098138093F60141E067EF71E086EFE3
:102C000091E00E940C16182F0E94BD15812F21966D
:102C1000E3E00C9418290895B0E0A0E0E2E1F6E1C9
:102C20000C94F7286C017B01042FC22F222379F02A
:102C300081E08093C1010E94491F9093C00180935D
:102C4000BF0180E0CDB7DEB7E8E00C941329D09146
:102C5000C101DD23B1F38091BF019091C0010E94B9
:102C6000611F059770F310E0A801B601C7010E942B
:102C70002429892B31F0A801B601C7010E9431290E
:102C8000CD2F1092C1018C2FDDCF0E94F2210E9426
:102C90005F130E94FF2108950E9404220E946C137A
:102CA0000E941E2208950E94E21E0E94D8210E94C6
:102CB0002B130E9445160E944C160E943E13FBCF18
:102CC000909341018093400108950895ACE0B0E0F5
:102CD000ECE6F6E10C94FD280E946F0780E090E09E
:102CE0002C96E2E00C94192921E030E001C0220F7B
:102CF0004A95EAF7662311F0822B089520958223E6
:102D00000895E0913801F091390109950E943D083C
:102D10000E9465160895CF9362EC71E089EC91E012
:102D20000E947C1EC82F882321F089EC91E00E942C
:102D3000031E9091CA0186E0E9ECF1E0DF01282F43
:102D40001D922A95E9F79093CA01A2ECB1E0019097
:102D50000D928A95E1F781E0C11103C0911101C084
:102D600080E08170CF910895ACE0B0E0EAEBF6E14D
:102D70000C94FD284F8358877A878B879C876195B1
:102D8000698786E0FE013796DE01119601900D926B
:102D90008A95E1F729813A814B815C816D817E8141
:102DA00080E090E02C96E2E00C941929A6E0B0E0D7
:102DB000ECEDF6E10C94FD28E0913A01F0913B0135
:102DC0004091C9015091CA016091CB017091CC0131
:102DD0008091CD019091CE010995F42FE52FCB0183
:102DE0002093C9013093CA01F093CB01E093CC0149
:102DF0006093CD019093CE01A9016F2F7E2F0E9489
:102E0000B416F42FE52FCB012093C9013093CA01EA
:102E1000F093CB01E093CC016093CD019093CE0170
:102E2000A9016F2F7E2F0E9466162093C90130934F
:102E3000CA014093CB015093CC016093CD017093B4
:102E4000CE010E940A1B8091CA01832B8093CA0184
:102E50000E948B16811109C08091C8011092C8018F
:102E600081702696E2E00C94192981E090E0F6CF7B
:102E7000E0913C01F0913D01099508959C01215D8F
:102E800031092830310550F44FE2480F8091CA01D2
:102E90000E9474168093CA010E948B160895ACE0BC
:102EA000B0E0E5E5F7E10C94FD284F8358878B8768
:102EB0009C870E943618FC0160382FEF72072CF1B6
:102EC0009B016038710514F02FE730E0E038FF4FC8
:102ED000F4F08038910514F08FE790E029878A8715
:102EE00086E0FE013796DE01119601900D928A95DB
:102EF000E1F729813A814B815C816D817E8180E09F
:102F000090E02C96E2E00C94192920E8DFCF80E8CD
:102F1000E5CF28E030E043E060E087EF0E94CB1F80
:102F20000895CF93DF93D82FC62F0E9489178D2F36
:102F300080680E9443208C2F0E9443200E947320AF
:102F40008FED91E00197F1F700C00000DF91CF9184
:102F50000895CF93C82F0E9489178C2F8F770E94D6
:102F600043200E945B20C82F0E9473208AE68A9526
:102F7000F1F700C08C2FCF9108958FE00E94A91720
:102F800028EC829FC0011124089568EC883C9105CB
:102F900048F068E0893020E2920720F468EC70E0A5
:102FA0000E94BF288FE00E9491170895CF93DF936E
:102FB000879A0E94C31F6AE58AE30E9491172FEF48
:102FC00080E792E0215080409040E1F700C000008F
:102FD00082E00E94A91783E00E94A91784E00E9462
:102FE000A91785E00E94A91786E00E94A91762E050
:102FF00089E30E9491176DE183E10E949117EFE34D
:10300000FCE93197F1F700C0000068E183E10E941C
:1030100091170E94891782EE0E944320F0E5FA95ED
:10302000F1F7CEEAD0E0FE0184910E944320F0E562
:10303000FA95F1F721962CE0CC3AD207A1F70E943D
:1030400073208FE39CE90197F1F700C0000080E254
:103050000E94A917682F607F80E20E94911780E488
:1030600096E00E94C517DF91CF9108950F931F93AB
:10307000CF93DF930E94891780E50E9443208FE859
:1030800091E00197F1F700C000000E945B2087FFEC
:1030900022C00E945B200E945B20D82F0E945B20F0
:1030A000182F0E945B20C82F0E945B2020E0312F48
:1030B00089010D2B20E0382FC9018C2BEC0182E017
:1030C0000E9443200E947320B801CE01DF91CF916E
:1030D0001F910F910895D0E0C0E010E000E0EFCF25
:1030E000CF93DF93EB0186319C4711F50E9430119D
:1030F0009D81992399F08A7A91E009F490E0909368
:10310000CF01811109C089E20E94611E0E94C51190
:1031100080E0DF91CF91089585E3F6CF8091CF01D4
:10312000811104C089E20E94691EF0CF85E3FBCFC4
:1031300081E0EFCFCF93DF93EC01FB018581882302
:1031400009F4D2C09E0130572332310508F0B2C0D5
:103150000E9444129093F5018093F401FE01E15026
:10316000F047E232F10520F4E656F64D0C94E728DC
:103170008091F40181608093F40193C08091F50106
:1031800088608093F5018DC08091F4018260F3CF57
:103190008091F4018460EFCF8091F4018860EBCFDF
:1031A0008091F5018160EDCF8091F5018260E9CFDA
:1031B0008091F4018061DFCF8091F4018062DBCFE8
:1031C0008091F4018064D7CF0E947E0C8091F4013D
:1031D0008068D1CF8091F4018C60CDCF8091F501D2
:1031E0008360CFCF8091F4018E7FC5CF8091F501B0
:1031F000877FC7CF8091F4018D7FBDCF8091F4018F
:103200008B7FB9CF8091F401877FB5CF8091F50195
:103210008E7FB7CF8091F5018D7FB3CF8091F40180
:103220008F7EA9CF8091F4018F7DA5CF8091F4018D
:103230008F7BA1CF0E947E0C8091F4018F779BCF72
:103240008091F401837F97CF8091F5018C7F99CF96
:103250008091F40182FB992790F921E0922790FB5D
:1032600082F990FB83F987CF8091F501982F909593
:1032700091708E7F892B90FB81F983CF9091F4011F
:10328000892F8F7B96FF806476CF0E947E0C909171
:10329000F401892F97FB87F980586DCF81E00E9458
:1032A000D2128091F4019091F5010E9449120E947E
:1032B0007E0C80E0DF91CF91089580E0F0CF909177
:1032C000F401892F8F7E94FF806155CF9091F40196
:1032D000892F8E7F90FF81604ECF9091F501892FCD
:1032E000877F93FF88604DCF81E0E4CF282F35EBB7
:1032F0002303C001112497FF04C080589109892F2E
:10330000089580589F4FFBCF8091D60180FF0DC05C
:103310006091290170E0660F771F6038710570F5C4
:103320006115710569F1862F089581FF07C06091CD
:10333000290184E0689FB0011124EFCF6091290139
:1033400082FD0AC08091D5018823A9F0209128012F
:1033500060912901821710F088E0ECCF869FC001B0
:10336000112433E0880F991F3A95E1F7622F70E03E
:103370000E94D328D2CF68E070E0D5CF8FE70895C0
:1033800081E008958091D60180FF0CC060912501F5
:1033900070E075956795759567956115710549F1AB
:1033A000862F089581FF06C06091250170E0759514
:1033B0006795F3CF6091250182FD0BC09091D401F8
:1033C0009923A1F06091240180912501961738F08E
:1033D000682F70E06038710500F38FE70895899FCA
:1033E000C001112470E00E94D328F4CF61E070E0A6
:1033F000D7CF81E008959091D9012091DA01922BE5
:103400002091DC01922B2091DB01922B31F098E08E
:103410009093D50191E09093D4018D3C31F40E94BA
:10342000841981958093DA0108958E3C19F40E94E5
:103430008419F8CF8F3C31F40E94841981958093D0
:10344000D9010895803D19F40E948419F8CF893D6F
:1034500029F40E94C2198093DB0108958A3D21F46A
:103460000E94C2198195F7CF8B3D31F40E94C21999
:1034700081958093DC0108958C3D19F40E94C21956
:10348000F8CF9FE2980F983070F4815D990B21E09E
:1034900030E001C0220F8A95EAF78091D801822B93
:1034A0008093D80108958D3D31F48091D6018160DB
:1034B0008093D60108958E3D21F48091D6018260DB
:1034C000F7CF8F3DB9F78091D6018460F1CF40915D
:1034D000D9018D3C59F48091DA0187FF0DC010921B
:1034E000DA0141110BC01092D50108C08E3C81F465
:1034F0008091DA0118169CF3442381F08091DB015E
:103500009091DC01892B09F05AC01092D4010895E2
:103510008F3C49F447FFF0CF1092D9018091DA0136
:103520008111ECCFE0CF803D19F41416ACF3E4CF59
:103530009091DB01893D29F41916F4F61092DB0114
:10354000DBCF8A3D19F497FFD7CFF8CF9091DC01FC
:103550008B3D29F497FFD0CF1092DC01CDCF8C3D6D
:1035600019F41916CCF3C8CF9FE2980F983090F455
:10357000815D990B21E030E0B90102C0660F771F31
:103580008A95E2F7CB0180959091D80189238093A9
:10359000D801B2CF8D3D31F48091D6018E7F8093DA
:1035A000D601AACF8E3D21F48091D6018D7FF7CF31
:1035B0008F3D09F0A1CF8091D6018B7FF0CF089588
:1035C0000E94491F9C019091D9018091DA01982BAA
:1035D00021F03093D3012093D2019091DB018091AF
:1035E000DC01982B21F03093D1012093D00187ED9D
:1035F00091E00E94031E089586E0E7EDF1E0DF010F
:103600001D928A95E9F71092D5011092D40110927B
:10361000D6010895A6E0B0E0E0E1FBE10C94FD28BE
:1036200086E0E7EDF1E0DE01119601900D928A95BA
:10363000E1F729813A814B815C816D817E8180E057
:1036400090E02696E2E00C941929FC018281811118
:103650000EC0838181110BC08481811108C091E06B
:103660008581811101C090E0892F8170089581E0EA
:10367000FCCFA6E0B0E0EFE3FBE10C94FC2886E091
:10368000E7EDF1E0DE01119601900D928A95E1F7E8
:103690001092D9011092DA011092DB011092DC0134
:1036A0008B819C81892B89F08091D2019091D301EB
:1036B0000E94611FAC019091D5019923C9F18091BD
:1036C0002A018417150608F440C08D819E81892B3C
:1036D00091F08091D0019091D1010E94611FAC01C5
:1036E0009091D401992309F46AC08091260184172E
:1036F000150608F472C0BE016F5F7F4F87ED91E041
:103700000E947C1E811105C087ED91E00E94251B5F
:1037100081110E94E01A86E0FE013196A7EDB1E02A
:1037200001900D928A95E1F72696E3E00C94182912
:1037300020912B018AE0289F90011124241735073E
:1037400020F69F5F9093D50102C09F3FD1F71B8168
:10375000112359F00E9484199FEF11160CF491E087
:10376000899F802D11248093D9011C81112359F048
:103770000E9484199FEF11160CF491E0899F802D0F
:1037800011248093DA018091D901882309F49DCF17
:103790001091DA01112309F498CF0E947619882339
:1037A00051F08093D901812F0E947619882329F046
:1037B0008093DA018ACF81E0F4CF81E0F9CF2091C4
:1037C00027018AE0289F900111242417350708F06B
:1037D00092CF9F5F9093D40102C09F3FD1F71D818C
:1037E000112359F00E94C2199FEF11160CF491E0B9
:1037F000899F802D11248093DB011E81112359F0B4
:103800000E94C2199FEF11160CF491E0899F802D40
:1038100011248093DC018091DB01882309F46BCFB4
:103820001091DC01112309F466CF0E9476198823D8
:1038300051F08093DB01812F0E947619882329F0B3
:103840008093DC0158CF81E0F4CF81E0F9CFB0E084
:10385000A0E0EDE2FCE10C94F5287C015B01C42FB3
:10386000D22FFC0185818823C9F04093DF010E949B
:10387000491F9093DE018093DD0180E28C0F883038
:1038800040F4C77081E001C0880FCA95EAF70E9432
:103890004C0ACDB7DEB7EAE00C9411291091DF0194
:1038A000141338C08091DD019091DE010E94611FE8
:1038B0006C01B701C5010E946E0EC816D90650F5FD
:1038C000C0E2CD0F1D17C1F080E2810F883048F4AF
:1038D000177081E0012E01C0880F0A94EAF70E9458
:1038E000530AC83048F481E09D2F977001C0880FBB
:1038F0009A95EAF70E944C0A802F0E94430AC8302A
:1039000040F6D77081E001C0880FDA95EAF70E948F
:10391000530ABFCF80E28C0F883008F0BACFC7704F
:1039200081E001C0880FCA95EAF7F1CF0F93DB0160
:1039300088519C4787309105A0F5FC01E454F64D71
:103940000C94E72806E221EE41EE6AE17CE7CD0126
:103950000E94271C80E00F91089507E225EE45EEB6
:103960006BE17CE7F4CF06E221EE40EE68E17CE714
:10397000EECF07E225EE44EE69E17CE7E8CF06E210
:1039800021EE42EE6CE17CE7E2CF07E225EE46EE67
:103990006DE17CE7DCCF08E221E045EE6EE17CE7FB
:1039A000D6CF15968C91882319F01092DF01D3CFD2
:1039B00081E0D1CF4115510511F0FA010995089523
:1039C000CF93DF93EC014A855B856E857F850E94EE
:1039D000DA1C8B810E944C118C810E9439110E944B
:1039E000C51186E0FE0111928A95E9F7DF91CF912A
:1039F0000895CF93DF93EC018D8181FD11C082602A
:103A00008D838B810E9446118C810E9433110E940C
:103A1000C511488559856E857F85CE010E94DA1CC7
:103A20001092E3011092E2018D8180FD03C0CE016E
:103A30000E94E01CDF91CF910895CF93FB01C581D7
:103A4000CC23F1F0E091E201F091E3013097D9F05D
:103A5000E817F907C1F0FF2724E0EE0FFF1F2A95B2
:103A6000E1F7DF01AB5FBE4F2C9124602C93E05057
:103A7000FF4F91838083CF010E94F91C0E94531154
:103A80008C2FCF910895C0E0FBCF0F931F93CF935E
:103A9000DF938C0197558F3F910509F0C8F5C80158
:103AA000992724E0880F991F2A95E1F7EC01C0506F
:103AB000DF4FFB012581FC01EB5FFE4F808120FB86
:103AC00080F98083222351F10E94491F9093E101E4
:103AD0008093E0018A818F5F8A830E9430118B83FB
:103AE0000E9443119B81892B8B830E9456118C83EA
:103AF0004E815F816E857F85CE010E94DA1C8D81AB
:103B000081FF02C010E000E01093E3010093E201A6
:103B100081E0DF91CF911F910F9108954C855D85D4
:103B20006E857F85CE010E94DA1C8D8181FFF0CFEA
:103B3000CE010E94E01C8091E2019091E301801788
:103B4000910731F71092E3011092E201E1CFA7E073
:103B5000B0E0EDEAFDE10C94FB288091E201909148
:103B6000E301892B61F18091E0019091E1010E94D4
:103B7000611F8C01BE016F5F7F4F87E0FB011192D7
:103B80008A95E9F78091E2019091E3010E946E0E1F
:103B900080179107A0F48091E2019091E3019927A9
:103BA00024E0880F991F2A95E1F7FC01EB5FFE4F97
:103BB000208122FD04C080509F4F0E94F91C27964F
:103BC000E4E00C9417299093E5018093E4010895B3
:103BD000E091E401F091E501309729F00190F08146
:103BE000E02D0995089580E008950E94E81D08954C
:103BF000E091E401F091E501309721F00280F3813A
:103C0000E02D09950895E091E401F091E5013097E8
:103C100039F022E0DC012C930680F781E02D099534
:103C2000089540912201509123019A012E5F3F4F48
:103C3000485F5F4F80E02417350709F40895F901C4
:103C400091919F019923B9F38F5FF5CF882371F08C
:103C50002091220130912301F9013296285F3F4FD4
:103C60009191981729F0E217F307D1F780E00895B2
:103C700081E008959C01FC0132969FEF80E0419124
:103C8000461751F09F3F19F4411101C0982F8F5FE3
:103C90008630A9F79F3F09F40895290F311D97FD3C
:103CA0003A95F90162830895FC01329608962191B4
:103CB000261303C0DF0111971C92E817F907B9F723
:103CC0000895682F80912201909123010E943A1E4D
:103CD0000895682F80912201909123010E94541E23
:103CE0000895E0912201F0912301329686E0DF01F0
:103CF0001D928A95E9F70895DC01FB0111969C91CC
:103D000011978181981322C012968C911297882363
:103D100019F0928189131AC013968C9113978823F6
:103D200019F09381891312C015968C9115978823E9
:103D300019F0958189130AC014969C91992321F05A
:103D400081E02481291303C080E001C081E08170FB
:103D5000089508950E94A91E0895811106C081E06A
:103D60008093E6010E94AA1E089582E0F9CF83E0C5
:103D70008093E6010E94AA1E08950E94AD1E089538
:103D800081E08093E6010E94AA1E08950E94C01E51
:103D90000895089508950E94CA1E089508950895EB
:103DA0000E94C91E08950E94CE1E0E94E6150E9420
:103DB000CF1E80E00E94C01591E0811101C090E00B
:103DC000892F089585B7806885BF85B7806885BFCE
:103DD00008951F921FB61F9211248F939F93AF9344
:103DE000BF938091E701811113C08091F8019091F8
:103DF000F901A091FA01B091FB014196A11DB11DFD
:103E00008093F8019093F901A093FA01B093FB011C
:103E1000BF91AF919F918F911F901FBE1F901895DA
:103E200080910002843031F10E943B091092E70139
:103E300088E190E020E40FB6F894A89580936000A4
:103E40000FBE2093600083B7817F846083BF83B7F8
:103E5000816083BF7894889583B78E7F83BF0FB6C8
:103E6000F894A8958091600088618093600010921A
:103E700060000FBE08950E947E0C0E9442090895C2
:103E800082E084BD93E095BD9AEF97BD80936E006C
:103E900008952FB7F8948091F8019091F901A091BD
:103EA000FA01B091FB012FBF08952FB7F8946091EC
:103EB000F8017091F9018091FA019091FB012FBFF7
:103EC00008959C014FB7F8948091F8019091F90101
:103ED000A091FA01B091FB014FBF821B930B089593
:103EE00078941F921FB61F9211248F939F93AF93C4
:103EF000BF938091F8019091F901A091FA01B091DE
:103F0000FB010196A11DB11D8093F8019093F90169
:103F1000A093FA01B093FB01BF91AF919F918F9154
:103F20001F901FBE1F90189581E08093E00080E2F3
:103F30008093D8001092C9008FE19EE40197F1F7B9
:103F400000C0000087E090EBDC01809309029093B1
:103F50000A02A0930B02B0930C0288E19CE00FB61A
:103F6000F894A895809360000FBE90936000FFCFF7
:103F700088E19CE00FB6F894A895809360000FBE8E
:103F800090936000FFCF289A219A229A23982B9829
:103F900080E58CBD089590912C019F3F09F071C080
:103FA0008F3F09F46EC0611144C01092E9019091F5
:103FB000E901423009F441C0433009F442C0946041
:103FC0004130E1F141E050E042175307E0F19091B8
:103FD000E9014031510509F452C0C0F542305105A4
:103FE00009F446C04830510509F446C09CB52091FB
:103FF000E901922B9CBD9091E801992319F09DB5A0
:1040000091609DBD80932C01E82FE295EF70F0E068
:1040100031A1282F2F7081E090E001C0880F2A95F0
:10402000EAF7382B31A392A18095892382A381E0FE
:10403000089590E29093E901BACF98609093E901D6
:10404000C1CF9C60FBCF440F551FBECF40345105FC
:1040500049F04038510541F04032510539F621E030
:104060002093E801926001C093609093E901BECF74
:1040700091E09093E801BACF21E02093E8019160AC
:10408000F4CF80E00895CF93DF938EBD0E94491F47
:10409000EC010DB407FE05C08EB590E0DF91CF9125
:1040A00008950E94491F8C1B9D0B8436910588F34F
:1040B0008EEF9FEFF3CFCF93DF931EBC0E94491F7B
:1040C000EC010DB407FE05C08EB590E0DF91CF91F5
:1040D00008950E94491F8C1B9D0B8436910588F31F
:1040E0008EEF9FEFF3CF80912C018F3F29F1E82FC6
:1040F000E295EF70F0E041A18F7021E030E0B9016E
:1041000002C0660F771F8A95E2F7CB01942F982B98
:1041100091A392A1892B82A38FEF80932C018DB55F
:104120008E7F8DBD9CB58091E901809589238CBDE2
:104130001092E9011092E80108958091F20108952A
:10414000089508959B01BA01909100029430E9F41A
:104150008F708093E9009FEF8091E800915085FD7A
:1041600006C085ED8A95F1F700009111F5CF809199
:10417000E80085FF0AC050E040E0C9010E94952296
:104180008091E8008E778093E800089546E050E043
:10419000BC0182E00E94A2200895CF93DF93EC013E
:1041A00048E050E0BC0181E00E94A22088E0FE01CE
:1041B000AAEEB1E001900D928A95E1F7DF91CF91DF
:1041C00008958091FF01811109C00E9425240E9459
:1041D00082248091E20084608093E200089510922E
:1041E000FF0108950E94C01E08956091FC0181E0C6
:1041F000611101C080E00E94B71E089590910002F5
:1042000081E0943009F080E06091FC010E94BD1EC5
:10421000089542E061EC81E00E94A12342E261EC5A
:1042200082E00E94A1239091000281E0943009F085
:1042300080E06091FC010E94AD1E08958091020211
:10424000833009F461C030F48130D1F1823009F457
:104250009EC008958A3009F48AC08B3009F46FC07B
:10426000893009F050C080910102813209F04BC0C1
:104270008091050290910602029708F044C0809157
:10428000E800877F8093E8008091E80082FF37C0D4
:104290009091F3008091F200029731F48091F10047
:1042A000813011F0863021F48091F1008093F20189
:1042B0008091E8008B778093E8000E94D52323C08B
:1042C00080910102813AF9F48091E800877F809320
:1042D000E8008091050290910602892B61F468E064
:1042E0008AEE91E070E00E94E4228091E8008B77F2
:1042F0008093E800089560E090E080E0F3CF809143
:1043000000028111C1CF089580910102813AD9F74D
:104310008091050290910602892BA9F78091E8000F
:10432000877F8093E8008091E80080FFFCCF809138
:1043300037018093F1008091E8008E77BCCF8091A7
:104340000102813201F78091050290910602892BCA
:10435000D1F68091E800877F8093E8000E94D52302
:1043600080910302809337010E947E0C0895809112
:104370000102813241F68091E800877F8093E80056
:104380000E94D523809104028093F30108958091C7
:104390000102813A09F0B7CF8091E800877F8093CE
:1043A000E8008091E80080FFFCCF8091F301C1CF4D
:1043B00084B7877F84BF0FB6F894A895809160007A
:1043C000886180936000109260000FBE80E890E0EA
:1043D0000FB6F89480936100909361000FBE0E9425
:1043E000C61E08950E9425240E948224E2EEF0E079
:1043F00080818460808378940E94012708958DE2F3
:1044000091E00E94E31D089580910002853031F40F
:1044100080910002853019F00E943B1F08950E9490
:10442000101F8091FE01882399F30E94D31E8823D8
:1044300079F30E947F220E947E0CEACF08959A01B0
:1044400040910702509108020E9427220895492FA7
:1044500055274330510519F168F44130510509F4ED
:1044600044C04230510509F445C090E080E050E07E
:1044700040E025C04132510549F142325105A9F7CA
:1044800084E490E04CE75DE061157105C1F089E4DA
:1044900090E043E35DE06130710589F0E6CF992754
:1044A0008130910581F0009729F00297F1F6ECEA4E
:1044B000FCE002C0E2EEFCE0849190E0AF01F90183
:1044C000518340830895EAEBFCE0F6CF89E090E069
:1044D00048EF5CE06115710591F389E090E041E1FE
:1044E0005DE06130710559F3C0CF82E190E041E2B7
:1044F0005DE0E5CF8BE390E046EE5CE0E0CF80E16D
:1045000089BD82E189BD09B400FEFDCF8091D8004C
:104510008F7D8093D8008091E00082608093E000DE
:104520008091E00081FDFCCF0895AF92BF92CF92C1
:10453000DF92FF920F931F93CF93DF936C01EB01F8
:104540008A010E94F423F82E811123C00115110560
:1045500039F0F80180819181C81BD90BC80ED91E92
:10456000B12CA12C2097A9F08091E80085FD22C0F4
:104570008091E8008E778093E80001151105A1F085
:10458000F80180819181A80EB91EB182A08285E0D8
:10459000F82E8F2DDF91CF911F910F91FF90DF901B
:1045A000CF90BF90AF9008950E94F4238823D1F25A
:1045B000F82EEFCFF60181916F018093F1002197E2
:1045C000FFEFAF1ABF0ACECFFC0180910702909196
:1045D000080286179707A0F06115710529F49091DC
:1045E000E8009E779093E80090E06115710551F422
:1045F000911108C08091E80082FF34C080E00895E6
:10460000BC01F2CF809100028823C1F18530C1F155
:104610008091E80083FD30C08091E80082FDEACF00
:104620008091E80080FFE1CF8091F3002091F200BB
:10463000382F6115710519F02830310558F091E0D7
:104640002830310509F090E02091E8002E77209382
:10465000E800CBCF81918093F100615071092F5F09
:104660003F4FE7CF80910002882341F0853041F031
:104670008091E80083FFBECF81E0089582E0089535
:1046800083E00895FC01809107029091080286174B
:104690009707A0F06115710529F48091E8008E77E5
:1046A0008093E80090E06115710551F4911108C004
:1046B0008091E80082FF35C080E00895BC01F2CF10
:1046C000809100028823C9F18530C9F18091E8000A
:1046D00083FD31C08091E80082FDEACF8091E8003F
:1046E00080FFE1CF8091F3002091F200382F611517
:1046F000710519F02830310558F091E02830310566
:1047000009F090E08091E8008E778093E800CBCFAD
:1047100084918093F1003196615071092F5F3F4F72
:10472000E6CF80910002882341F0853041F08091EE
:10473000E80083FFBDCF81E0089582E0089583E023
:104740000895982F973028F08F708093E90081E0CA
:1047500008959093E900242F762F50E0981731F0B8
:104760007091EC002091ED005091F00021FD02C00D
:104770009F5FE8CF3091EB003E7F3093EB003091AC
:10478000ED003D7F3093ED003091EB0031603093D0
:10479000EB007093EC002093ED005093F00020911B
:1047A000EE0027FDE5CF80E008958091010287FFAC
:1047B00013C08091E80082FF06C08091E8008B77EB
:1047C0008093E80004C0809100028111F2CF089527
:1047D000809100028823D9F38091E80080FFF8CF10
:1047E0008091E8008E77ECCF2091E4003091E500D5
:1047F00095E6A9012091EC00822F817020FF06C070
:104800008091E80080FF06C080E008952091E800D4
:1048100022FD1AC080910002882389F0853089F03A
:104820008091EB0085FD0FC02091E4003091E50000
:1048300042175307F9F29150E1F684E0089582E0BF
:10484000089583E0089581E008950E9494240E94D1
:104850009C24E0EEF0E0808181608083E8EDF0E070
:1048600080818F77808319BCA7EDB0E08C918E7F1B
:104870008C9380818F7E80831092FF0108950F9327
:104880001F93CF93DF930E9494240E949C24C8ED31
:10489000D0E088818F778883888180688883888149
:1048A0008F7D888319BC109200021092FC01109237
:1048B000FE011092FD0100EE10E0F80180818B7F77
:1048C000808388818160888342E060E080E00E948C
:1048D000A123E1EEF0E080818E7F8083E2EEF0E0C4
:1048E000808181608083808188608083F8018081FD
:1048F0008E7F8083888180618883DF91CF911F9133
:104900000F910895E8EDF0E080818F7E8083E7EDE0
:10491000F0E080818160808384E082BF81E08093C9
:10492000FF010E943F240895E8EDF0E080818E7F32
:1049300080831092E20008951092DA001092E10054
:1049400008951F920F920FB60F9211242F933F9349
:104950004F935F936F937F938F939F93AF93BF9387
:10496000EF93FF938091E10082FF0BC08091E20002
:1049700082FF07C08091E1008B7F8093E1000E945D
:1049800000278091DA0080FF19C08091D80080FF55
:1049900015C08091DA008E7F8093DA008091D90073
:1049A00080FF96C080E189BD82E189BD09B400FE27
:1049B000FDCF81E0809300020E94E1208091E10020
:1049C00080FF19C08091E20080FF15C08091E20055
:1049D0008E7F8093E2008091E20080618093E2000C
:1049E0008091D80080628093D80019BC85E08093C4
:1049F00000020E94F5208091E10084FF2BC080918D
:104A0000E20084FF27C080E189BD82E189BD89B5CC
:104A1000982F917080FFFBCF8091D8008F7D80937D
:104A2000D8008091E1008F7E8093E1008091E200C8
:104A30008F7E8093E2008091E20081608093E200AB
:104A40008091FC01882309F449C084E0809300022E
:104A50000E94FE208091E10083FF29C08091E20046
:104A600083FF25C08091E100877F8093E10082E091
:104A7000809300021092FC018091E1008E7F809370
:104A8000E1008091E2008E7F8093E2008091E2005D
:104A900080618093E20042E060E080E00E94A12318
:104AA0008091F00088608093F0000E94F220FF91D6
:104AB000EF91BF91AF919F918F917F916F915F9196
:104AC0004F913F912F910F900FBE0F901F9018950F
:104AD00019BC109200020E94EF2070CF8091E30079
:104AE00087FD93E090930002B3CF1F920F920FB611
:104AF0000F9211242F933F934F935F936F937F9364
:104B00008F939F93AF93BF93CF93DF93EF93FF93D5
:104B1000D091E900DF708091EC00C82FC17080FD5A
:104B2000C0E81092E9008091F000877F8093F00048
:104B300078940E94B9251092E9008091F000886075
:104B40008093F000CD2BCF70C093E900FF91EF91DF
:104B5000DF91CF91BF91AF919F918F917F916F9195
:104B60005F914F913F912F910F900FBE0F901F902B
:104B70001895AAE2B0E0EFEBF5E20C94FC2881E096
:104B800092E02091F100FC012193CF01F2E0893005
:104B90009F07B9F70E941E218091E80083FF1EC184
:104BA00080910102909102029A3008F017C1E92F1A
:104BB000F0E0ED53F64D0C94E728803899F08238F8
:104BC00009F00CC1809105028F70873008F006C192
:104BD0008093E9008091EB0085FB882780F9109293
:104BE000E90006C08091FD019091FE019111826063
:104BF0009091E800977F9093E8008093F1001092E5
:104C0000F1008091E8008E77E5C0882309F4D3C0D5
:104C1000823009F0E3C0809103028111D6C08091F7
:104C200005028F702FEF280F263008F0D7C0809331
:104C3000E9002091EB0020FFC8C0933031F480914F
:104C4000EB0080628093EB00C0C09091EB0090611C
:104C50009093EB0021E030E001C0220F8A95EAF743
:104C60002093EA001092EA008091EB008860EACF7E
:104C70008111B4C0109103021F778091E300807806
:104C8000812B8093E3008091E800877F8093E80088
:104C90000E94D5238091E80080FFFCCF8091E30043
:104CA00080688093E30082E0111183E0809300022A
:104CB00095C08058823008F091C080910302909195
:104CC00004028C3D23E09207A1F583E08A838AE207
:104CD00089834FB7F894DE01139620E03EE051E25D
:104CE000E32FF0E050935700E49120FF03C0E295DA
:104CF000EF703F5FEF708E2F90E0EA30C0F0C79604
:104D00008D939D932F5F243159F74FBF8091E80019
:104D1000877F8093E8006AE270E0CE0101960E94EE
:104D2000E4228091E8008B778093E80057C0C0961A
:104D3000E7CF6091050270910602AE014F5F5F4FB1
:104D40000E941F22BC01892B09F448C09091E80001
:104D5000977F9093E80089819A810E944223E1CF56
:104D60008038E1F58091E800877F8093E8008091AA
:104D7000FC018093F10045CF811130C09091030276
:104D8000923060F58091E800877F8093E8009093EF
:104D9000FC010E94D5238091FC01882311F084E05E
:104DA00005C08091E30087FDFACF81E08093000287
:104DB0000E94092113C080910302813079F481E0BF
:104DC000933009F080E08093FE011092E900809119
:104DD000E800877F8093E8000E94D5238091E80057
:104DE00083FF0AC08091E800877F8093E80080916C
:104DF000EB0080628093EB00AA96E3E00C94182904
:104E00000895CF93809100028823A1F0C091E9001A
:104E1000CF709091EC00892F817090FD80E8C82BB5
:104E20001092E9008091E80083FD0E94B925CF70BF
:104E3000C093E900CF9108955058BB27AA270E943C
:104E400034270C9485280E94772838F00E947E2809
:104E500020F039F49F3F19F426F40C9474280EF4D2
:104E6000E095E7FB0C946E28E92F0E94962858F3F2
:104E7000BA17620773078407950720F079F4A6F53F
:104E80000C94B8280EF4E0950B2EBA2FA02D0B0130
:104E9000B90190010C01CA01A0011124FF27591B7F
:104EA00099F0593F50F4503E68F11A16F040A22F85
:104EB000232F342F4427585FF3CF469537952795F6
:104EC000A795F0405395C9F77EF41F16BA0B620BF5
:104ED000730B840BBAF09150A1F0FF0FBB1F661F3C
:104EE000771F881FC2F70EC0BA0F621F731F841F7F
:104EF00048F4879577956795B795F7959E3F08F0A5
:104F0000B0CF9395880F08F09927EE0F9795879566
:104F100008950E949D270C9485280E947E2858F0B1
:104F20000E94772840F029F45F3F29F00C946E2806
:104F300051110C94B9280C9474280E94962868F397
:104F40009923B1F3552391F3951B550BBB27AA2742
:104F500062177307840738F09F5F5F4F220F331F7C
:104F6000441FAA1FA9F335D00E2E3AF0E0E832D044
:104F700091505040E695001CCAF72BD0FE2F29D047
:104F8000660F771F881FBB1F261737074807AB0719
:104F9000B0E809F0BB0B802DBF01FF2793585F4F8E
:104FA0003AF09E3F510578F00C946E280C94B92885
:104FB0005F3FE4F3983ED4F3869577956795B79570
:104FC000F7959F5FC9F7880F911D9695879597F97B
:104FD0000895E1E0660F771F881FBB1F62177307F4
:104FE0008407BA0720F0621B730B840BBA0BEE1F09
:104FF00088F7E09508950E9402286894B1110C94F6
:10500000B92808950E949E2888F09F5798F0B92FDC
:105010009927B751B0F0E1F0660F771F881F991FED
:105020001AF0BA95C9F714C0B13091F00E94B828AF
:10503000B1E008950C94B828672F782F8827B85FBF
:1050400039F0B93FCCF3869577956795B395D9F745
:105050003EF490958095709561957F4F8F4F9F4F4F
:105060000895E89409C097FB3EF49095809570955B
:1050700061957F4F8F4F9F4F9923A9F0F92F96E9A4
:10508000BB279395F695879577956795B795F11119
:10509000F8CFFAF4BB0F11F460FF1BC06F5F7F4FB6
:1050A0008F4F9F4F16C0882311F096E911C07723C8
:1050B00021F09EE8872F762F05C0662371F096E8D1
:1050C000862F70E060E02AF09A95660F771F881FA0
:1050D000DAF7880F9695879597F9089597F99F675E
:1050E00080E870E060E008959FEF80EC0895002470
:1050F0000A941616170618060906089500240A943D
:1051000012161306140605060895092E0394000CC2
:1051100011F4882352F0BB0F40F4BF2B11F460FF51
:1051200004C06F5F7F4F8F4F9F4F089557FD90587A
:10513000440F551F59F05F3F71F04795880F97FB5B
:10514000991F61F09F3F79F0879508951216130615
:105150001406551FF2CF4695F1DF08C01616170644
:105160001806991FF1CF8695710561050894089579
:10517000E894BB2766277727CB0197F90895AA1BE8
:10518000BB1B51E107C0AA1FBB1FA617B70710F032
:10519000A61BB70B881F991F5A95A9F78095909564
:1051A000BC01CD01089597FB072E16F4009407D09B
:1051B00077FD09D00E94BF2807FC05D03EF49095EA
:1051C00081959F4F0895709561957F4F0895EE0FDB
:1051D000FF1F0590F491E02D09942F923F924F927A
:1051E0005F926F927F928F929F92AF92BF92CF9277
:1051F000DF92EF92FF920F931F93CF93DF93CDB780
:10520000DEB7CA1BDB0B0FB6F894DEBF0FBECDBFF7
:1052100009942A88398848885F846E847D848C84C8
:105220009B84AA84B984C884DF80EE80FD800C81D1
:105230001B81AA81B981CE0FD11D0FB6F894DEBFB4
:105240000FBECDBFED010895FB01DC0104C08D91BF
:105250000190801921F441505040C8F7881B990BE8
:105260000895FB01DC0102C001900D9241505040B5
:10527000D8F70895F999FECF92BD81BDF89A992784
:1052800080B50895A8E1B0E042E050E00C947E299A
:10529000DC01A40FB51F4150504048F0CB01840FF2
:1052A000951F2E910E94592941505040D0F70895E2
:1052B000262FF999FECF92BD81BDF89A019700B4CF
:1052C000021639F01FBA20BD0FB6F894FA9AF99A6F
:1052D0000FBE08950396272F0E9459290E9458292E
:1052E000252F0E945929242F0C9459290196272FE4
:1052F0000E9459290C945829DC01CB01FC01F99931
:10530000FECF06C0F2BDE1BDF89A319600B40D9211
:1053100041505040B8F70895F894FFCF9B0A9B0A7C
:10532000EB0AEB0ACA0A500BCA0ACA0A550BC60B8B
:10533000D50BD50BF2186619FA18C418C818FE1840
:10534000CC1802190E19D8185F19DC181219E018B8
:1053500016193E19E4181A194519EA1820192819BE
:10536000D0180619D4180A19EE18241934194E1930
:105370005D19BE18F6186D19B31CB91CA21CAD1C22
:10538000BF1CC51CCB1CDD250526EE260526EE26FA
:0A53900038265926EE26B026BC266A
:10539A000000000000000000000000000000000003
:1053AA00000000000000000057071A070000000074
:1053BA000100A501280850011E0A1401FF9D20CDF5
:1053CA0020A120C620A02001D6174F17C517BD1748
:00000001FF
