:100000000C94E0060C9418070C9418070C9418072D
:100010000C9418070C9418070C9418070C941807E4
:100020000C9418070C9418070C94A4240C947825AD
:100030000C94EC1E0C9418070C9418070C941807D9
:100040000C9418070C9418070C9418070C941807B4
:100050000C9418070C94731F0C9418070C94180731
:100060000C9418070C9418070C9418070C94180794
:100070000C9418070C9418070C9418070C94180784
:100080000C9418070C9418070C9418070C94180774
:100090000C9418070C9418070C9418070C94180764
:1000A0000C9418070C9418070C941807015703A612
:1000B000681E7D107E7E5F1CB8F2470C7B744B146B
:1000C0008B7566510B8C76744B14AAD60F9CBAF6BE
:1000D0006E3FDD38D502809B826D5813A4ABB5C945
:1000E00010A2C60A7F5D1991A0A3CEEB3EC9F160B4
:1000F00042E74CFB746A562EBFDD38D3058892A6C2
:10010000CEFF5D38D1CFEF58CB6548F03585A9B229
:100110008F5EF38094977E7597877313B08A69D446
:100120000ADEC1795936DB9DD6B8156FCE3C7232E6
:100130004588DF6CA56DE87696147420DCF4FA37F8
:100140006A2732E329BFC4C7069D58E7877C2E9FE4
:100150006E49075D236454836ECBB777F72B6E0F20
:100160002E6612605565FC43B358735BE867044321
:1001700002DEB389A06D3A2779645B0C169E66B1E6
:100180008B870C5DF2B63D71DF42038A068DEF1D51
:10019000A8965CED31615CA134F68C0860330700F1
:1001A0003E79951B437FFEB6A6D49D7672BFADC047
:1001B00015E83731A37263521D1C5D511BE1A9ED97
:1001C00060323EA95028530659E2FCE70264392107
:1001D000564AA5408081D55A607B6884F1E0B1B66B
:1001E0005BDFA81D6D6520C0A2B9D9BB00A6DB8B63
:1001F000015391FEC45185B0967FFD51DD14036714
:100200002E751C76D36EDD995576E5AB23FC4AD569
:10021000C6E82ECA8AB3F68C6CB0E9F2E79E694153
:10022000EDF16DD286D87ECB5D476C856A23ED20DB
:100230004093B420C7A5C9AF0315AC19E52A36DF32
:100240006DC58C8007CE920CD806620FDD48461A29
:1002500053C78A8C5D5DB4A102D3A9B8F3948F3FD4
:10026000E554D41165B25E090B81E375A789813924
:100270006C46F6069F273BB62D5F1D4BD47B1D6158
:100280007489E4E3BD981BC4513BA4FAE092F7BE25
:10029000F24DBBFFAD4F6D68C27940AA9B8F0C3207
:1002A0004B5F3EAB5998B3F51DAC5EBC78D3016C87
:1002B00064152FD871A62D45E12242E44E043C7D01
:1002C000F44021B46705A8E2F372874C7DD91B6521
:1002D00097F3C2E3E4C8D2DEF6EFDCBB44085EE28B
:1002E000452701B0F643E73AF6DC9DEDF3C50CB8BF
:1002F0009C983AD836EE967267E78191D5050AE068
:1003000082D58FE8F9B0C9CF93E704C5BC2B43561B
:100310007EE8677CE5FB49AD5E9F2513DE6E6EE9E6
:10032000F1EC870B5981768476B324AF30FD278BAF
:10033000ABD8008B9B0CD2B24E5E9D1D9601006720
:10034000C15F0220FD456A01605845CA4721905AA5
:10035000C443261AD7A54AB25D2B3549FBA517928F
:10036000211E939667A27E367ADE5FBE7A589DF88C
:1003700078A3FAC8D517F021978C80B54B3BBDBB4D
:100380004121A85067F7E71980108ECE04183F511D
:100390006B77D89E16AFECEF48164D9E8538183E09
:1003A000D42887602AF67F09866F9C3C3AFFABD041
:1003B00061A2970D71947EFDB98002896AB3846C45
:1003C0002A7762BE0BF4AFAC7B7C8ECA01BA71781F
:1003D00094FDB539A44D2F78CFCA920C1A99484C88
:1003E0001196B54E4128E4A6FE4B7291E7D4DD9FED
:1003F00012E62938CE45AE02B824AEBDE9660862E1
:10040000A22C2B00E223D9C448E4D3ACBB34C7F000
:10041000E34FB930EAA212F1302C36DE48F2B04C8C
:10042000433F2E58E420E358CD3122F0A22AE619AA
:10043000905586F65579D1D7462FC0DC99E8F36AF6
:10044000DF7FEB244A1E5A75DE2F5C19610353547B
:100450006A3B1870B64FF19C0A599D1992658C83BE
:10046000142D448A75A9F590D2664EFA690F5B0B7C
:100470009865C81142597FDD1B7517314C7558EBD3
:1004800058637DF2A6C26EB73F3E5E47ADB704E843
:1004900005F8B2CF19F3D285FE3E3EB162082C10AA
:1004A000070D739017FA9B560275F951E0E91A7B14
:1004B0009FB3F398B81C9CE1D535AEC860481109CC
:1004C000946BD08B15BC0568D3548A51395C427645
:1004D000CED8AD8930C9051CCC943F0F906F722DDA
:1004E00085649AB923F90BC37C390F970797DA58BB
:1004F00048330523B882E8D35389AF338022840C74
:10050000955C67B8770C5CA25F3D580F27F32FAE60
:1005100048BD0B6F54FB674CEA3227F1FAE2B0ECAE
:100520000B15B470F65CDD7160C3C1A83265AC7A9E
:100530007741E5A96B1181FA348DFBC1806EC460EF
:100540003007D48B67BDAA8C9C64ACDB0B248B6317
:100550006FE6BCE733A44A4CA79F4353D2BB8F43FB
:10056000C73D78683FA53DCA6984A6972DC07D31F7
:1005700034551D07B15F405C93B0BC7CB0BCE71242
:10058000EE6B2BD34D67703A9AF23C7C81FAD7D947
:10059000909181B8B1F3486A264F0CCEB09EFD4AC7
:1005A0003AAFAC5B3FBF445AA3191E4BE7366AD73C
:1005B00020AED77D3BE7FF3A862ED04A3EAF9F8ED6
:1005C00001BFF84FC1E86F74E145D3F7046A4B9D52
:1005D000EC332776D7C5E1B03B0E23ECF086D21A78
:1005E000BF3D0462B36CB2EB1705A60A8A7E831C7A
:1005F000B63709C60B703CB59381D893A05F1E082F
:10060000E2C6E5C972F1F1C1EDD5589383F865678B
:100610002E0DA9F16412E64CEA153F8C1AB6BFF60E
:10062000B9523509B0E6F7CDF1A5AA81D1816FB4F1
:10063000A9661FFC48C0B6D18B062FF6EF1F0AE64D
:10064000CE3A4A55BF6DF94DD408454BC366199251
:1006500010E1178E289116BF3CEEA3A6999210E1E7
:10066000F6CCACB8650B4366F8E3E53F2489475DFB
:100670007843D06117BD5B645408455993F6958A59
:100680004151624B51023073C787C54BA2970FE8A7
:10069000465F7E2AE13020B0FAE7CE6142576E21F4
:1006A000F37AECE325C725F367A757400002CF1C78
:1006B000807767BD70A119923175932727B682E4C0
:1006C000EB1D7848E7A55E57EF6428641BF611B26E
:1006D000039DB9180227F7BE9D55FC00D2C7AEADE9
:1006E0000BC5E9424148D832CFF60FF5BC97C69901
:1006F0004776BD89060F630C51D45EEA48A8A2561E
:100700001C7984864088417655FCC2D7FDC9C780D4
:100710006135A74320F7EB6C6613B0EC02753E4BD6
:10072000AFB95D40DAD66E2D3954C2953554257275
:10073000E178B8EBC116580F9C9BB4EA37EC3B113B
:10074000BAD58AA9E39800511C14E04096E5E9F275
:100750002122B1236078D317F87AA5A8BA20D3153F
:100760001E32E45E1548AEA9E5B833ECE8A242AC0F
:10077000BF1084538719B45F764D019D5674D95CC0
:1007800097E788EA3ABFDC4C338A16B95BFAD8425D
:10079000A7BB3C04277849812A5A7D7C23A8BAF755
:1007A0009A9FD2663E383C75F9D13026306E5A6E2B
:1007B000DC6A69325033479EA4A86466F08AE4FD7F
:1007C000276F51258B4374C98EBD8831BEEC65D22D
:1007D000CB8D5A1348168C610B11F6C666AEC3CC8E
:1007E0000CD2E19F82413F56F973EFDC3050CFB617
:1007F0007FBCD0B310AB24E4ECAD188C392D304C59
:10080000C5400DF6ACD6185D96BF5F717596229700
:100810000F02946EA6AE6D8F1ECA129B2A1CCEA923
:10082000EEFD128EFCED0933BAF41A15F69D87160B
:10083000437C7857E144C9EB1F584DC149115CB264
:1008400011A85516F1C650E98789F6CFD89C51A753
:10085000BC5B316D4D51D04CBC0D582D7B887AF965
:100860008ED6404DBBBEC4E507FCD97B6DA6425772
:100870008F02944FE42A65E2195A50E125654A60D7
:10088000C2CDA8EC052E877B95B74FA00B1B4A7FE6
:1008900092C890EE891E10D285E49F63C812BB4EA9
:1008A000B8CF0AEC184EE67CB33326C71FD2042318
:1008B000EA070C5F90BDA76A0F4AD610013C1229C7
:1008C0002E96C04DBBBEE5A783D56A3CE35BB8F26C
:1008D0005C6D1FA6F31224F6D63B1014090782E8BC
:1008E000306A99DC95019CD4683BCA9812AB772595
:1008F000157D10324598CD7ADF718A75C11CD46898
:1009000025EBBB54276F2AF7B9980327DE24A8BB31
:1009100098C284FF9B51D85350DAF588AA872FAE2E
:10092000D6EA6BDEC8D7A7286581E8B23B1D4F75B4
:100930008F9F7A748EC15F9AA89DFA03A3719B372B
:100940006DD50BF5E1A11B016AC667AAEA2C9DA42F
:10095000D26EFCDE2E7F9469E54AE001483C6BF7DD
:100960001EB60B5FF92E07C5E8AE371BBC3CD8D5C9
:100970000B919E8024F5060C0E9807962D19DC58D5
:1009800093CCFB4EEBBD0FF5AF01FAF17C438CB875
:10099000563EBE774E2BF7BBB74547CDCCA64C7223
:1009A0007B6A2A701307FDB89C983AD823675B349A
:1009B000D5140CAB771FF83D5A9F92B72CAD31DEA2
:1009C0006107B36BF73815954614485369526607AB
:1009D0006D83718A6725200FFED702D76E2CD21A3D
:1009E0000A5DFD0F74E3A436079ADFD479BFEF598F
:1009F000C04452879A6E1D0EEEDE2E1AA98F3AC998
:100A0000BAEC99782D556B14C206D5FC93534D1151
:100A10008CF8FA797CA664AE61B87B9456A63978D6
:100A20009AE5C7DF1863239CFA66BBB75A274CD1F7
:100A3000A18322B3524935B022835912001698DDA2
:100A4000ADC294F9D37B647F443E3C8B9A839C690E
:100A50006BE4DF9FED541FE55D7A0582B3DDEFFCAB
:100A60005396B02C5AF8DF9C8B164EDFDA4D0909ED
:100A700069500365D87370E886BFBB35CEB246CBEC
:100A800002005BB4E2C68F2F98AF874B4845EDCC90
:100A90001DE658D6F250259F52C7CB8A179D5BE5BD
:100AA000C8D772B752B2C498E37A173EC660A79708
:100AB000B0CF188153844CD5173203133951091024
:100AC000E377494F6201BF8C9AE0419E897436F901
:100AD00096862E961C4AB72B4A97BC9940A3E03DB8
:100AE000C8AD2FDF4F2CC469829F9B810C615CA530
:100AF0009D8C89C02CB44A334EEBA25640C0C246EE
:100B0000AF6AFC67D1805EC56D8443273F5515965B
:100B10006AA0A5DAB7FFB7756E4C49919D22A3462E
:100B2000EAED9A00E232C3D6A9712055A319EDF877
:100B30004FA7129C6687AF4EB7F0DBBFEFF0F6AF62
:100B4000EADA09FEDE385CA5A2DF9945A8E4E7925F
:100B5000AC67AA4FBF773EA24049224A1E3BAA700B
:100B60007F95AF374BFC99E2E0BAD734CE55885B1E
:100B7000841B57C4800353C92F93044DD596E57049
:100B8000A66E635D9D6CDB020AA9DA8B53DCD99AF1
:100B9000C5942C91922ADEBB8B13B9199664CCF2C2
:100BA0006439B77549E986C28662D924D38135494B
:100BB000FCA0A5A0930564B41A57CE0C900227C5DB
:100BC0007A2B5DAE3ED5DD107C14EA3A08AC724E4D
:100BD000903D3B7C862EEBD40670E6C7FB5FBD18CC
:100BE000F411A41A93C3BED9FB26482F373CD00377
:100BF000471AF76219245CF4A892207AF29E2AC55B
:100C000095A2FBA4EA85D856B770D16030A5308292
:100C100070DC7A658A363F5B0CAE547CD357847B9C
:100C20003A651881EE059B444DB8DAA2A1C915D3E7
:100C300073030E43E98E15F9BEC6C58AE5C01EC210
:100C4000379E2A26A5A0BD245FB9C1AB3448B95D43
:100C500098B46518F36319441B1116FFDCF1790889
:100C6000860F529873C492902B4709D0436C2F2063
:100C7000EBDCDAC5087B9442306AC7DA8CC376A70E
:100C8000A5CC621300603158449BF56414F511C57E
:100C9000545283D47301160EB37A29693556D4EEB3
:100CA0008A17A299249CD78FDB55B53E0C034100CF
:100CB000420061006C006C000000260352006900D5
:100CC000630068006100720064002000530075003A
:100CD00074006800650072006C0061006E006400C2
:100CE00000000403090409023B00020100A0FA0904
:100CF0000400000103010100092111010001224447
:100D00000007058103080001090401000103000038
:100D1000000921110100012249000705820320007A
:100D2000011201000200000008EDFEF0C201000106
:100D300002000105010902A10185020901A10005C6
:100D40000919012908150025019508750181020579
:100D500001093009311581257F9502750881060941
:100D6000381581257F950175088106050C0A380222
:100D70001581257F950175088106C0C0050109060A
:100D8000A101050719E029E715002501950875015E
:100D900081029501750881010507190029FF1500D9
:100DA00026FF00950675088100050819012905151B
:100DB000002501950575019102950175039101C00A
:100DC00011241FBECFEFDAE0DEBFCDBF04B603FEB5
:100DD00018C08091090290910A02A0910B02B09173
:100DE0000C028730904BA740B04B59F41092090287
:100DF00010920A0210920B0210920C02E0E0F8E34B
:100E0000099511E0A0E0B1E0E0EAF3E502C0059049
:100E10000D92A034B107D9F722E0A0E4B1E001C0FF
:100E20001D92A930B207E1F70E9456160C948F2943
:100E30000C94000080912101853071F028F48230FB
:100E400038F41092210108958730D9F782ED01C05E
:100E500081ED0E940D0AF5CF10924A01F2CFFC01FC
:100E60008281813039F4858182FD16C080FF14C0F3
:100E700083E00895823039F4858182FD0FC080FDC2
:100E80000FC084E00895833069F4858182FD0CC031
:100E900080FF0AC088E0089582E0089586E0089502
:100EA00085E0089581E0089587E008950E942F0766
:100EB00080932101843049F018F4823048F4089579
:100EC000853051F0873061F0089581ED0E94460A27
:100ED00081ED0E94DE09089581E080934A01089522
:100EE00082EDF7CF4F925F926F927F928F929F9297
:100EF000AF92BF92FF920F931F93CF93DF93CDB723
:100F0000DEB72C970FB6F894DEBF0FBECDBF4F8370
:100F100058878B879C87162FB72E84E6860F893CCF
:100F200008F010E084E68B0D893C08F0B12C80912C
:100F30004A01882309F493C0612F110F770B880BA6
:100F4000990B0E94362820E030E048E452E40E94E9
:100F50008C272091460130914701409148015091E2
:100F600049010E9420272B013C016B2DBB0C770B04
:100F7000880B990B0E94362820E030E048E452E4C8
:100F80000E948C27209142013091430140914401FD
:100F9000509145010E9420274B015C01C301B20121
:100FA0000E94FE27062FC501B4010E94FE27F62EDF
:100FB000602F002E000C770B880B990B0E943628AF
:100FC0009B01AC01C301B2010E941F27609346013F
:100FD0007093470180934801909349016F2D0F2C26
:100FE000000C770B880B990B0E9436289B01AC01F3
:100FF000C501B4010E941F27609342017093430111
:101000008093440190934501B12C10E01987BA8672
:10101000FB860C8786E0FE013796DE011196019073
:101020000D928A95E1F729813A814B815C816D812E
:101030007E8180E090E02C960FB6F894DEBF0FBE64
:10104000CDBFDF91CF911F910F91FF90BF90AF90D7
:101050009F908F907F906F905F904F900895FB844A
:101060000C850E94F81D81FD67CFD0CF80349E474C
:1010700021F4FB01858180934A0181E00895089560
:1010800088E893E10E943B170E9468160895642B3C
:10109000682B29F4ECEAF0E085919491089581E0C1
:1010A00090E008950E944708089581E008950E9405
:1010B0005508089581E008950E943608089508951E
:1010C0000E945F080895A6E0B0E0E9E6F8E00C941D
:1010D000FF2849835A839E833091500189819A81E8
:1010E00031111AC03E81332399F0222389F00E94E6
:1010F000BF0D182F682F89819A810E94A90D6981DF
:101100007A81812F0E94BA142696E3E00C941B2961
:101110000E94B40D182FF3CF0E94BF0D69817A8110
:10112000F1CFFC01262F408151816281738184813E
:1011300095810E9463080895CF93DF93EC0161E0ED
:101140000E949108BE010E945708DF91CF91089537
:10115000CF93DF93EC0160E00E949108BE010E94F2
:101160006008DF91CF91089581E008950E94B4084E
:101170000895CF93C82F0E94810C8C2F0E94B6082F
:101180002FEF84E39CE0215080409040E1F700C0C5
:101190000000CF91089581E00E94B9080E94971F36
:1011A000089580E00E94B9080E94BB1F08950F9324
:1011B0001F93CF93DF938C0161E00E949108EC01B3
:1011C000B8010E94201D882329F061E0C8010E9417
:1011D0009108EC01B801CE010E945C08811106C0A3
:1011E00080E0DF91CF911F910F910895B801CE015A
:1011F0000E94481D8823A1F3B801CE010E94991CCA
:10120000882371F3B801CE010E949D18882341F311
:10121000B801CE010E947318882311F3F80185816B
:10122000882361F0C330FCE7DF07E9F058F4C1150B
:10123000ECE7DE07A9F0C130DC47B9F0C8010E9435
:101240005A08CFCFCB358CE7D807A9F0CC35ECE7DF
:10125000DE0771F0CA35DC4789F70E942312EECF12
:101260000E94CB08BDCF0E942B120E94D108B8CF9C
:101270000E941912E3CF0E942712E0CF0E94CE1ED7
:101280000E9467090E94D91608950E946B090E9466
:10129000D31E0895089581E008950895CF93DF93B4
:1012A000D82F0E944B09C82F882319F08D2F0E9438
:1012B0004D098C2FDF91CF9108950895CF93C82FBA
:1012C0000E944A098C2F0E944E09CF91089580E018
:1012D0000E945E0908950E94EB1D0E945E09089518
:1012E000CF930E94EB1DC82F80914B018C1779F092
:1012F000C0934B010E94581F60934C0170934D01A5
:1013000080934E0190934F018C2F0E945E09CF91E4
:101310000895ADE0B0E0EFE8F9E00C9400294887CB
:1013200059876A877B878C879D8791110E94561108
:101330001F8286E0FE013896DE01119601900D9223
:101340008A95E1F78D8181110DC029813A814B8108
:101350005C816D817E818F810E949D102D96E2E0DF
:101360000C941C29CE0101960E949C088111EDCF9E
:10137000F5CFFC012481213021F4808191810E94EC
:10138000F10D0895CF93DF93C82FD62F662381F0F8
:101390000E94FE198C2F90E09C01215D31092830BC
:1013A000310548F46D2F0E944117DF91CF910895C8
:1013B0000E946A1AEFCF0E94E31AF7CFCF93C82F8B
:1013C000882399F08CEF8C0F813A88F48C2F0E943F
:1013D000291E882329F08C2F0E946C1E0E94C811A0
:1013E0008C2F0E94641E0E94C811CF91089580E244
:1013F0008C0F883048F4C77081E001C0880FCA950F
:10140000EAF70E943611EFCF83E38C0F833168F740
:1014100061E08C2F0E94C209E8CF8823F1F09CEF95
:10142000980F913A28F40E946C1E0E94C8110895EA
:1014300090E2980F983050F4877091E001C0990FB6
:101440008A95EAF7892F0E943C11EFCF93E3980F1A
:10145000933118F460E00E94C20908951F93CF935E
:10146000DF93182FEB010E94DE09209739F4812FBA
:101470000E940D0ADF91CF911F9108958FE99FE09F
:101480000197F1F700C000002197EFCF70E060E016
:10149000893311F460E570E00E942E0A08958823D4
:1014A00021F00E9436110E94C8110895882321F06E
:1014B0000E943C110E94C8110895B0E0A0E0E3E64C
:1014C000FAE00C94F9286C01D62FC72FFC01158186
:1014D000068102950F700E942C11E82E8823F9F0E6
:1014E000E12E1123E1F08C2F807F803461F080E2C7
:1014F0008D0F883008F18C2F807E803221F4D2301D
:10150000D8F00023C9F08091F50182FF15C082E078
:101510000E94ED110E942C1191E0E82EE926BC2ECC
:10152000B2949FE0B922FBE0FB15B8F1EB2DF0E09F
:10153000EF56F64D0C94EA28E12CF1CF0C2F0F70EA
:10154000C07F11F00295007F112399F0002359F01C
:1015500080E28D0F883010F0D11107C0802F0E94DB
:1015600036110E94C8118D2F5AC0802F0E94491138
:10157000F8CF8D2F0E940D0A002379F080E28D0FA5
:10158000883010F0D11104C0802F0E943C1103C09C
:10159000802F0E944F110E94C811EB2DE850FF0BC5
:1015A000349720F40E94EB1D0E945E09EE2089F022
:1015B0000E94281180FD0DC0F60115820E942211A3
:1015C0000E94070DC6010E94500C0E9422110E9429
:1015D000170DCDB7DEB7E9E00C9415292C2F2F702D
:1015E000F22EC07FC03219F0F29480EFF822DD2392
:1015F00041F0D130D1F1112309F444C00023F1F0BE
:10160000B2CF8091F50182FD15C0112359F0FF2062
:1016100029F08F2D0E9436110E94C81180E00E948F
:10162000DE09BBCF80E00E940D0AFF2009F4B5CF90
:101630008F2DABCF112369F0011104C08F2D0E94B3
:101640004F0AABCF013009F0A8CF8F2D0E94701147
:10165000A4CF0111A2CF8F2D0E94560A8F2D0E9478
:101660007C118F2D0E94601198CF112321F006303C
:1016700008F093CFE3CF053008F08FCF8F2D0E9475
:10168000560A8BCF0023D1F3D93349F43FEF87EECD
:1016900093E0315080409040E1F700C000008D2F72
:1016A0000E940D0A7ACF612F8D2F0E94C20975CF3B
:1016B0008C2F8370A1F5111170CF4D2F4295469557
:1016C0004770440F440F2D2F2F7030E0042E02C0BE
:1016D000220F331F0A94E2F790E080E0D4FF09C0A4
:1016E0008FE090E002C0880F991F4A95E2F780953D
:1016F0009095C695C695C370822B932BC23049F046
:1017000058F4C13019F00E94DA0C47CF0E94D10C76
:1017100044CF0E94E30C41CF0E94CE0C3ECF869571
:10172000112311F08C2F8170882309F436CF4D2FAF
:10173000429546954770440F440F2D2F2F7030E08F
:10174000042E02C0220F331F0A94E2F790E080E0DB
:10175000D4FF09C08FE090E002C0880F991F4A951E
:10176000E2F780959095C695C695C370822B932B12
:10177000C23049F058F4C13019F00E94420D0DCF2B
:101780000E94390D0ACF0E944B0D07CF0E94EF0C2B
:1017900004CFCF70112329F08C2F0E94070D8D2FBD
:1017A0004ECF8D2F0E94560A8C2F0E94170DF5CE1A
:1017B000D23F41F160F4D03FB9F0D13F81F0112325
:1017C00009F446C00111CFCE8C2F8F711FC0D33FBB
:1017D00001F1D43FA1F78091F50182FD24C08C2F47
:1017E0008F71112311F312C0112341F0053008F05D
:1017F000D4CE8C2F8F710E94290DCFCE063008F0E9
:10180000CCCEF7CF8C2F8F711111CFCF0E94070D47
:10181000C4CE112329F08C2F8F710E94FB0CBDCEFA
:101820000E94F60CBACE112349F0CF718C2F0E9482
:10183000070D63E08C2F0E94CF11AFCE81E00E9494
:10184000ED11023008F4A9CE82E00E94ED11A5CE80
:10185000002359F0D93309F022CFEFEFF7EE23E060
:10186000E150F0402040E1F718CF8C2F8F719DCFD1
:101870000F931F93CF93DF93EC01688179818D8162
:101880000E94FC0D8C010E94540D0E94CD0CB801E9
:10189000CE010E945D0ADF91CF911F910F910895B3
:1018A000CF93DF93EC018C81882399F0CE010E94C5
:1018B000D708811111C00E942C11882351F08D810D
:1018C000882339F08091F50182FF03C082E00E94F5
:1018D000ED11DF91CF910895CE010E94380CCE0119
:1018E0000E94A808F6CF0E9456110E94C8110E94BB
:1018F000FF1A0E94E31A08950E94741E0E94730C3E
:1019000008950E9443110E947C0C089592959F7047
:10191000963091F058F4925F9F70923058F4803F67
:1019200019F030F4883E30F481E008959A5FF4CFE6
:10193000843FD1F380E00895883EB0F3813FD1F732
:10194000F3CFFC012481222339F0808191810E9410
:10195000F10D0E94860C089580E00895A6E0B0E0A5
:10196000E4EBFCE00C9400292696E2E00C941C29A0
:10197000A7E0B0E0EEEBFCE00C9400292796E2E053
:101980000C941C2908950E94C20C08950E94C30C57
:101990009093580180935701089508950E94C60CB2
:1019A00008952091570130915801822B932B0E946A
:1019B000C60C08952091570130915801822393233A
:1019C0000E94C60C0895209157013091580182273A
:1019D00093270E94C60C08950E943F0808950E9414
:1019E000EC0C9093560180935501089590E080E0AF
:1019F0000E94EF0C089521E030E0A90102C0440FDD
:101A0000551F8A95E2F7CA010E94EF0C089521E064
:101A100030E002C0220F331F8A95E2F78091550112
:101A200090915601822B932B0E94EF0C089521E098
:101A300030E002C0220F331F8A95E2F720953095DF
:101A40008091550190915601822393230E94EF0CBF
:101A5000089521E030E002C0220F331F8A95E2F79B
:101A60008091550190915601822793270E94EF0C97
:101A700008952091550130915601822B932B0E949D
:101A8000EF0C089520915501309156018223932344
:101A90000E94EF0C08952091550130915601822744
:101AA00093270E94EF0C08950895262F277091E048
:101AB00001C0990F2A95EAF723E0769567952A9554
:101AC000E1F7660F771F660F771FFA01E60FF71F22
:101AD00050E040E0682F70E08191DF0111979B0199
:101AE000042E02C0369527950A94E2F721702195BD
:101AF0002827292328272C934F5F5F4F4430510517
:101B000059F70895A82FA77023E0969587952A95F1
:101B1000E1F7880F991F880F991FFB01E80FF91F44
:101B200050E040E080E0219130E00A2E02C036957E
:101B300027950A94E2F721703327042E01C0220F63
:101B40000A94EAF7822B4F5F5F4F4430510559F7F3
:101B50000895262F892B39F441E551E070E060E0CB
:101B6000822F0E94550D0895892B39F461E571E0AB
:101B700090E080E00E94820D089580E00895B0E03A
:101B8000A0E0E5ECFDE00C94F9287C010091550102
:101B9000109156018091570190915801082B192BF3
:101BA000CFE0D0E0CC24C394D12CBC2EC6010C2EA7
:101BB00002C0880F991F0A94E2F780239123892B92
:101BC00049F4219790F7B12C8B2DCDB7DEB7E9E022
:101BD0000C941529B7018C2F0E94C314019789F327
:101BE000F3CFCF93DF93EC010E94BF0DBE010E94A3
:101BF000C314DF91CF9108951F93CF93DF93EB012F
:101C000090915001992339F0CB010E94F10DDF91A1
:101C1000CF911F910895882369F0CB010E94BF0DD9
:101C2000182F682FCE010E94A90DBE01812F0E949E
:101C3000C314EDCFCB010E94B40D182FF6CF1F9324
:101C4000CF93DF93C091590117E080915A018C1313
:101C500004C0DF91CF911F910895D0E01C9FF00147
:101C60001D9FF00D1124E55AFE4F208131814281E4
:101C700053816481758186810E94B80C2196C7705A
:101C8000E4CF2091930130919401409195015091BE
:101C900096016091970170919801809199010E943D
:101CA000B80C0895482F2091590190915A0157E09E
:101CB000291302C080E0089530E0529FF001539F45
:101CC000F00D1124E55AFE4F8181681306C0808112
:101CD000481303C085818111EECF2F5F3F4F2770DE
:101CE000E7CF8FEA90E00895B0E0A0E0EAE7FEE0F9
:101CF0000C94FB2880919901807F09F054C0809159
:101D00009801882309F44FC0E091590187E0D82E4B
:101D100080915A018E1709F446C00E2F10E0ED9DF8
:101D2000F0011124E55AFE4F8481882309F440C054
:101D3000D09EE001D19ED00D1124FE01E55AFE4F48
:101D4000918180919401981333C090818091930187
:101D500098132EC0858181112BC0E280F380809181
:101D6000950190919601E81AF90A60E083E991E003
:101D70000E94910863E971E00E94710EE816F9066D
:101D8000B8F4809199018F70806180939901CF5947
:101D9000DE4F88818F708061888383E991E00E94A3
:101DA000500C0E941F0ECDB7DEB7E7E00C94172948
:101DB000F8013196E770ACCFA4E1B0E0E2EEFEE0CE
:101DC0000C94F3288C0186E0F801DE011F96019047
:101DD0000D928A95E1F7F801F480E58083E9882E79
:101DE00081E0982E80919701811126C0F11007C0E3
:101DF000FF24F3948F2D6496EFE00C940F29EE20CE
:101E0000B9F0C8010E94A10CF82E882389F087E060
:101E1000F801A3E9B1E001900D928A95E1F783E919
:101E200091E00E94B9090E94740E0E94410EE2CF17
:101E3000C8010E94500CDCCF5080A180C280D380AA
:101E4000B090980180919501909196013601681AA1
:101E5000790A60E083E991E0BB2009F408C10E949F
:101E6000910863E971E00E94710E6816790608F026
:101E7000ABC0FF2009F4BCCF80919901382F307F8F
:101E800020919401F801918131115AC0FE2C29133F
:101E900016C0209193019081291311C0E11049C00F
:101EA0008F708061809399010E94410E83E991E0D7
:101EB0000E94500C80919901F80186839BCFE1101C
:101EC00038C06A2D852D0E94520E6A2D852D0E94E4
:101ED000520EE82E81118ECF5F86A88A8F85988951
:101EE0000E94F10D292F22952F70243058F49F70F5
:101EF000223088F0992399F0F8019681907F79F447
:101F0000FE2C78CF2A5F2F70223068F0C8010E9423
:101F1000500CEB2CF5CF992311F0882389F3805EC8
:101F2000883070F3F3CF803F58F3815F833070F7D0
:101F3000E7CF80919901816080939901F12C5ACF6C
:101F4000291317C0209193019081291312C0E11029
:101F500010C08683C8010E94500C87E0F801A3E9F5
:101F6000B1E001900D928A95E1F70E94410EFB2CA1
:101F700041CFC8010E94A10C882309F459CFEE205B
:101F800009F456CF80919901803288F02091930115
:101F90003091940139872887DB86CA869091970112
:101FA0009C871D868E87CE0108960E94500C87E084
:101FB000F801A3E9B1E001900D928A95E1F70E9442
:101FC000740E0E94410E14CF80919901982F907F3A
:101FD000B1F46C2DDA8AC98A452D5A2D7A898F2D54
:101FE0009E2D0E94AE0C83E991E00E94500C87E088
:101FF000F40111928A95E9F70E94410E9FCFFF20CC
:1020000009F4F6CE20919401F8019181291311C0B1
:1020100020919301908129130CC0E1100AC086839E
:10202000C8010E94500C87E0F40111928A95E9F7EB
:102030009ECFC8010E94A10C882309F4F9CEEE209E
:1020400009F4F6CE80919901803208F4B0CF209146
:102050009301309194013A832983DC82CB82909161
:1020600097019D831E828F83CE0101969ECF0E9491
:10207000910863E971E00E94710E6816790608F014
:1020800051C0FF2009F4B4CEFE2CEE2009F4D0CECE
:1020900090919401F8018181981336C09091930139
:1020A0008081981331C08091950190919601C81A52
:1020B000D90AFFEACF16D104F0F49091990190FD6E
:1020C0001AC0907FC1F080919901F8018683903FFA
:1020D00031F0982F907F905F8F70892B8683C80195
:1020E0000E94500C87E0F801A3E9B1E001900D9245
:1020F0008A95E1F79ACE87E0F801A3E9B1E0019073
:102100000D928A95E1F776CEC8010E94A10C81114B
:102110004ECF80919901816080939901C8010E94FE
:10212000500C68CE6C2DDA8AC98A452D5A2D7A89D1
:102130008F2D9E2D0E94AE0C5ACFAEE0B0E0E3EAA8
:10214000F0E10C94FF28288739874A875B876C87E2
:102150007D878E87CE0108960E94DC0E8823B1F021
:102160006C85662341F0288539854A855B857D85A8
:102170008E850E94B80C17E08091590190915A0108
:1021800089133DC02E96E3E00C941B2987E0FE01E5
:102190003896DE01119601900D928A95E1F78C85B3
:1021A000882349F320915A0130E0C90101968770D4
:1021B0009927409159014817190699F097E0929F85
:1021C000D001939FB00D1124A55ABE4FFE01319648
:1021D00001900D929A95E1F780935A010E941F0E8B
:1021E000CACF0E94810C10925A011092590187E0C7
:1021F000E3E9F1E0DF011D928A95E9F7BCCF819F09
:10220000C0011124855A9E4F0E94DC0E882309F4D8
:10221000B9CFE09159011E9FF0011124E55AFE4FFC
:1022200020813181428153816481758186810E9440
:10223000B80C8091590190E001968770992780939E
:1022400059019ACF8091A201869586958695089529
:102250008091A201877008959091A201977081E00A
:1022600009F480E008958091AE0108959091AE0147
:10227000892B8093AE01089580959091AE019823AB
:102280009093AE0108951092AE0108958091AD0132
:1022900008959091AD01892B8093AD0108958095AB
:1022A0009091AD0198239093AD0108951092AD01E6
:1022B00008958091A401089508950E945C110895E5
:1022C0009091A301292F282331F0809589238093B1
:1022D000A3010E945D11089508950E946C11089554
:1022E0009091A401292F2823281729F0982B909347
:1022F000A4010E946D1108959091A401292F282313
:1023000031F0809589238093A4010E946D11089576
:102310008091A401882329F01092A40180E00E94FA
:102320006D1108950F931F93CF93DF9300912201B6
:1023300010912301C091AE018091AD01C82B809115
:10234000A401882331F0C82B0E94141E81110E9421
:102350008811F801C083C0912201D091230148E087
:1023600050E06AE971E0CE010E942729892B59F0DB
:1023700088E0FE01AAE9B1E001900D928A95E1F7AB
:10238000CE010E94FB1DDF91CF911F910F91089507
:102390000E949211089508950E94CB110895909182
:1023A000F50192FF11C098E0899F90011124622BE2
:1023B0006093A2010E94070D8091A20186958695E7
:1023C00086950E94CC1108950E94070D08951092E1
:1023D000A20180E00E94CC1108959091A201809505
:1023E00089238093A201282F277069F4891759F057
:1023F0009091F50192FF07C08695869586950E947B
:10240000170D0E94E71108959091F50192FB222784
:1024100020F9281769F080FB92F99093F5018091DB
:10242000F4019091F5010E944C1282E00E94ED119E
:1024300008958091F50182FB882780F991E0892732
:102440000E940412089581E00E940412089580E021
:102450000E94041208956FEF7FEF90E080E00E94E9
:102460007929089590E080E00E94452921E0863E88
:102470009E4F09F020E0822F089582E090E00E94B4
:102480003D29089583E090E00E943D29089584E06D
:1024900090E00E9445290895BC0184E090E00E94EC
:1024A00079290895AB01BC018FE090E00E946D296D
:1024B0000895AB01BC0183E190E00E946D2908956D
:1024C00060E070E0CB010E945912089560E070E076
:1024D000CB010E9452120E9460120895A8E0B0E061
:1024E000E4E7F2E10C94002966EE7EEF90E080E0F4
:1024F0000E94792960E082E090E00E945B2981E0FF
:1025000090E0909358018093570161E083E090E060
:102510000E945B2960E074E184E090E00E947929E8
:1025200060E086E090E00E945B2960E087E090E058
:102530000E945B2940E050E0BA0188E090E00E94F0
:102540006D2960E084E290E00E945B2960E087E111
:1025500090E00E945B2960E08CE090E00E945B29A3
:1025600060E08DE090E00E945B2919821A821B8254
:102570001C821D821E821F82188648E050E068E19E
:1025800070E0CE0101960E944B2940E050E0BA0174
:1025900080E290E00E946D290E9466122896E2E097
:1025A0000C941C290E946E120895682F8EE090E012
:1025B0000E945B290895A6E0B0E0E1EEF2E10C9400
:1025C000FE280E944C1F8C018091AF019091B001B8
:1025D0008017910781F019821A820E944C1F682F80
:1025E00049815A81792F80E090E00E9489091093F7
:1025F000B0010093AF012696E4E00C941A290E94E2
:10260000581F6093BA017093BB018093BC019093F3
:10261000BD016093B6017093B7018093B8019093A8
:10262000B90108950E94581F6093BA017093BB01CD
:102630008093BC019093BD016093B2017093B3018C
:102640008093B4019093B5010895089508950E9470
:102650002513089508950E942A13089589EB95E1A2
:102660000E9463160E9426130E942713089581E09A
:1026700008950E94371308950E943713089508950E
:1026800008950E943F130E94401308950E94321241
:10269000811102C00E94D2120E943D128093BE019D
:1026A0000E9447129093F5018093F4010E94421218
:1026B00090E00E94CE0C80915501909156010E94AD
:1026C000EC0C08950E94431F0E94DD150E944613E2
:1026D0000E945D090E9484160E942B130895A6E0B3
:1026E000B0E0E5E7F3E10C94FE280E943913811174
:1026F00011C00E94DB120E94AA1D0E94D9168111EE
:102700000E9412130E943C1B0E9470092696E4E06E
:102710000C941A290E94E9151091B10180E00E94E1
:10272000C315181731F38091BE0181FD0E94C915B0
:102730000E943C13082F80E00E94C315182F80913F
:10274000B101912F9827181303C00E94FF12D3CF15
:1027500090FF0FC0002369F019821A820E944C1F5B
:10276000682F49815A81792F81E0912F91700E94C1
:1027700089091093B101E9CF1F93CF93DF930E9492
:10278000C814EC01C11582E5D80708F03FC0C11597
:1027900090E5D90708F0C2C0C83ED105C0F4C03EDC
:1027A000D10580F4C53AD10548F4C430D10550F4C0
:1027B000C130D10539F0D0E0C0E004C0CD3CD10536
:1027C000D0F3D065CE01DF91CF911F910895C1154F
:1027D00080E4D80708F053C0C11590E2D90708F08B
:1027E000B7C0C11581E0D80730F38D2F0E946A155C
:1027F000182FCE0199270E94C814C12FD0E0DC2FDA
:10280000CC27CC27DF71C82BD92BDCCFC03892E581
:10281000D907A8F4C03682E5D80708F063C0C034F1
:1028200092E5D90708F049C0C03282E5D80788F19F
:10283000CF71D0E0DC2FCC27C16FD06AC3CFC03CB2
:1028400092E5D90780F48C2F8F71C03AD24508F4F5
:102850005EC00E946A15C82FD0E0DC2FCC27CC27A1
:10286000DF71D062AFCFC03E82E5D80708F0A3CFBA
:10287000DC2FCC27CC27DF71C06FD06AA3CFCE016D
:1028800099270E94C814CC27DF70C82BD92BD06A97
:1028900099CF2C2F2695269590E2299F90011124FF
:1028A0008C2F8370C1E0D0E002C0CC0FDD1F8A9571
:1028B000E2F7C22BD32BDD6885CF2C2F26952695EA
:1028C000277080E2289F900111248C2F8370C1E033
:1028D000D0E002C0CC0FDD1F8A95E2F7C22BD32BCC
:1028E000DC6870CF2C2F26952695277090E2299FC3
:1028F000900111248C2F8370C1E0D0E002C0CC0F76
:10290000DD1F8A95E2F7C22BD32BDA685BCFC82F85
:10291000D0E0DC2FCC27C46FD06A54CF8C2F8F71BE
:102920000E946A1555E0D695C7955A95E1F7CF7084
:10293000D0E0DC2FCC27282F30E084FF05C044E016
:10294000220F331F4A95E1F7C22BD32BD0693ACF20
:102950008D2F8F710E946A15182FCE0199270E9422
:10296000C814C12FD0E0DC2FCC27CC27DF71C82BB7
:10297000D92B77CF672B21F440E00E9452080895AD
:1029800090E080E008950E94BA140E94BC1308955C
:1029900082389105B9F1B0F48133910509F47DC015
:1029A00048F48932910509F46DC08A32910509F421
:1029B0007BC008958533910509F45FC08933910583
:1029C00009F10895833E9105D9F138F4803E9105CF
:1029D00029F1823E910579F10895863E9105D9F15C
:1029E000873E910509F43EC0843E910541F5209152
:1029F000F50121FF24C08091F40184FD19C087EE08
:102A000090E008952091F401237009F05AC02091BC
:102A1000F50123FF14C089E290E008952091F401AC
:102A200020FD38C03091F50130FF09C024FF43C0BC
:102A300090E080E008952091F40122FDF7CF089501
:102A40002091F40122FD3AC03091F50130FD39C0EA
:102A500024FFF5CFEDCF2091F40123FFF0CF24FD2B
:102A6000E7CFCDCF2091F40123FD2EC03091F501A9
:102A700031FFEECF84EE90E008952091F40125FF20
:102A8000DECFC9CF2091F40125FD21C02091F501B1
:102A900023FFD5CF89E390E0D2CF2091F40126FF28
:102AA000CECF8AE290E008952091F40126FFC7CFAF
:102AB00081E390E0089583EE90E0089582EE90E047
:102AC000089580EE90E0089586EE90E0089585E305
:102AD00090E008959091F40192FF10C041E0282FFA
:102AE0002471243009F040E031E0282F287128308B
:102AF00009F030E0431711F02CE0822793FF10C05B
:102B000041E0282F2471243109F040E031E0282FE2
:102B10002871283109F030E0431711F02CE08227AA
:102B20003091F50130FF10C051E0282F2171213084
:102B300009F050E041E0282F2871283009F040E0EA
:102B4000541711F029E0822731FF10C041E0282FEF
:102B50002171213109F040E031E0282F287128311E
:102B600009F030E0431711F029E0822794FD877EB9
:102B7000089580E0089508950E94BB150895089572
:102B80000E94BF150895E82FF0E0E950FE4F8081C4
:102B90000895089585988D9A08952FB1860F911DF7
:102BA00030E045E0359527954A95E1F72095309539
:102BB00021703327FC01208308950E94CA151092CA
:102BC000F7011092F60181E00E940E160E94BC15DA
:102BD0000895A1E0B0E0EFEEF5E10C94FF28198232
:102BE00060E0CE0101960E94CD159091F601898199
:102BF00021E0981301C020E098138093F60141E092
:102C000067EF71E086EF91E00E940F16182F0E9487
:102C1000C015812F2196E3E00C941B290895B0E0A4
:102C2000A0E0E5E1F6E10C94FA286C017B01042FA9
:102C3000C22F222379F081E08093C1010E944C1FB2
:102C40009093C0018093BF0180E0CDB7DEB7E8E08C
:102C50000C941629D091C101DD23B1F38091BF01FD
:102C60009091C0010E94641F059770F310E0A801C5
:102C7000B601C7010E942729892B31F0A801B601AE
:102C8000C7010E943429CD2F1092C1018C2FDDCFB6
:102C90000E94F5210E9462130E94022208950E9460
:102CA00007220E946F130E94212208950E94E51EB0
:102CB0000E94DB210E942E130E9448160E944F168C
:102CC0000E944113FBCF90934101809340010895EE
:102CD0000895ACE0B0E0EFE6F6E10C9400290E9424
:102CE000720780E090E02C96E2E00C941C2921E031
:102CF00030E001C0220F4A95EAF7662311F0822BDB
:102D00000895209582230895E0913801F0913901CA
:102D100009950E9440080E9468160895CF9362ECBE
:102D200071E089EC91E00E947F1EC82F882321F07A
:102D300089EC91E00E94061E9091CA0186E0E9ECC0
:102D4000F1E0DF01282F1D922A95E9F79093CA013F
:102D5000A2ECB1E001900D928A95E1F781E0C111FA
:102D600003C0911101C080E08170CF910895ACE063
:102D7000B0E0EDEBF6E10C9400294F8358877A8799
:102D80008B879C876195698786E0FE013796DE0117
:102D9000119601900D928A95E1F729813A814B8134
:102DA0005C816D817E8180E090E02C96E2E00C9465
:102DB0001C29A6E0B0E0EFEDF6E10C940029E091CB
:102DC0003A01F0913B014091C9015091CA016091D3
:102DD000CB017091CC018091CD019091CE010995EC
:102DE000F42FE52FCB012093C9013093CA01F09352
:102DF000CB01E093CC016093CD019093CE01A9016A
:102E00006F2F7E2F0E94B716F42FE52FCB01209352
:102E1000C9013093CA01F093CB01E093CC016093D8
:102E2000CD019093CE01A9016F2F7E2F0E946916CC
:102E30002093C9013093CA014093CB015093CC0138
:102E40006093CD017093CE010E940D1B8091CA0149
:102E5000832B8093CA010E948E16811109C0809134
:102E6000C8011092C80181702696E2E00C941C29DA
:102E700081E090E0F6CFE0913C01F0913D010995B1
:102E800008959C01215D31092830310550F44FE24D
:102E9000480F8091CA010E9477168093CA010E9450
:102EA0008E160895ACE0B0E0E8E5F7E10C94002957
:102EB0004F8358878B879C870E943918FC016038A4
:102EC0002FEF72072CF19B016038710514F02FE78A
:102ED00030E0E038FF4FF4F08038910514F08FE7D0
:102EE00090E029878A8786E0FE013796DE011196F9
:102EF00001900D928A95E1F729813A814B815C819D
:102F00006D817E8180E090E02C96E2E00C941C299B
:102F100020E8DFCF80E8E5CF28E030E043E060E064
:102F200087EF0E94CE1F0895CF93DF93D82FC62F2F
:102F30000E948C178D2F80680E9446208C2F0E9443
:102F400046200E9476208FED91E00197F1F700C0B6
:102F50000000DF91CF910895CF93C82F0E948C1766
:102F60008C2F8F770E9446200E945E20C82F0E94DF
:102F700076208AE68A95F1F700C08C2FCF910895CC
:102F80008FE00E94AC1728EC829FC00111240895A5
:102F900068EC883C910548F068E0893020E29207AF
:102FA00020F468EC70E00E94C2288FE00E94941721
:102FB0000895CF93DF93879A0E94C61F6AE58AE33C
:102FC0000E9494172FEF80E792E0215080409040BC
:102FD000E1F700C0000082E00E94AC1783E00E948D
:102FE000AC1784E00E94AC1785E00E94AC1786E025
:102FF0000E94AC1762E089E30E9494176DE183E1BF
:103000000E949417EFE3FCE93197F1F700C000004C
:1030100068E183E10E9494170E948C1782EE0E945F
:103020004620F0E5FA95F1F7CEEAD0E0FE01849172
:103030000E944620F0E5FA95F1F721962CE0CC3A73
:10304000D207A1F70E9476208FE39CE90197F1F760
:1030500000C0000080E20E94AC17682F607F80E211
:103060000E94941780E496E00E94C817DF91CF91E8
:1030700008950F931F93CF93DF930E948C1780E5E1
:103080000E9446208FE891E00197F1F700C0000010
:103090000E945E2087FF22C00E945E200E945E2068
:1030A000D82F0E945E20182F0E945E20C82F0E94F9
:1030B0005E2020E0312F89010D2B20E0382FC9013F
:1030C0008C2BEC0182E00E9446200E947620B80101
:1030D000CE01DF91CF911F910F910895D0E0C0E014
:1030E00010E000E0EFCFCF93DF93EB0186319C47F8
:1030F00011F50E9433119D81992399F08A7A91E00C
:1031000009F490E09093CF01811109C089E20E94F7
:10311000641E0E94C81180E0DF91CF91089585E37D
:10312000F6CF8091CF01811104C089E20E946C1E0C
:10313000F0CF85E3FBCF81E0EFCFCF93DF93EC01BE
:10314000FB018581882309F4D2C09E0130572332C8
:10315000310508F0B2C00E9447129093F5018093A8
:10316000F401FE01E150F047E232F10520F4E356AC
:10317000F64D0C94EA288091F40181608093F4016B
:1031800093C08091F50188608093F5018DC0809196
:10319000F4018260F3CF8091F4018460EFCF8091DD
:1031A000F4018860EBCF8091F5018160EDCF8091D3
:1031B000F5018260E9CF8091F4018061DFCF8091D9
:1031C000F4018062DBCF8091F4018064D7CF0E944C
:1031D000810C8091F4018068D1CF8091F4018C60E2
:1031E000CDCF8091F5018360CFCF8091F4018E7FA8
:1031F000C5CF8091F501877FC7CF8091F4018D7F86
:10320000BDCF8091F4018B7FB9CF8091F401877F8E
:10321000B5CF8091F5018E7FB7CF8091F5018D7F7D
:10322000B3CF8091F4018F7EA9CF8091F4018F7D7F
:10323000A5CF8091F4018F7BA1CF0E94810C80915A
:10324000F4018F779BCF8091F401837F97CF80919A
:10325000F5018C7F99CF8091F40182FB992790F939
:1032600021E0922790FB82F990FB83F987CF809130
:10327000F501982F909591708E7F892B90FB81F9A5
:1032800083CF9091F401892F8F7B96FF806476CF56
:103290000E94810C9091F401892F97FB87F9805847
:1032A0006DCF81E00E94D5128091F4019091F501DB
:1032B0000E944C120E94810C80E0DF91CF91089512
:1032C00080E0F0CF9091F401892F8F7E94FF806190
:1032D00055CF9091F401892F8E7F90FF81604ECF62
:1032E0009091F501892F877F93FF88604DCF81E012
:1032F000E4CF282F35EB2303C001112497FF04C02E
:1033000080589109892F089580589F4FFBCF809155
:10331000D60180FF0DC06091290170E0660F771F14
:103320006038710570F56115710569F1862F089592
:1033300081FF07C06091290184E0689FB0011124DA
:10334000EFCF6091290182FD0AC08091D5018823C9
:10335000A9F02091280160912901821710F088E0DE
:10336000ECCF869FC001112433E0880F991F3A9556
:10337000E1F7622F70E00E94D628D2CF68E070E0BB
:10338000D5CF8FE7089581E008958091D60180FF21
:103390000CC06091250170E07595679575956795EE
:1033A0006115710549F1862F089581FF06C060916E
:1033B000250170E075956795F3CF6091250182FD39
:1033C0000BC09091D4019923A1F0609124018091C8
:1033D0002501961738F0682F70E06038710500F30A
:1033E0008FE70895899FC001112470E00E94D628BC
:1033F000F4CF61E070E0D7CF81E008959091D901DA
:103400002091DA01922B2091DC01922B2091DB019B
:10341000922B31F098E09093D50191E09093D401F4
:103420008D3C31F40E94871981958093DA010895CB
:103430008E3C19F40E948719F8CF8F3C31F40E941A
:10344000871981958093D9010895803D19F40E94D0
:103450008719F8CF893D29F40E94C5198093DB01B3
:1034600008958A3D21F40E94C5198195F7CF8B3DBF
:1034700031F40E94C51981958093DC0108958C3D3B
:1034800019F40E94C519F8CF9FE2980F983070F494
:10349000815D990B21E030E001C0220F8A95EAF7A7
:1034A0008091D801822B8093D80108958D3D31F40D
:1034B0008091D60181608093D60108958E3D21F4DC
:1034C0008091D6018260F7CF8F3DB9F78091D60108
:1034D0008460F1CF4091D9018D3C59F48091DA019B
:1034E00087FF0DC01092DA0141110BC01092D50177
:1034F00008C08E3C81F48091DA0118169CF34423B5
:1035000081F08091DB019091DC01892B09F05AC098
:103510001092D40108958F3C49F447FFF0CF1092E8
:10352000D9018091DA018111ECCFE0CF803D19F40F
:103530001416ACF3E4CF9091DB01893D29F4191600
:10354000F4F61092DB01DBCF8A3D19F497FFD7CF59
:10355000F8CF9091DC018B3D29F497FFD0CF1092EA
:10356000DC01CDCF8C3D19F41916CCF3C8CF9FE206
:10357000980F983090F4815D990B21E030E0B9010B
:1035800002C0660F771F8A95E2F7CB018095909174
:10359000D80189238093D801B2CF8D3D31F4809139
:1035A000D6018E7F8093D601AACF8E3D21F48091E3
:1035B000D6018D7FF7CF8F3D09F0A1CF8091D60145
:1035C0008B7FF0CF08950E944C1F9C019091D901F0
:1035D0008091DA01982B21F03093D3012093D2010E
:1035E0009091DB018091DC01982B21F03093D10187
:1035F0002093D00187ED91E00E94061E089586E099
:10360000E7EDF1E0DF011D928A95E9F71092D5010F
:103610001092D4011092D6010895A6E0B0E0E3E143
:10362000FBE10C94002986E0E7EDF1E0DE01119664
:1036300001900D928A95E1F729813A814B815C8155
:103640006D817E8180E090E02696E2E00C941C295A
:10365000FC01828181110EC0838181110BC08481A4
:10366000811108C091E08581811101C090E0892F0E
:103670008170089581E0FCCFA6E0B0E0E2E4FBE1D8
:103680000C94FF2886E0E7EDF1E0DE011196019051
:103690000D928A95E1F71092D9011092DA011092F9
:1036A000DB011092DC018B819C81892B89F0809158
:1036B000D2019091D3010E94641FAC019091D50179
:1036C0009923C9F180912A018417150608F440C096
:1036D0008D819E81892B91F08091D0019091D101B3
:1036E0000E94641FAC019091D401992309F46AC02F
:1036F000809126018417150608F472C0BE016F5F21
:103700007F4F87ED91E00E947F1E811105C087EDFC
:1037100091E00E94281B81110E94E31A86E0FE01BD
:103720003196A7EDB1E001900D928A95E1F72696CA
:10373000E3E00C941B2920912B018AE0289F900143
:1037400011242417350720F69F5F9093D50102C0FE
:103750009F3FD1F71B81112359F00E9487199FEFDA
:1037600011160CF491E0899F802D11248093D901CA
:103770001C81112359F00E9487199FEF11160CF438
:1037800091E0899F802D11248093DA018091D901E5
:10379000882309F49DCF1091DA01112309F498CF01
:1037A0000E947919882351F08093D901812F0E94BA
:1037B0007919882329F08093DA018ACF81E0F4CF48
:1037C00081E0F9CF209127018AE0289F9001112400
:1037D0002417350708F092CF9F5F9093D40102C061
:1037E0009F3FD1F71D81112359F00E94C5199FEF0A
:1037F00011160CF491E0899F802D11248093DB0138
:103800001E81112359F00E94C5199FEF11160CF467
:1038100091E0899F802D11248093DC018091DB0150
:10382000882309F46BCF1091DC01112309F466CFD2
:103830000E947919882351F08093DB01812F0E9427
:103840007919882329F08093DC0158CF81E0F4CFE7
:1038500081E0F9CFB0E0A0E0E0E3FCE10C94F828CF
:103860007C015B01C42FD22FFC0185818823C9F024
:103870004093DF010E944C1F9093DE018093DD0195
:1038800080E28C0F883040F4C77081E001C0880F5F
:10389000CA95EAF70E944F0ACDB7DEB7EAE00C946A
:1038A00014291091DF01141338C08091DD0190912B
:1038B000DE010E94641F6C01B701C5010E94710EF8
:1038C000C816D90650F5C0E2CD0F1D17C1F080E231
:1038D000810F883048F4177081E0012E01C0880FF5
:1038E0000A94EAF70E94560AC83048F481E09D2FF6
:1038F000977001C0880F9A95EAF70E944F0A802FAF
:103900000E94460AC83040F6D77081E001C0880F97
:10391000DA95EAF70E94560ABFCF80E28C0F883012
:1039200008F0BACFC77081E001C0880FCA95EAF7E6
:10393000F1CF0F93DB0188519C4787309105A0F5AB
:10394000FC01E154F64D0C94EA2806E221EE41EE2A
:103950006AE17CE7CD010E942A1C80E00F91089566
:1039600007E225EE45EE6BE17CE7F4CF06E221EEBF
:1039700040EE68E17CE7EECF07E225EE44EE69E138
:103980007CE7E8CF06E221EE42EE6CE17CE7E2CF95
:1039900007E225EE46EE6DE17CE7DCCF08E221E0B0
:1039A00045EE6EE17CE7D6CF15968C91882319F011
:1039B0001092DF01D3CF81E0D1CF4115510511F035
:1039C000FA0109950895CF93DF93EC014A855B8551
:1039D0006E857F850E94DD1C8B810E944F118C813A
:1039E0000E943C110E94C81186E0FE0111928A9546
:1039F000E9F7DF91CF910895CF93DF93EC018D81AB
:103A000081FD11C082608D838B810E9449118C8160
:103A10000E9436110E94C811488559856E857F85A0
:103A2000CE010E94DD1C1092E3011092E2018D8113
:103A300080FD03C0CE010E94E31CDF91CF91089569
:103A4000CF93FB01C581CC23F1F0E091E201F0912D
:103A5000E3013097D9F0E817F907C1F0FF2724E018
:103A6000EE0FFF1F2A95E1F7DF01AB5FBE4F2C91F0
:103A700024602C93E050FF4F91838083CF010E94FC
:103A8000FC1C0E9456118C2FCF910895C0E0FBCFF3
:103A90000F931F93CF93DF938C0197558F3F910521
:103AA00009F0C8F5C801992724E0880F991F2A95C5
:103AB000E1F7EC01C050DF4FFB012581FC01EB5F1A
:103AC000FE4F808120FB80F98083222351F10E94E8
:103AD0004C1F9093E1018093E0018A818F5F8A837C
:103AE0000E9433118B830E9446119B81892B8B830B
:103AF0000E9459118C834E815F816E857F85CE0136
:103B00000E94DD1C8D8181FF02C010E000E0109357
:103B1000E3010093E20181E0DF91CF911F910F91CA
:103B200008954C855D856E857F85CE010E94DD1CE4
:103B30008D8181FFF0CFCE010E94E31C8091E201D4
:103B40009091E3018017910731F71092E3011092F1
:103B5000E201E1CFA7E0B0E0E0EBFDE10C94FE284C
:103B60008091E2019091E301892B61F18091E00164
:103B70009091E1010E94641F8C01BE016F5F7F4F35
:103B800087E0FB0111928A95E9F78091E20190911B
:103B9000E3010E94710E80179107A0F48091E20169
:103BA0009091E301992724E0880F991F2A95E1F766
:103BB000FC01EB5FFE4F208122FD04C080509F4F2F
:103BC0000E94FC1C2796E4E00C941A299093E501CE
:103BD0008093E4010895E091E401F091E5013097CC
:103BE00029F00190F081E02D0995089580E0089575
:103BF0000E94EB1D0895E091E401F091E5013097FA
:103C000021F00280F381E02D09950895E091E4010F
:103C1000F091E501309739F022E0DC012C93068029
:103C2000F781E02D099508954091220150912301DB
:103C30009A012E5F3F4F485F5F4F80E024173507A2
:103C400009F40895F90191919F019923B9F38F5FC8
:103C5000F5CF882371F02091220130912301F901E1
:103C60003296285F3F4F9191981729F0E217F3079A
:103C7000D1F780E0089581E008959C01FC0132961F
:103C80009FEF80E04191461751F09F3F19F4411199
:103C900001C0982F8F5F8630A9F79F3F09F40895E0
:103CA000290F311D97FD3A95F90162830895FC01B2
:103CB000329608962191261303C0DF0111971C92BA
:103CC000E817F907B9F70895682F809122019091BC
:103CD00023010E943D1E0895682F8091220190913A
:103CE00023010E94571E0895E0912201F0912301C3
:103CF000329686E0DF011D928A95E9F70895DC018E
:103D0000FB0111969C9111978181981322C0129604
:103D10008C911297882319F0928189131AC01396F7
:103D20008C911397882319F09381891312C01596EB
:103D30008C911597882319F0958189130AC01496E0
:103D40009C91992321F081E02481291303C080E014
:103D500001C081E08170089508950E94AC1E08950D
:103D6000811106C081E08093E6010E94AD1E089596
:103D700082E0F9CF83E08093E6010E94AD1E0895B2
:103D80000E94B01E089581E08093E6010E94AD1E5E
:103D900008950E94C31E0895089508950E94CD1E9F
:103DA0000895089508950E94CC1E08950E94D11E82
:103DB0000E94E9150E94D21E80E00E94C31591E086
:103DC000811101C090E0892F089585B7806885BF73
:103DD00085B7806885BF08951F921FB61F92112472
:103DE0008F939F93AF93BF938091E701811113C08D
:103DF0008091F8019091F901A091FA01B091FB0135
:103E00004196A11DB11D8093F8019093F901A093F3
:103E1000FA01B093FB01BF91AF919F918F911F90D9
:103E20001FBE1F90189580910002843031F10E94CE
:103E30003E091092E70188E190E020E40FB6F89483
:103E4000A895809360000FBE2093600083B7817FA8
:103E5000846083BF83B7816083BF7894889583B77C
:103E60008E7F83BF0FB6F894A8958091600088611B
:103E700080936000109260000FBE08950E94810C34
:103E80000E944509089582E084BD93E095BD9AEFB4
:103E900097BD80936E0008952FB7F8948091F80134
:103EA0009091F901A091FA01B091FB012FBF089503
:103EB0002FB7F8946091F8017091F9018091FA019F
:103EC0009091FB012FBF08959C014FB7F89480910A
:103ED000F8019091F901A091FA01B091FB014FBF57
:103EE000821B930B089578941F921FB61F92112482
:103EF0008F939F93AF93BF938091F8019091F901B5
:103F0000A091FA01B091FB010196A11DB11D809312
:103F1000F8019093F901A093FA01B093FB01BF91CE
:103F2000AF919F918F911F901FBE1F90189581E0B8
:103F30008093E00080E28093D8001092C9008FE166
:103F40009EE40197F1F700C0000087E090EBDC01F0
:103F50008093090290930A02A0930B02B0930C0283
:103F600088E19CE00FB6F894A895809360000FBE9E
:103F700090936000FFCF88E19CE00FB6F894A8957D
:103F8000809360000FBE90936000FFCF289A219A23
:103F9000229A23982B9880E58CBD089590912C014E
:103FA0009F3F09F071C08F3F09F46EC0611144C09A
:103FB0001092E9019091E901423009F441C0433087
:103FC00009F442C094604130E1F141E050E0421711
:103FD0005307E0F19091E9014031510509F452C0D5
:103FE000C0F54230510509F446C04830510509F486
:103FF00046C09CB52091E901922B9CBD9091E801AF
:10400000992319F09DB591609DBD80932C01E82FF7
:10401000E295EF70F0E031A1282F2F7081E090E061
:1040200001C0880F2A95EAF7382B31A392A1809519
:10403000892382A381E0089590E29093E901BACFA9
:1040400098609093E901C1CF9C60FBCF440F551F4E
:10405000BECF4034510549F04038510541F040325F
:10406000510539F621E02093E801926001C0936088
:104070009093E901BECF91E09093E801BACF21E09F
:104080002093E8019160F4CF80E00895CF93DF930F
:104090008EBD0E944C1FEC010DB407FE05C08EB50D
:1040A00090E0DF91CF9108950E944C1F8C1B9D0BD7
:1040B0008436910588F38EEF9FEFF3CFCF93DF9394
:1040C0001EBC0E944C1FEC010DB407FE05C08EB54E
:1040D00090E0DF91CF9108950E944C1F8C1B9D0BA7
:1040E0008436910588F38EEF9FEFF3CF80912C01FA
:1040F0008F3F29F1E82FE295EF70F0E041A18F703A
:1041000021E030E0B90102C0660F771F8A95E2F71F
:10411000CB01942F982B91A392A1892B82A38FEF8F
:1041200080932C018DB58E7F8DBD9CB58091E9016A
:10413000809589238CBD1092E9011092E8010895C1
:104140008091F2010895089508959B01BA0190911C
:1041500000029430E9F48F708093E9009FEF809122
:10416000E800915085FD06C085ED8A95F1F70000C5
:104170009111F5CF8091E80085FF0AC050E040E042
:10418000C9010E9498228091E8008E778093E80010
:10419000089546E050E0BC0182E00E94A520089509
:1041A000CF93DF93EC0148E050E0BC0181E00E9436
:1041B000A52088E0FE01AAEEB1E001900D928A955B
:1041C000E1F7DF91CF9108958091FF01811109C03E
:1041D0000E9428240E9485248091E20084608093BC
:1041E000E20008951092FF0108950E94C31E0895F1
:1041F0006091FC0181E0611101C080E00E94BA1E63
:1042000008959091000281E0943009F080E060917F
:10421000FC010E94C01E089542E061EC81E00E9412
:10422000A42342E261EC82E00E94A4239091000268
:1042300081E0943009F080E06091FC010E94B01EA2
:10424000089580910202833009F461C030F4813016
:10425000D1F1823009F49EC008958A3009F48AC0F1
:104260008B3009F46FC0893009F050C08091010291
:10427000813209F04BC080910502909106020297AD
:1042800008F044C08091E800877F8093E800809127
:10429000E80082FF37C09091F3008091F20002970E
:1042A00031F48091F100813011F0863021F4809159
:1042B000F1008093F2018091E8008B778093E80011
:1042C0000E94D82323C080910102813AF9F48091A1
:1042D000E800877F8093E8008091050290910602B4
:1042E000892B61F468E08AEE91E070E00E94E72299
:1042F0008091E8008B778093E800089560E090E07B
:1043000080E0F3CF809100028111C1CF08958091A8
:104310000102813AD9F78091050290910602892B1A
:10432000A9F78091E800877F8093E8008091E800FA
:1043300080FFFCCF809137018093F1008091E800ED
:104340008E77BCCF80910102813201F78091050206
:1043500090910602892BD1F68091E800877F8093A7
:10436000E8000E94D82380910302809337010E94C5
:10437000810C089580910102813241F68091E8001C
:10438000877F8093E8000E94D82380910402809365
:10439000F301089580910102813A09F0B7CF80912D
:1043A000E800877F8093E8008091E80080FFFCCFE1
:1043B0008091F301C1CF84B7877F84BF0FB6F89493
:1043C000A8958091600088618093600010926000E1
:1043D0000FBE80E890E00FB6F89480936100909350
:1043E00061000FBE0E94C91E08950E9428240E94E9
:1043F0008524E2EEF0E080818460808378940E94DE
:10440000042708958DE291E00E94E61D08958091B1
:104410000002853031F480910002853019F00E944D
:104420003E1F08950E94131F8091FE01882399F377
:104430000E94D61E882379F30E9482220E94810C5A
:10444000EACF08959A0140910702509108020E9414
:104450002A220895492F55274330510519F168F450
:104460004130510509F444C04230510509F445C0BA
:1044700090E080E050E040E025C04132510549F134
:1044800042325105A9F784E490E04CE75DE0611504
:104490007105C1F089E490E043E35DE061307105AE
:1044A00089F0E6CF99278130910581F0009729F0B6
:1044B0000297F1F6ECEAFCE002C0E2EEFCE0849147
:1044C00090E0AF01F901518340830895EAEBFCE0ED
:1044D000F6CF89E090E048EF5CE06115710591F35B
:1044E00089E090E041E15DE06130710559F3C0CFB2
:1044F00082E190E041E25DE0E5CF8BE390E046EEC3
:104500005CE0E0CF80E189BD82E189BD09B400FEB5
:10451000FDCF8091D8008F7D8093D8008091E000FE
:1045200082608093E0008091E00081FDFCCF0895DF
:10453000AF92BF92CF92DF92FF920F931F93CF93D0
:10454000DF936C01EB018A010E94F723F82E8111A1
:1045500023C00115110539F0F80180819181C81B34
:10456000D90BC80ED91EB12CA12C2097A9F080918F
:10457000E80085FD22C08091E8008E778093E800F6
:1045800001151105A1F0F80180819181A80EB91ED5
:10459000B182A08285E0F82E8F2DDF91CF911F91FF
:1045A0000F91FF90DF90CF90BF90AF9008950E9441
:1045B000F7238823D1F2F82EEFCFF60181916F0116
:1045C0008093F1002197FFEFAF1ABF0ACECFFC0115
:1045D000809107029091080286179707A0F0611555
:1045E000710529F49091E8009E779093E80090E09F
:1045F0006115710551F4911108C08091E80082FFA6
:1046000034C080E00895BC01F2CF8091000288237D
:10461000C1F18530C1F18091E80083FD30C0809107
:10462000E80082FDEACF8091E80080FFE1CF809131
:10463000F3002091F200382F6115710519F0283030
:10464000310558F091E02830310509F090E02091D3
:10465000E8002E772093E800CBCF81918093F10082
:10466000615071092F5F3F4FE7CF8091000288238F
:1046700041F0853041F08091E80083FFBECF81E0BA
:10468000089582E0089583E00895FC018091070277
:104690009091080286179707A0F06115710529F41B
:1046A0008091E8008E778093E80090E061157105B5
:1046B00051F4911108C08091E80082FF35C080E07C
:1046C0000895BC01F2CF809100028823C9F18530A2
:1046D000C9F18091E80083FD31C08091E80082FD3E
:1046E000EACF8091E80080FFE1CF8091F300209134
:1046F000F200382F6115710519F02830310558F096
:1047000091E02830310509F090E08091E8008E7743
:104710008093E800CBCF84918093F1003196615073
:1047200071092F5F3F4FE6CF80910002882341F04F
:10473000853041F08091E80083FFBDCF81E008958E
:1047400082E0089583E00895982F973028F08F70C5
:104750008093E90081E008959093E900242F762F5B
:1047600050E0981731F07091EC002091ED005091DD
:10477000F00021FD02C09F5FE8CF3091EB003E7F4B
:104780003093EB003091ED003D7F3093ED003091A0
:10479000EB0031603093EB007093EC002093ED0060
:1047A0005093F0002091EE0027FDE5CF80E00895C2
:1047B0008091010287FF13C08091E80082FF06C04C
:1047C0008091E8008B778093E80004C0809100021C
:1047D0008111F2CF0895809100028823D9F380914E
:1047E000E80080FFF8CF8091E8008E77ECCF209131
:1047F000E4003091E50095E6A9012091EC00822FBC
:10480000817020FF06C08091E80080FF06C080E034
:1048100008952091E80022FD1AC0809100028823AB
:1048200089F0853089F08091EB0085FD0FC02091E3
:10483000E4003091E50042175307F9F29150E1F698
:1048400084E0089582E0089583E0089581E008956A
:104850000E9497240E949F24E0EEF0E08081816016
:104860008083E8EDF0E080818F77808319BCA7ED2D
:10487000B0E08C918E7F8C9380818F7E80831092AC
:10488000FF0108950F931F93CF93DF930E94972406
:104890000E949F24C8EDD0E088818F77888388812B
:1048A0008068888388818F7D888319BC109200027C
:1048B0001092FC011092FE011092FD0100EE10E03A
:1048C000F80180818B7F808388818160888342E0CA
:1048D00060E080E00E94A423E1EEF0E080818E7F22
:1048E0008083E2EEF0E08081816080838081886057
:1048F0008083F80180818E7F8083888180618883B6
:10490000DF91CF911F910F910895E8EDF0E0808144
:104910008F7E8083E7EDF0E080818160808384E09A
:1049200082BF81E08093FF010E9442240895E8ED58
:10493000F0E080818E7F80831092E20008951092D3
:10494000DA001092E10008951F920F920FB60F92B5
:1049500011242F933F934F935F936F937F938F9384
:104960009F93AF93BF93EF93FF938091E10082FFFA
:104970000BC08091E20082FF07C08091E1008B7F35
:104980008093E1000E9403278091DA0080FF19C024
:104990008091D80080FF15C08091DA008E7F8093CF
:1049A000DA008091D90080FF96C080E189BD82E164
:1049B00089BD09B400FEFDCF81E0809300020E9412
:1049C000E4208091E10080FF19C08091E20080FF27
:1049D00015C08091E2008E7F8093E2008091E2001A
:1049E00080618093E2008091D80080628093D8003B
:1049F00019BC85E0809300020E94F8208091E100BC
:104A000084FF2BC08091E20084FF27C080E189BD34
:104A100082E189BD89B5982F917080FFFBCF80918D
:104A2000D8008F7D8093D8008091E1008F7E8093A5
:104A3000E1008091E2008F7E8093E2008091E200AD
:104A400081608093E2008091FC01882309F449C0D1
:104A500084E0809300020E9401218091E10083FFA5
:104A600029C08091E20083FF25C08091E100877F0B
:104A70008093E10082E0809300021092FC0180911B
:104A8000E1008E7F8093E1008091E2008E7F809331
:104A9000E2008091E20080618093E20042E060E009
:104AA00080E00E94A4238091F00088608093F00051
:104AB0000E94F520FF91EF91BF91AF919F918F914F
:104AC0007F916F915F914F913F912F910F900FBE0A
:104AD0000F901F90189519BC109200020E94F220AE
:104AE00070CF8091E30087FD93E090930002B3CFF5
:104AF0001F920F920FB60F9211242F933F934F9353
:104B00005F936F937F938F939F93AF93BF93CF9355
:104B1000DF93EF93FF93D091E900DF708091EC0079
:104B2000C82FC17080FDC0E81092E9008091F000AC
:104B3000877F8093F00078940E94BC251092E90052
:104B40008091F00088608093F000CD2BCF70C093EF
:104B5000E900FF91EF91DF91CF91BF91AF919F91CC
:104B60008F917F916F915F914F913F912F910F9016
:104B70000FBE0F901F901895AAE2B0E0E2ECF5E2AC
:104B80000C94FF2881E092E02091F100FC01219338
:104B9000CF01F2E089309F07B9F70E94212180916F
:104BA000E80083FF1EC180910102909102029A30B9
:104BB00008F017C1E92FF0E0EA53F64D0C94EA280B
:104BC000803899F0823809F00CC1809105028F700D
:104BD000873008F006C18093E9008091EB0085FBE7
:104BE000882780F91092E90006C08091FD0190911C
:104BF000FE01911182609091E800977F9093E80008
:104C00008093F1001092F1008091E8008E77E5C06A
:104C1000882309F4D3C0823009F0E3C080910302F5
:104C20008111D6C0809105028F702FEF280F26309A
:104C300008F0D7C08093E9002091EB0020FFC8C0A6
:104C4000933031F48091EB0080628093EB00C0C020
:104C50009091EB0090619093EB0021E030E001C077
:104C6000220F8A95EAF72093EA001092EA008091D9
:104C7000EB008860EACF8111B4C0109103021F7766
:104C80008091E3008078812B8093E3008091E8009D
:104C9000877F8093E8000E94D8238091E80080FFFE
:104CA000FCCF8091E30080688093E30082E01111E3
:104CB00083E08093000295C08058823008F091C054
:104CC00080910302909104028C3D23E09207A1F5AC
:104CD00083E08A838AE289834FB7F894DE011396D2
:104CE00020E03EE051E2E32FF0E050935700E491E2
:104CF00020FF03C0E295EF703F5FEF708E2F90E0D2
:104D0000EA30C0F0C7968D939D932F5F243159F7F9
:104D10004FBF8091E800877F8093E8006AE270E0EF
:104D2000CE0101960E94E7228091E8008B77809364
:104D3000E80057C0C096E7CF609105027091060267
:104D4000AE014F5F5F4F0E942222BC01892B09F404
:104D500048C09091E800977F9093E80089819A81FC
:104D60000E944523E1CF8038E1F58091E800877FFC
:104D70008093E8008091FC018093F10045CF811180
:104D800030C090910302923060F58091E800877FF7
:104D90008093E8009093FC010E94D8238091FC014D
:104DA000882311F084E005C08091E30087FDFACFED
:104DB00081E0809300020E940C2113C080910302C5
:104DC000813079F481E0933009F080E08093FE0136
:104DD0001092E9008091E800877F8093E8000E94AC
:104DE000D8238091E80083FF0AC08091E800877F84
:104DF0008093E8008091EB0080628093EB00AA969C
:104E0000E3E00C941B290895CF938091000288233E
:104E1000A1F0C091E900CF709091EC00892F8170D2
:104E200090FD80E8C82B1092E9008091E80083FD96
:104E30000E94BC25CF70C093E900CF9108955058CF
:104E4000BB27AA270E9437270C9488280E947A281B
:104E500038F00E94812820F039F49F3F19F426F49D
:104E60000C9477280EF4E095E7FB0C947128E92F59
:104E70000E94992858F3BA176207730784079507A9
:104E800020F079F4A6F50C94BB280EF4E0950B2ED7
:104E9000BA2FA02D0B01B90190010C01CA01A0018C
:104EA0001124FF27591B99F0593F50F4503E68F1E7
:104EB0001A16F040A22F232F342F4427585FF3CF28
:104EC000469537952795A795F0405395C9F77EF4F9
:104ED0001F16BA0B620B730B840BBAF09150A1F042
:104EE000FF0FBB1F661F771F881FC2F70EC0BA0FC8
:104EF000621F731F841F48F4879577956795B79550
:104F0000F7959E3F08F0B0CF9395880F08F099274A
:104F1000EE0F9795879508950E94A0270C948828F6
:104F20000E94812858F00E947A2840F029F45F3FBF
:104F300029F00C94712851110C94BC280C947728FA
:104F40000E94992868F39923B1F3552391F3951B97
:104F5000550BBB27AA2762177307840738F09F5F9A
:104F60005F4F220F331F441FAA1FA9F335D00E2E07
:104F70003AF0E0E832D091505040E695001CCAF774
:104F80002BD0FE2F29D0660F771F881FBB1F261737
:104F900037074807AB07B0E809F0BB0B802DBF010E
:104FA000FF2793585F4F3AF09E3F510578F00C94DD
:104FB00071280C94BC285F3FE4F3983ED4F38695A7
:104FC00077956795B795F7959F5FC9F7880F911DFE
:104FD0009695879597F90895E1E0660F771F881FEA
:104FE000BB1F621773078407BA0720F0621B730B9D
:104FF000840BBA0BEE1F88F7E09508950E940528F0
:105000006894B1110C94BC2808950E94A12888F0DE
:105010009F5798F0B92F9927B751B0F0E1F0660F7C
:10502000771F881F991F1AF0BA95C9F714C0B130BD
:1050300091F00E94BB28B1E008950C94BB28672F23
:10504000782F8827B85F39F0B93FCCF386957795EC
:105050006795B395D9F73EF49095809570956195D5
:105060007F4F8F4F9F4F0895E89409C097FB3EF400
:1050700090958095709561957F4F8F4F9F4F9923A5
:10508000A9F0F92F96E9BB279395F6958795779523
:105090006795B795F111F8CFFAF4BB0F11F460FFE3
:1050A0001BC06F5F7F4F8F4F9F4F16C0882311F03B
:1050B00096E911C0772321F09EE8872F762F05C04F
:1050C000662371F096E8862F70E060E02AF09A95EA
:1050D000660F771F881FDAF7880F9695879597F9DF
:1050E000089597F99F6780E870E060E008959FEF6A
:1050F00080EC089500240A9416161706180609066F
:10510000089500240A94121613061406050608953D
:10511000092E0394000C11F4882352F0BB0F40F4C5
:10512000BF2B11F460FF04C06F5F7F4F8F4F9F4F05
:10513000089557FD9058440F551F59F05F3F71F087
:105140004795880F97FB991F61F09F3F79F08795EE
:105150000895121613061406551FF2CF4695F1DF77
:1051600008C0161617061806991FF1CF8695710507
:10517000610508940895E894BB2766277727CB013B
:1051800097F90895AA1BBB1B51E107C0AA1FBB1FBB
:10519000A617B70710F0A61BB70B881F991F5A95C3
:1051A000A9F780959095BC01CD01089597FB072E36
:1051B00016F4009407D077FD09D00E94C22807FC9E
:1051C00005D03EF4909581959F4F08957095619517
:1051D0007F4F0895EE0FFF1F0590F491E02D099485
:1051E0002F923F924F925F926F927F928F929F92F7
:1051F000AF92BF92CF92DF92EF92FF920F931F93E5
:10520000CF93DF93CDB7DEB7CA1BDB0B0FB6F89495
:10521000DEBF0FBECDBF09942A88398848885F84D5
:105220006E847D848C849B84AA84B984C884DF8046
:10523000EE80FD800C811B81AA81B981CE0FD11D2A
:105240000FB6F894DEBF0FBECDBFED010895FB0190
:10525000DC0104C08D910190801921F4415050402F
:10526000C8F7881B990B0895FB01DC0102C001906F
:105270000D9241505040D8F70895F999FECF92BD54
:1052800081BDF89A992780B50895A8E1B0E042E081
:1052900050E00C948129DC01A40FB51F415050400F
:1052A00048F0CB01840F951F2E910E945C2941503C
:1052B0005040D0F70895262FF999FECF92BD81BDB9
:1052C000F89A019700B4021639F01FBA20BD0FB644
:1052D000F894FA9AF99A0FBE08950396272F0E9420
:1052E0005C290E945B29252F0E945C29242F0C94A5
:1052F0005C290196272F0E945C290C945B29DC0114
:10530000CB01FC01F999FECF06C0F2BDE1BDF89AD0
:10531000319600B40D9241505040B8F70895F8947A
:10532000FFCF9E0A9E0AEE0AEE0ACD0A530BCD0A63
:10533000CD0A580BC90BD80BD80BF5186919FD18F5
:10534000C718CB180119CF1805191119DB186219E4
:10535000DF181519E31819194119E7181D1948190B
:10536000ED1823192B19D3180919D7180D19F1188D
:105370002719371951196019C118F9187019B61C75
:10538000BC1CA51CB01CC21CC81CCE1CE0250826D9
:10539000F1260826F1263B265C26F126B326BF26F9
:1053A00000000000000000000000000000000000FD
:1053B000000000000000000056071A07000000006F
:1053C0000100A501280850011E0A1401FFA020D0E9
:1053D00020A420C920A32001D9175217C817C0172D
:00000001FF
