:100000000C94E0060C9418070C9418070C9418072D
:100010000C9418070C9418070C9418070C941807E4
:100020000C9418070C9418070C94C3220C94972373
:100030000C940B1D0C9418070C9418070C941807BB
:100040000C9418070C9418070C9418070C941807B4
:100050000C9418070C94921D0C9418070C94180714
:100060000C9418070C9418070C9418070C94180794
:100070000C9418070C9418070C9418070C94180784
:100080000C9418070C9418070C9418070C94180774
:100090000C9418070C9418070C9418070C94180764
:1000A0000C9418070C9418070C941807000003A66A
:1000B000681E7D107E7E5F1CB8F2470C7B744B146B
:1000C0008B7566510B8C76744B14AAD60F9CBAF6BE
:1000D0006E3FDD38D502809B826D5813A4ABB5C945
:1000E00010A2C60A7F5D1991A0A3CEEB3EC9F160B4
:1000F00042E74CFB746A562EBFDD38D3058892A6C2
:10010000CEFF5D38D1CFEF58CB6548F03585A9B229
:100110008F5EF38094977E7597877313B08A69D446
:100120000ADEC1795936DB9DD6B8156FCE3C7232E6
:100130004588DF6CA56DE87696147420DCF4FA37F8
:100140006A2732E329BFC4C7069D58E7877C2E9FE4
:100150006E49075D236454836ECBB777F72B6E0F20
:100160002E6612605565FC43B358735BE867044321
:1001700002DEB389A06D3A2779645B0C169E66B1E6
:100180008B870C5DF2B63D71DF42038A068DEF1D51
:10019000A8965CED31615CA134F68C0860330700F1
:1001A0003E79951B437FFEB6A6D49D7672BFADC047
:1001B00015E83731A37263521D1C5D511BE1A9ED97
:1001C00060323EA95028530659E2FCE70264392107
:1001D000564AA5408081D55A607B6884F1E0B1B66B
:1001E0005BDFA81D6D6520C0A2B9D9BB00A6DB8B63
:1001F000015391FEC45185B0967FFD51DD14036714
:100200002E751C76D36EDD995576E5AB23FC4AD569
:10021000C6E82ECA8AB3F68C6CB0E9F2E79E694153
:10022000EDF16DD286D87ECB5D476C856A23ED20DB
:100230004093B420C7A5C9AF0315AC19E52A36DF32
:100240006DC58C8007CE920CD806620FDD48461A29
:1002500053C78A8C5D5DB4A102D3A9B8F3948F3FD4
:10026000E554D41165B25E090B81E375A789813924
:100270006C46F6069F273BB62D5F1D4BD47B1D6158
:100280007489E4E3BD981BC4513BA4FAE092F7BE25
:10029000F24DBBFFAD4F6D68C27940AA9B8F0C3207
:1002A0004B5F3EAB5998B3F51DAC5EBC78D3016C87
:1002B00064152FD871A62D45E12242E44E043C7D01
:1002C000F44021B46705A8E2F372874C7DD91B6521
:1002D00097F3C2E3E4C8D2DEF6EFDCBB44085EE28B
:1002E000452701B0F643E73AF6DC9DEDF3C50CB8BF
:1002F0009C983AD836EE967267E78191D5050AE068
:1003000082D58FE8F9B0C9CF93E704C5BC2B43561B
:100310007EE8677CE5FB49AD5E9F2513DE6E6EE9E6
:10032000F1EC870B5981768476B324AF30FD278BAF
:10033000ABD8008B9B0CD2B24E5E9D1D9601006720
:10034000C15F0220FD456A01605845CA4721905AA5
:10035000C443261AD7A54AB25D2B3549FBA517928F
:10036000211E939667A27E367ADE5FBE7A589DF88C
:1003700078A3FAC8D517F021978C80B54B3BBDBB4D
:100380004121A85067F7E71980108ECE04183F511D
:100390006B77D89E16AFECEF48164D9E8538183E09
:1003A000D42887602AF67F09866F9C3C3AFFABD041
:1003B00061A2970D71947EFDB98002896AB3846C45
:1003C0002A7762BE0BF4AFAC7B7C8ECA01BA71781F
:1003D00094FDB539A44D2F78CFCA920C1A99484C88
:1003E0001196B54E4128E4A6FE4B7291E7D4DD9FED
:1003F00012E62938CE45AE02B824AEBDE9660862E1
:10040000A22C2B00E223D9C448E4D3ACBB34C7F000
:10041000E34FB930EAA212F1302C36DE48F2B04C8C
:10042000433F2E58E420E358CD3122F0A22AE619AA
:10043000905586F65579D1D7462FC0DC99E8F36AF6
:10044000DF7FEB244A1E5A75DE2F5C19610353547B
:100450006A3B1870B64FF19C0A599D1992658C83BE
:10046000142D448A75A9F590D2664EFA690F5B0B7C
:100470009865C81142597FDD1B7517314C7558EBD3
:1004800058637DF2A6C26EB73F3E5E47ADB704E843
:1004900005F8B2CF19F3D285FE3E3EB162082C10AA
:1004A000070D739017FA9B560275F951E0E91A7B14
:1004B0009FB3F398B81C9CE1D535AEC860481109CC
:1004C000946BD08B15BC0568D3548A51395C427645
:1004D000CED8AD8930C9051CCC943F0F906F722DDA
:1004E00085649AB923F90BC37C390F970797DA58BB
:1004F00048330523B882E8D35389AF338022840C74
:10050000955C67B8770C5CA25F3D580F27F32FAE60
:1005100048BD0B6F54FB674CEA3227F1FAE2B0ECAE
:100520000B15B470F65CDD7160C3C1A83265AC7A9E
:100530007741E5A96B1181FA348DFBC1806EC460EF
:100540003007D48B67BDAA8C9C64ACDB0B248B6317
:100550006FE6BCE733A44A4CA79F4353D2BB8F43FB
:10056000C73D78683FA53DCA6984A6972DC07D31F7
:1005700034551D07B15F405C93B0BC7CB0BCE71242
:10058000EE6B2BD34D67703A9AF23C7C81FAD7D947
:10059000909181B8B1F3486A264F0CCEB09EFD4AC7
:1005A0003AAFAC5B3FBF445AA3191E4BE7366AD73C
:1005B00020AED77D3BE7FF3A862ED04A3EAF9F8ED6
:1005C00001BFF84FC1E86F74E145D3F7046A4B9D52
:1005D000EC332776D7C5E1B03B0E23ECF086D21A78
:1005E000BF3D0462B36CB2EB1705A60A8A7E831C7A
:1005F000B63709C60B703CB59381D893A05F1E082F
:10060000E2C6E5C972F1F1C1EDD5589383F865678B
:100610002E0DA9F16412E64CEA153F8C1AB6BFF60E
:10062000B9523509B0E6F7CDF1A5AA81D1816FB4F1
:10063000A9661FFC48C0B6D18B062FF6EF1F0AE64D
:10064000CE3A4A55BF6DF94DD408454BC366199251
:1006500010E1178E289116BF3CEEA3A6999210E1E7
:10066000F6CCACB8650B4366F8E3E53F2489475DFB
:100670007843D06117BD5B645408455993F6958A59
:100680004151624B51023073C787C54BA2970FE8A7
:10069000465F7E2AE13020B0FAE7CE6142576E21F4
:1006A000F37AECE325C725F367A757400002CF1C78
:1006B000807767BD70A119923175932727B682E4C0
:1006C000EB1D7848E7A55E57EF6428641BF611B26E
:1006D000039DB9180227F7BE9D55FC00D2C7AEADE9
:1006E0000BC5E9424148D832CFF60FF5BC97C69901
:1006F0004776BD89060F630C51D45EEA48A8A2561E
:100700001C7984864088417655FCC2D7FDC9C780D4
:100710006135A74320F7EB6C6613B0EC02753E4BD6
:10072000AFB95D40DAD66E2D3954C2953554257275
:10073000E178B8EBC116580F9C9BB4EA37EC3B113B
:10074000BAD58AA9E39800511C14E04096E5E9F275
:100750002122B1236078D317F87AA5A8BA20D3153F
:100760001E32E45E1548AEA9E5B833ECE8A242AC0F
:10077000BF1084538719B45F764D019D5674D95CC0
:1007800097E788EA3ABFDC4C338A16B95BFAD8425D
:10079000A7BB3C04277849812A5A7D7C23A8BAF755
:1007A0009A9FD2663E383C75F9D13026306E5A6E2B
:1007B000DC6A69325033479EA4A86466F08AE4FD7F
:1007C000276F51258B4374C98EBD8831BEEC65D22D
:1007D000CB8D5A1348168C610B11F6C666AEC3CC8E
:1007E0000CD2E19F82413F56F973EFDC3050CFB617
:1007F0007FBCD0B310AB24E4ECAD188C392D304C59
:10080000C5400DF6ACD6185D96BF5F717596229700
:100810000F02946EA6AE6D8F1ECA129B2A1CCEA923
:10082000EEFD128EFCED0933BAF41A15F69D87160B
:10083000437C7857E144C9EB1F584DC149115CB264
:1008400011A85516F1C650E98789F6CFD89C51A753
:10085000BC5B316D4D51D04CBC0D582D7B887AF965
:100860008ED6404DBBBEC4E507FCD97B6DA6425772
:100870008F02944FE42A65E2195A50E125654A60D7
:10088000C2CDA8EC052E877B95B74FA00B1B4A7FE6
:1008900092C890EE891E10D285E49F63C812BB4EA9
:1008A000B8CF0AEC184EE67CB33326C71FD2042318
:1008B000EA070C5F90BDA76A0F4AD610013C1229C7
:1008C0002E96C04DBBBEE5A783D56A3CE35BB8F26C
:1008D0005C6D1FA6F31224F6D63B1014090782E8BC
:1008E000306A99DC95019CD4683BCA9812AB772595
:1008F000157D10324598CD7ADF718A75C11CD46898
:1009000025EBBB54276F2AF7B9980327DE24A8BB31
:1009100098C284FF9B51D85350DAF588AA872FAE2E
:10092000D6EA6BDEC8D7A7286581E8B23B1D4F75B4
:100930008F9F7A748EC15F9AA89DFA03A3719B372B
:100940006DD50BF5E1A11B016AC667AAEA2C9DA42F
:10095000D26EFCDE2E7F9469E54AE001483C6BF7DD
:100960001EB60B5FF92E07C5E8AE371BBC3CD8D5C9
:100970000B919E8024F5060C0E9807962D19DC58D5
:1009800093CCFB4EEBBD0FF5AF01FAF17C438CB875
:10099000563EBE774E2BF7BBB74547CDCCA64C7223
:1009A0007B6A2A701307FDB89C983AD823675B349A
:1009B000D5140CAB771FF83D5A9F92B72CAD31DEA2
:1009C0006107B36BF73815954614485369526607AB
:1009D0006D83718A6725200FFED702D76E2CD21A3D
:1009E0000A5DFD0F74E3A436079ADFD479BFEF598F
:1009F000C04452879A6E1D0EEEDE2E1AA98F3AC998
:100A0000BAEC99782D556B14C206D5FC93534D1151
:100A10008CF8FA797CA664AE61B87B9456A63978D6
:100A20009AE5C7DF1863239CFA66BBB75A274CD1F7
:100A3000A18322B3524935B022835912001698DDA2
:100A4000ADC294F9D37B647F443E3C8B9A839C690E
:100A50006BE4DF9FED541FE55D7A0582B3DDEFFCAB
:100A60005396B02C5AF8DF9C8B164EDFDA4D0909ED
:100A700069500365D87370E886BFBB35CEB246CBEC
:100A800002005BB4E2C68F2F98AF874B4845EDCC90
:100A90001DE658D6F250259F52C7CB8A179D5BE5BD
:100AA000C8D772B752B2C498E37A173EC660A79708
:100AB000B0CF188153844CD5173203133951091024
:100AC000E377494F6201BF8C9AE0419E897436F901
:100AD00096862E961C4AB72B4A97BC9940A3E03DB8
:100AE000C8AD2FDF4F2CC469829F9B810C615CA530
:100AF0009D8C89C02CB44A334EEBA25640C0C246EE
:100B0000AF6AFC67D1805EC56D8443273F5515965B
:100B10006AA0A5DAB7FFB7756E4C49919D22A3462E
:100B2000EAED9A00E232C3D6A9712055A319EDF877
:100B30004FA7129C6687AF4EB7F0DBBFEFF0F6AF62
:100B4000EADA09FEDE385CA5A2DF9945A8E4E7925F
:100B5000AC67AA4FBF773EA24049224A1E3BAA700B
:100B60007F95AF374BFC99E2E0BAD734CE55885B1E
:100B7000841B57C4800353C92F93044DD596E57049
:100B8000A66E635D9D6CDB020AA9DA8B53DCD99AF1
:100B9000C5942C91922ADEBB8B13B9199664CCF2C2
:100BA0006439B77549E986C28662D924D38135494B
:100BB000FCA0A5A0930564B41A57CE0C900227C5DB
:100BC0007A2B5DAE3ED5DD107C14EA3A08AC724E4D
:100BD000903D3B7C862EEBD40670E6C7FB5FBD18CC
:100BE000F411A41A93C3BED9FB26482F373CD00377
:100BF000471AF76219245CF4A892207AF29E2AC55B
:100C000095A2FBA4EA85D856B770D16030A5308292
:100C100070DC7A658A363F5B0CAE547CD357847B9C
:100C20003A651881EE059B444DB8DAA2A1C915D3E7
:100C300073030E43E98E15F9BEC6C58AE5C01EC210
:100C4000379E2A26A5A0BD245FB9C1AB3448B95D43
:100C500098B46518F36319441B1116FFDCF1790889
:100C6000860F529873C492902B4709D0436C2F2063
:100C7000EBDCDAC5087B9442306AC7DA8CC376A70E
:100C8000A5CC621300603158449BF56414F511C57E
:100C9000545283D47301160EB37A29693556D4EEB3
:100CA0008A17A299249CD78FDB55B53E0C034100CF
:100CB000420061006C006C000000260352006900D5
:100CC000630068006100720064002000530075003A
:100CD00074006800650072006C0061006E006400C2
:100CE00000000403090409023B00020100A0FA0904
:100CF0000400000103010100092111010001224447
:100D00000007058103080001090401000103000038
:100D1000000921110100012249000705820320007A
:100D2000011201000200000008EDFEF0C201000106
:100D300002000105010902A10185020901A10005C6
:100D40000919012908150025019508750181020579
:100D500001093009311581257F9502750881060941
:100D6000381581257F950175088106050C0A380222
:100D70001581257F950175088106C0C0050109060A
:100D8000A101050719E029E715002501950875015E
:100D900081029501750881010507190029FF1500D9
:100DA00026FF00950675088100050819012905151B
:100DB000002501950575019102950175039101C00A
:100DC00011241FBECFEFDAE0DEBFCDBF04B603FEB5
:100DD00018C08091E4019091E501A091E601B091E5
:100DE000E7018730904BA740B04B59F41092E401D3
:100DF0001092E5011092E6011092E701E0E0F8E3BD
:100E0000099511E0A0E0B1E0E4EDFFE402C0059037
:100E10000D92A032B107D9F721E0A0E2B1E001C004
:100E20001D92A43EB207E1F70E9489150C94A927F0
:100E30000C9400004F925F926F927F928F929F92DC
:100E4000AF92BF92FF920F931F93CF93DF93CDB7D3
:100E5000DEB72C970FB6F894DEBF0FBECDBF4F8321
:100E60005887162FB72EF82E092F84E6860F893C57
:100E700008F010E084E68B0D893C08F0B12C8091DD
:100E80000001882309F46EC00E94171C80FF6AC00D
:100E9000612F110F770B880B990B0E94E32520E03F
:100EA00030E040E05EE30E946F2620912601309101
:100EB000270140912801509129010E943F252B01D3
:100EC0003C016B2DBB0C770B880B990B0E94E32523
:100ED00020E030E040E05EE30E946F262091220196
:100EE0003091230140912401509125010E943F251A
:100EF0004B015C01C301B2010E94AB25062FC50165
:100F0000B4010E94AB25F62E602F002E000C770B4B
:100F1000880B990B0E94E3259B01AC01C301B20130
:100F20000E943E256093260170932701809328013B
:100F3000909329016F2D0F2C000C770B880B990BC8
:100F40000E94E3259B01AC01C501B4010E943E252E
:100F500060932201709323018093240190932501D3
:100F6000B12C10E01987BA86FB860C8786E0FE015B
:100F70003796DE01119601900D928A95E1F729814D
:100F80003A814B815C816D817E8180E090E02C967E
:100F90000FB6F894DEBF0FBECDBFDF91CF911F918A
:100FA0000F91FF90BF90AF909F908F907F906F9028
:100FB0005F904F90089581E0809300010895089517
:100FC00088E893E10E946E160E949B150895642B99
:100FD000682B29F4ECEAF0E085919491089581E082
:100FE00090E008950E94E707089581E008950E9427
:100FF000F507089581E008950E94DB07089508959C
:101000000E94FF070895A6E0B0E0E9E0F8E00C9444
:10101000192749835A839E8330912F0189819A81B0
:1010200031111AC03E81332399F0222389F00E94A6
:101030004E0D182F682F89819A810E94380D698181
:101040007A81812F0E94FA132696E3E00C943527CB
:101050000E94430D182FF3CF0E944E0D69817A81B3
:10106000F1CFFC01262F40815181628173818481FF
:1010700095810E9403080895CF93DF93EC0161E00E
:101080000E943108BE010E94F707DF91CF910895B9
:10109000CF93DF93EC0160E00E943108BE010E9413
:1010A0000008DF91CF91089581E008950E945408CF
:1010B0000895CF93C82F0E94100C8C2F0E945608C1
:1010C0002FEF84E39CE0215080409040E1F700C086
:1010D0000000CF91089581E00E9459080E94B61D3A
:1010E000089580E00E9459080E94DA1D08950F9328
:1010F0001F93CF93DF938C0161E00E943108EC01D4
:10110000B8010E94FC07811106C080E0DF91CF91F9
:101110001F910F910895B801CE010E94C11B882331
:10112000A1F3B801CE010E94D017882371F3B80152
:10113000CE010E94A617882341F3F80185818823F8
:1011400061F0C330FCE7DF07E9F058F4C115ECE7C4
:10115000DE07A9F0C130DC47B9F0C8010E94FA07E8
:10116000D5CFCB358CE7D807A9F0CC35ECE7DE0737
:1011700071F0CA35DC4789F70E946511EECF0E94F5
:101180006B08C3CF0E946D110E947108BECF0E94F0
:101190005B11E3CF0E946911E0CF0E94ED1C0E9419
:1011A000F6080E940C1608950E94FA080E94F21C8C
:1011B0000895089581E008950895CF93DF93D82F7F
:1011C0000E94DA08C82F882319F08D2F0E94DC08AE
:1011D0008C2FDF91CF9108950895CF93C82F0E944F
:1011E000D9088C2F0E94DD08CF91089580E00E94DD
:1011F000ED0808950E940A1C0E94ED080895CF93FF
:101200000E940A1CC82F80912A018C1779F0C09384
:101210002A010E94771D60932B0170932C0180930B
:101220002D0190932E018C2F0E94ED08CF910895EF
:10123000ADE0B0E0EEE1F9E00C941A274887598759
:101240006A877B878C879D8791110E949B101F82E4
:1012500086E0FE013896DE01119601900D928A9586
:10126000E1F78D8181110DC029813A814B815C812B
:101270006D817E818F810E94E50F2D96E2E00C94B6
:101280003627CE0101960E943C088111EDCFF5CFA3
:10129000FC012481213021F4808191810E94800D04
:1012A0000895CF93DF93C82FD62F662381F00E9435
:1012B00031198C2F90E09C01215D310928303105D6
:1012C00048F46D2F0E947416DF91CF9108950E940B
:1012D0009D19EFCF0E94161AF7CFCF93C82F8823FE
:1012E00099F08CEF8C0F813A88F48C2F0E94481C67
:1012F000882329F08C2F0E948B1C0E940A118C2FAE
:101300000E94831C0E940A11CF91089580E28C0FE5
:10131000883048F4C77081E001C0880FCA95EAF7A9
:101320000E947E10EFCF83E38C0F833168F761E07A
:101330008C2F0E945109E8CF8823F1F09CEF980F81
:10134000913A28F40E948B1C0E940A11089590E2A1
:10135000980F983050F4877091E001C0990F8A95EA
:10136000EAF7892F0E948410EFCF93E3980F93310F
:1013700018F460E00E94510908951F93CF93DF9302
:10138000182FEB010E946D09209739F4812F0E94DC
:101390009C09DF91CF911F9108958FE99FE00197FC
:1013A000F1F700C000002197EFCF70E060E08933D3
:1013B00011F460E570E00E94BD090895882321F0D2
:1013C0000E947E100E940A110895882321F00E9435
:1013D00084100E940A110895B0E0A0E0E2EFF9E065
:1013E0000C9413276C01D62FC72FFC0115810681A1
:1013F00002950F700E947410E82E8823F9F0E12EF8
:101400001123E1F08C2F807F803461F080E28D0F1A
:10141000883008F18C2F807E803221F4D230D8F0D1
:101420000023C9F08091D00182FF15C082E00E94A4
:101430002F110E94741091E0E82EE926BC2EB29480
:101440009FE0B922FBE0FB15B8F1EB2DF0E0E5558C
:10145000F84D0C940427E12CF1CF0C2F0F70C07FB6
:1014600011F00295007F112399F0002359F080E2DA
:101470008D0F883010F0D11107C0802F0E947E1090
:101480000E940A118D2F5AC0802F0E948E10F8CF13
:101490008D2F0E949C09002379F080E28D0F883007
:1014A00010F0D11104C0802F0E94841003C0802F3F
:1014B0000E9494100E940A11EB2DE850FF0B349704
:1014C00020F40E940A1C0E94ED08EE2089F00E9480
:1014D000701080FD0DC0F60115820E946A100E94F6
:1014E000960CC6010E94DF0B0E946A100E94A60C97
:1014F000CDB7DEB7E9E00C942F272C2F2F70F22EFA
:10150000C07FC03219F0F29480EFF822DD2341F061
:10151000D130D1F1112309F444C00023F1F0B2CF4E
:101520008091D00182FD15C0112359F0FF2029F0D0
:101530008F2D0E947E100E940A1180E00E946D098A
:10154000BBCF80E00E949C09FF2009F4B5CF8F2D0E
:10155000ABCF112369F0011104C08F2D0E94DE0969
:10156000ABCF013009F0A8CF8F2D0E94B210A4CFCD
:101570000111A2CF8F2D0E94E5098F2D0E94BE1070
:101580008F2D0E94A21098CF112321F0063008F071
:1015900093CFE3CF053008F08FCF8F2D0E94E50960
:1015A0008BCF0023D1F3D93349F43FEF87EE93E09B
:1015B000315080409040E1F700C000008D2F0E9424
:1015C0009C097ACF612F8D2F0E94510975CF8C2FE6
:1015D0008370A1F5111170CF4D2F4295469547703C
:1015E000440F440F2D2F2F7030E0042E02C0220F25
:1015F000331F0A94E2F790E080E0D4FF09C08FE047
:1016000090E002C0880F991F4A95E2F78095909567
:10161000C695C695C370822B932BC23049F058F4FF
:10162000C13019F00E94690C47CF0E94600C44CF72
:101630000E94720C41CF0E945D0C3ECF8695112313
:1016400011F08C2F8170882309F436CF4D2F4295ED
:1016500046954770440F440F2D2F2F7030E0042E15
:1016600002C0220F331F0A94E2F790E080E0D4FF1B
:1016700009C08FE090E002C0880F991F4A95E2F7F9
:1016800080959095C695C695C370822B932BC230DA
:1016900049F058F4C13019F00E94D10C0DCF0E94CE
:1016A000C80C0ACF0E94DA0C07CF0E947E0C04CF30
:1016B000CF70112329F08C2F0E94960C8D2F4ECFC6
:1016C0008D2F0E94E5098C2F0E94A60CF5CED23FEB
:1016D00041F160F4D03FB9F0D13F81F0112309F41A
:1016E00046C00111CFCE8C2F8F711FC0D33F01F1A7
:1016F000D43FA1F78091D00182FD24C08C2F8F713F
:10170000112311F312C0112341F0053008F0D4CE9B
:101710008C2F8F710E94B80CCFCE063008F0CCCE43
:10172000F7CF8C2F8F711111CFCF0E94960CC4CEA2
:10173000112329F08C2F8F710E948A0CBDCE0E943C
:10174000850CBACE112349F0CF718C2F0E94960CD4
:1017500063E08C2F0E941111AFCE81E00E942F1107
:10176000023008F4A9CE82E00E942F11A5CE0023FA
:1017700059F0D93309F022CFEFEFF7EE23E0E15033
:10178000F0402040E1F718CF8C2F8F719DCF0F9341
:101790001F93CF93DF93EC01688179818D810E9443
:1017A0008B0D8C010E94E30C0E945C0CB801CE01F1
:1017B0000E94EC09DF91CF911F910F910895CF9373
:1017C000DF93EC018C81882399F0CE010E94770889
:1017D000811111C00E947410882351F08D818823DB
:1017E00039F08091D00182FF03C082E00E942F1166
:1017F000DF91CF910895CE010E94C70BCE010E94C8
:101800004808F6CF0E949B100E940A110E94321ACB
:101810000E94161A08950E94931C0E94020C0895BB
:101820000E948B100E940B0C089592959F70963029
:1018300091F058F4925F9F70923058F4803F19F005
:1018400030F4883E30F481E008959A5FF4CF843F0D
:10185000D1F380E00895883EB0F3813FD1F7F3CF14
:10186000FC012481222339F0808191810E94800D26
:101870000E94150C089580E00895A6E0B0E0E3E42E
:10188000FCE00C941A272696E2E00C943627A7E099
:10189000B0E0EDE4FCE00C941A272796E2E00C940B
:1018A000362708950E94510C08950E94520C90937F
:1018B000370180933601089508950E94550C0895CC
:1018C0002091360130913701822B932B0E94550CC9
:1018D00008952091360130913701822393230E948D
:1018E000550C0895209136013091370182279327B6
:1018F0000E94550C08950E94DF0708950E947B0CFA
:101900009093350180933401089590E080E00E9427
:101910007E0C089521E030E0A90102C0440F551F5C
:101920008A95E2F7CA010E947E0C089521E030E01A
:1019300002C0220F331F8A95E2F780913401909103
:101940003501822B932B0E947E0C089521E030E01C
:1019500002C0220F331F8A95E2F7209530958091BF
:10196000340190913501822393230E947E0C0895C7
:1019700021E030E002C0220F331F8A95E2F7809108
:10198000340190913501822793270E947E0C08959F
:101990002091340130913501822B932B0E947E0CD3
:1019A00008952091340130913501822393230E94C0
:1019B0007E0C0895209134013091350182279327C0
:1019C0000E947E0C08950895262F277091E001C093
:1019D000990F2A95EAF723E0769567952A95E1F71E
:1019E000660F771F660F771FFA01E60FF71F50E0AB
:1019F00040E0682F70E08191DF0111979B01042E78
:101A000002C0369527950A94E2F721702195282780
:101A1000292328272C934F5F5F4F4430510559F7F6
:101A20000895A82FA77023E0969587952A95E1F74A
:101A3000880F991F880F991FFB01E80FF91F50E0CD
:101A400040E080E0219130E00A2E02C036952795D3
:101A50000A94E2F721703327042E01C0220F0A9462
:101A6000EAF7822B4F5F5F4F4430510559F70895D5
:101A7000262F892B39F440E351E070E060E0822F9B
:101A80000E94E40C0895892B39F460E371E090E042
:101A900080E00E94110D089580E00895B0E0A0E07C
:101AA000E4E5FDE00C9413277C01009134011091D2
:101AB00035018091360190913701082B192BCFE029
:101AC000D0E0CC24C394D12CBC2EC6010C2E02C075
:101AD000880F991F0A94E2F780239123892B49F4F8
:101AE000219790F7B12C8B2DCDB7DEB7E9E00C94A0
:101AF0002F27B7018C2F0E940314019789F3F3CF8E
:101B0000CF93DF93EC010E944E0DBE010E9403149F
:101B1000DF91CF9108951F93CF93DF93EB019091C5
:101B20002F01992339F0CB010E94800DDF91CF91D5
:101B30001F910895882369F0CB010E944E0D182F44
:101B4000682FCE010E94380DBE01812F0E94031420
:101B5000EDCFCB010E94430D182FF6CF1F93CF93EB
:101B6000DF93C091380117E0809139018C1304C0D4
:101B7000DF91CF911F910895D0E01C9FF0011D9F30
:101B8000F00D1124E65CFE4F2081318142815381AA
:101B90006481758186810E94470C2196C770E4CFCD
:101BA000209172013091730140917401509175013F
:101BB0006091760170917701809178010E94470CC5
:101BC0000895CF93DF9380917801807F09F04DC015
:101BD00080917701882309F448C0E0913801509141
:101BE0003901C0917301D0917201609174017091BB
:101BF000750147E05E17C9F18E2F90E0E49FF00178
:101C00001124E65CFE4F2481222391F1489FF001CC
:101C1000499FF00D1124DF01A65CBE4F11962C9157
:101C200011972C1325C02C912D1322C015962C91A1
:101C3000159721111DC012962D913C91261B370B33
:101C4000283C3105A8F4809178018F7080618093E1
:101C50007801E05CFE4F80818F708061808382E735
:101C600091E00E94DF0B0E94AE0DDF91CF910895AD
:101C7000FC013196E770BECF482F2091380190913A
:101C8000390157E0291302C080E0089530E0529FE7
:101C9000F001539FF00D1124E65CFE4F8181681323
:101CA00006C08081481303C085818111EECF2F5F6C
:101CB0003F4F2770E7CFA4E1B0E0E1E6FEE00C94EF
:101CC00010278C0186E0F801DE011F9601900D922D
:101CD0008A95E1F7F8018481E58092E7A92E91E0E9
:101CE000B92E9091760191111FC08823D1F0EE207A
:101CF000A9F0C8010E94300CF82E882379F087E003
:101D0000F801D50101900D928A95E1F7C5010E9475
:101D100048090E94E10D0E94D00D5FC0C8010E94D9
:101D2000DF0BFF24F39459C0C080D1808280938060
:101D3000F09077012091740130917501A401421B4C
:101D4000530BFF2009F4F9C0483C510508F0A7C027
:101D5000882309F442C09091730180917801282F63
:101D6000207F09F05CC09D1116C090917201C912CC
:101D700012C0E1104EC08F708061809378010E9484
:101D8000D00D82E791E00E94DF0B80917801F8018D
:101D90008683F12C22C0E1103CC06D2D8C2D0E9459
:101DA0003C0E6D2D8C2D0E943C0EE82E8111F1CF42
:101DB000CF86D88A8F8598890E94800D292F2295F9
:101DC0002F70243078F49F702230A8F09923B9F056
:101DD000F8019681907F99F4FE2C8F2D6496ECE0AB
:101DE0000C942C272A5F2F70223068F0C8010E94C3
:101DF000DF0BEF2CF1CF992311F0882369F3805E7C
:101E0000883050F3F3CF803F38F3815F833070F731
:101E1000E3CF80917801816080937801BACF9D11E2
:101E200013C090917201C9120FC0E1100DC08683DA
:101E3000C8010E94DF0B87E0F801A2E7B1E0019042
:101E40000D928A95E1F767CFC8010E94300C882374
:101E500009F464CFEE2009F461CF809178018032DB
:101E600088F02091720130917301398728879B8611
:101E70008A86909176019C871D868E87CE01089672
:101E80000E94DF0B87E0F801A2E7B1E001900D921C
:101E90008A95E1F70E94E10D0E94D00D42CF90910A
:101EA0007801292F207FA1F4682D9A8A898AA601BA
:101EB0007A899E2D0E943D0C82E791E00E94DF0B03
:101EC00087E0F50111928A95E9F70E94D00D61CF64
:101ED000882309F482CF809173018D1110C0809105
:101EE0007201C8120CC0E1100AC09683C8010E949A
:101EF000DF0B87E0F50111928A95E9F76ECFC801F3
:101F00000E94300C882309F409CFEE2009F406CF93
:101F100080917801803208F4B5CF20917201309120
:101F200073013A8329839C828B82909176019D83F1
:101F30001E828F83CE010196A3CF483C5105B8F590
:101F4000882309F4EECEFE2CEE2009F4E7CE809132
:101F500073018D111EC080917201C8121AC0809148
:101F6000780180FD0DC0982F907F51F08683903FBF
:101F700009F45ECF982F907F905F8F70892B57CF99
:101F800087E0F801A2E7B1E001900D928A95E1F7B0
:101F900024CFC8010E94300C811174CF8091780148
:101FA000816080937801C8010E94DF0B16CF682DF5
:101FB0009A8A898AA6017A899E2D0E943D0C87E023
:101FC000F50111928A95E9F7A6CEAEE0B0E0EBEE0E
:101FD000FFE00C941927288739874A875B876C872D
:101FE0007D878E87CE0108960E945B0E8823B1F014
:101FF0006C85662341F0288539854A855B857D851A
:102000008E850E94470C17E080913801909139012C
:1020100089133DC02E96E3E00C94352787E0FE013E
:102020003896DE01119601900D928A95E1F78C8524
:10203000882349F32091390130E0C9010196877066
:102040009927409138014817190699F097E0929F17
:10205000D001939FB00D1124A65CBE4FFE013196B6
:1020600001900D929A95E1F7809339010E94AE0D8F
:10207000CACF0E94100C109239011092380187E0EB
:10208000E2E7F1E0DF011D928A95E9F7BCCF819F7D
:10209000C0011124865C9E4F0E945B0E882309F4C8
:1020A000B9CFE09138011E9FF0011124E65CFE4F8C
:1020B00020813181428153816481758186810E94B2
:1020C000470C8091380190E00196877099278093A2
:1020D00038019ACF809181018695869586950895DD
:1020E000809181018770089590918101977081E0BE
:1020F00009F480E0089580918D01089590918D01FB
:10210000892B80938D010895809590918D0198235E
:1021100090938D01089510928D01089590918C01F6
:10212000892B80938C010895809590918C01982340
:1021300090938C01089510928C01089508950E9447
:102140009E10089590918201292F282331F08095C7
:102150008923809382010E949F10089508950E9410
:10216000AE10089590918301292F2823281729F074
:10217000982B909383010E94AF1008959091830152
:10218000292F282331F080958923809383010E9491
:10219000AF10089580918301882329F01092830164
:1021A00080E00E94AF1008950F931F93CF93DF93A9
:1021B0000091010110910201C0918D0180918C016B
:1021C000C82B80918301882331F0C82B0E94331CD7
:1021D00081110E94CA10F801C083C0910101D09101
:1021E000020148E050E069E771E0CE010E9441271A
:1021F000892B59F088E0FE01A9E7B1E001900D922A
:102200008A95E1F7CE010E941A1CDF91CF911F91B0
:102210000F9108950E94D410089508950E940D1101
:1022200008959091D00192FF11C098E0899F90018C
:102230001124622B609381010E94960C8091810190
:102240008695869586950E940E1108950E94960C9B
:1022500008951092810180E00E940E1108959091DE
:1022600081018095892380938101282F277069F44B
:10227000891759F09091D00192FF07C086958695F5
:1022800086950E94A60C0E94291108959091D00174
:1022900092FB222720F9281769F080FB92F990938E
:1022A000D0018091CF019091D0010E948E1182E0E7
:1022B0000E942F1108958091D00182FB882780F918
:1022C00091E089270E944611089581E00E944611FD
:1022D000089580E00E94461108956FEF7FEF90E02F
:1022E00080E00E949327089590E080E00E945F279D
:1022F00021E0863E9E4F09F020E0822F089582E083
:1023000090E00E945727089583E090E00E945727AD
:10231000089584E090E00E945F270895BC0184E066
:1023200090E00E9493270895AB01BC018FE090E0FC
:102330000E9487270895AB01BC0183E190E00E94D1
:102340008727089560E070E0CB010E949B110895FB
:1023500060E070E0CB010E9494110E94A2110895E8
:10236000A8E0B0E0E6EBF1E10C941A2766EE7EEF10
:1023700090E080E00E94932760E082E090E00E947D
:10238000752781E090E0909337018093360161E0FA
:1023900083E090E00E94752760E074E184E090E0C3
:1023A0000E94932760E086E090E00E94752760E03D
:1023B00087E090E00E94752740E050E0BA0188E095
:1023C00090E00E94872760E084E290E00E947527F9
:1023D00060E087E190E00E94752760E08CE090E08B
:1023E0000E94752760E08DE090E00E9475271982B9
:1023F0001A821B821C821D821E821F82188648E060
:1024000050E068E170E0CE0101960E94652740E04F
:1024100050E0BA0180E290E00E9487270E94A81154
:102420002896E2E00C9436270E94B0110895682F98
:102430008EE090E00E9475270895A6E0B0E0E3E208
:10244000F2E10C9418270E946B1D8C0180918E0183
:1024500090918F018017910781F019821A820E9452
:102460006B1D682F49815A81792F80E090E00E948E
:10247000180910938F0100938E012696E4E00C94C6
:1024800034270E94771D6093990170939A0180937D
:102490009B0190939C0160939501709396018093AA
:1024A00097019093980108950E94771D6093990178
:1024B00070939A0180939B0190939C01609391018A
:1024C00070939201809393019093940108950895DD
:1024D00008950E946712089508950E946C1208954D
:1024E00089EF94E10E9496150E9468120E94691279
:1024F000089581E008950E94791208950E9479124A
:102500000895089508950E9481120E9482120895EC
:102510000E947411811102C00E9414120E947F1146
:1025200080939D010E9489119093D0018093CF01E7
:102530000E94841190E00E945D0C80913401909182
:1025400035010E947B0C08950E94621D0E941015A7
:102550000E9488120E94EC080E94B7150E946D121A
:102560000895A6E0B0E0E7EBF2E10C9418270E9492
:102570007B1281110FC00E941D120E940C16811146
:102580000E9454120E946F1A0E94FF082696E4E0EF
:102590000C9434270E941C151091900180E00E9439
:1025A0000315181741F380919D0181FD0E940915C3
:1025B0000E947E12082F80E00E940315182F809140
:1025C0009001912F9827181303C00E944112D5CF74
:1025D00090FF0FC0002369F019821A820E946B1DC0
:1025E000682F49815A81792F81E0912F91700E9443
:1025F000180910939001E9CF1F93CF93DF930E94A6
:102600000814EC01C11582E5D80708F03FC0C115D8
:1026100090E5D90708F0C2C0C83ED105C0F4C03E5D
:10262000D10580F4C53AD10548F4C430D10550F441
:10263000C130D10539F0D0E0C0E004C0CD3CD105B7
:10264000D0F3D065CE01DF91CF911F910895C115D0
:1026500080E4D80708F053C0C11590E2D90708F00C
:10266000B7C0C11581E0D80730F38D2F0E94AA149E
:10267000182FCE0199270E940814C12FD0E0DC2F1B
:10268000CC27CC27DF71C82BD92BDCCFC03892E503
:10269000D907A8F4C03682E5D80708F063C0C03473
:1026A00092E5D90708F049C0C03282E5D80788F121
:1026B000CF71D0E0DC2FCC27C16FD06AC3CFC03C34
:1026C00092E5D90780F48C2F8F71C03AD24508F477
:1026D0005EC00E94AA14C82FD0E0DC2FCC27CC27E4
:1026E000DF71D062AFCFC03E82E5D80708F0A3CF3C
:1026F000DC2FCC27CC27DF71C06FD06AA3CFCE01EF
:1027000099270E940814CC27DF70C82BD92BD06AD8
:1027100099CF2C2F2695269590E2299F9001112480
:102720008C2F8370C1E0D0E002C0CC0FDD1F8A95F2
:10273000E2F7C22BD32BDD6885CF2C2F269526956B
:10274000277080E2289F900111248C2F8370C1E0B4
:10275000D0E002C0CC0FDD1F8A95E2F7C22BD32B4D
:10276000DC6870CF2C2F26952695277090E2299F44
:10277000900111248C2F8370C1E0D0E002C0CC0FF7
:10278000DD1F8A95E2F7C22BD32BDA685BCFC82F07
:10279000D0E0DC2FCC27C46FD06A54CF8C2F8F7140
:1027A0000E94AA1455E0D695C7955A95E1F7CF70C7
:1027B000D0E0DC2FCC27282F30E084FF05C044E098
:1027C000220F331F4A95E1F7C22BD32BD0693ACFA2
:1027D0008D2F8F710E94AA14182FCE0199270E9465
:1027E0000814C12FD0E0DC2FCC27CC27DF71C82BF9
:1027F000D92B77CF672B21F440E00E94F207089590
:1028000090E080E008950E94FA130E94FC1208955F
:1028100082389105B9F1B0F48133910509F47DC096
:1028200048F48932910509F46DC08A32910509F4A2
:102830007BC008958533910509F45FC08933910504
:1028400009F10895833E9105D9F138F4803E910550
:1028500029F1823E910579F10895863E9105D9F1DD
:10286000873E910509F43EC0843E910541F52091D3
:10287000D00121FF24C08091CF0184FD19C087EED3
:1028800090E008952091CF01237009F05AC0209163
:10289000D00123FF14C089E290E008952091CF0178
:1028A00020FD38C03091D00130FF09C024FF43C063
:1028B00090E080E008952091CF0122FDF7CF0895A8
:1028C0002091CF0122FD3AC03091D00130FD39C0B6
:1028D00024FFF5CFEDCF2091CF0123FFF0CF24FDD2
:1028E000E7CFCDCF2091CF0123FD2EC03091D00175
:1028F00031FFEECF84EE90E008952091CF0125FFC7
:10290000DECFC9CF2091CF0125FD21C02091D0017C
:1029100023FFD5CF89E390E0D2CF2091CF0126FFCE
:10292000CECF8AE290E008952091CF0126FFC7CF55
:1029300081E390E0089583EE90E0089582EE90E0C8
:10294000089580EE90E0089586EE90E0089585E386
:1029500090E008959091CF0192FF10C041E0282FA0
:102960002471243009F040E031E0282F287128300C
:1029700009F030E0431711F02CE0822793FF10C0DC
:1029800041E0282F2471243109F040E031E0282F64
:102990002871283109F030E0431711F02CE082272C
:1029A0003091D00130FF10C051E0282F217121302B
:1029B00009F050E041E0282F2871283009F040E06C
:1029C000541711F029E0822731FF10C041E0282F71
:1029D0002171213109F040E031E0282F28712831A0
:1029E00009F030E0431711F029E0822794FD877E3B
:1029F000089580E0089508950E94FB1408950895B5
:102A00000E94FF140895E82FF0E0EE52FE4F8081FF
:102A1000089508950895860F911DFC011082089570
:102A20000E940A151092D2011092D10181E00E94F9
:102A300041150E94FC140895A1E0B0E0E2E2F5E146
:102A40000C941927198260E0CE0101960E940B15A3
:102A50009091D101898121E0981301C020E0981361
:102A60008093D10141E062ED71E081ED91E00E943F
:102A70004215182F0E940015812F2196E3E00C9437
:102A800035270895B0E0A0E0E8E4F5E10C941427C0
:102A90006C017B01042FC22F222379F081E0809307
:102AA000A0010E946B1D90939F0180939E0180E086
:102AB000CDB7DEB7E8E00C943027D091A001DD233C
:102AC000B1F380919E0190919F010E94831D059713
:102AD00070F310E0A801B601C7010E944127892BBD
:102AE00031F0A801B601C7010E944E27CD2F1092E8
:102AF000A0018C2FDDCF0E9414200E94A4120E94FE
:102B0000212008950E9426200E94B1120E94402098
:102B100008950E94041D0E94FA1F0E9470120E94D4
:102B20007B150E9482150E948312FBCF9093210196
:102B30008093200108950895ACE0B0E0E2EAF5E169
:102B40000C941A270E941A0780E090E02C96E2E08D
:102B50000C94362721E030E001C0220F4A95EAF7B5
:102B6000662311F0822B0895209582230895E09129
:102B70001701F091180109950E94E0070E949B152A
:102B80000895CF9361EA71E088EA91E00E949E1C6B
:102B9000C82F882321F088EA91E00E94251C90919B
:102BA000A90186E0E8EAF1E0DF01282F1D922A95CD
:102BB000E9F79093A901A1EAB1E001900D928A95FD
:102BC000E1F781E0C11103C0911101C080E0817083
:102BD000CF910895ACE0B0E0E0EFF5E10C941A2756
:102BE0004F8358877A878B879C876195698786E0B2
:102BF000FE013796DE01119601900D928A95E1F75C
:102C000029813A814B815C816D817E8180E090E0F9
:102C10002C96E2E00C943627A6E0B0E0E2E1F6E183
:102C20000C941A27E0911901F0911A014091A80122
:102C30005091A9016091AA017091AB018091AC0102
:102C40009091AD010995F42FE52FCB012093A801B8
:102C50003093A901F093AA01E093AB016093AC011A
:102C60009093AD01A9016F2F7E2F0E94EA15F42FDA
:102C7000E52FCB012093A8013093A901F093AA017D
:102C8000E093AB016093AC019093AD01A9016F2F6C
:102C90007E2F0E949C152093A8013093A901409398
:102CA000AA015093AB016093AC017093AD010E94F7
:102CB000401A8091A901832B8093A9010E94C1151C
:102CC000811109C08091A7011092A70181702696F9
:102CD000E2E00C94362781E090E0F6CFE0911B0112
:102CE000F0911C01099508959C01215D310928305E
:102CF000310550F44FE2480F8091A9010E94AA15B6
:102D00008093A9010E94C1150895ACE0B0E0EBE802
:102D1000F6E10C941A274F8358878B879C870E9473
:102D20006C17FC0160382FEF72072CF19B016038A3
:102D3000710514F02FE730E0E038FF4FF4F08038F1
:102D4000910514F08FE790E029878A8786E0FE01DD
:102D50003796DE01119601900D928A95E1F729814F
:102D60003A814B815C816D817E8180E090E02C9680
:102D7000E2E00C94362720E8DFCF80E8E5CF28E0BA
:102D800030E043E060E087EF0E94ED1D0895CF93AF
:102D9000DF93D82FC62F0E94BF168D2F80680E9408
:102DA000651E8C2F0E94651E0E94951E8FED91E07E
:102DB0000197F1F700C00000DF91CF910895CF9304
:102DC000C82F0E94BF168C2F8F770E94651E0E940D
:102DD0007D1EC82F0E94951E8AE68A95F1F700C0D5
:102DE0008C2FCF9108958FE00E94DF1628EC829FF0
:102DF000C0011124089568EC883C910548F068E012
:102E0000893020E2920720F468EC70E00E94DC2612
:102E10008FE00E94C7160895CF93DF93879A0E9490
:102E2000E51D6AE58AE30E94C7162FEF80E792E06E
:102E3000215080409040E1F700C0000082E00E94F5
:102E4000DF1683E00E94DF1684E00E94DF1685E033
:102E50000E94DF1686E00E94DF1662E089E30E948E
:102E6000C7166DE183E10E94C716EFE3FCE93197D5
:102E7000F1F700C0000068E183E10E94C7160E94DC
:102E8000BF1682EE0E94651EF0E5FA95F1F7CEEAD4
:102E9000D0E0FE0184910E94651EF0E5FA95F1F7FD
:102EA00021962CE0CC3AD207A1F70E94951E8FE321
:102EB0009CE90197F1F700C0000080E20E94DF1654
:102EC000682F607F80E20E94C71680E496E00E942F
:102ED000FB16DF91CF9108950F931F93CF93DF934C
:102EE0000E94BF1680E50E94651E8FE891E0019761
:102EF000F1F700C000000E947D1E87FF22C00E94E3
:102F00007D1E0E947D1ED82F0E947D1E182F0E94BC
:102F10007D1EC82F0E947D1E20E0312F89010D2BC0
:102F200020E0382FC9018C2BEC0182E00E94651E45
:102F30000E94951EB801CE01DF91CF911F910F9194
:102F40000895D0E0C0E010E000E0EFCFCF93DF9332
:102F5000EB0186319C4711F50E947B109D819923DE
:102F600099F08A7A91E009F490E09093AE01811192
:102F700009C089E20E94831C0E940A1180E0DF914F
:102F8000CF91089585E3F6CF8091AE01811104C001
:102F900089E20E948B1CF0CF85E3FBCF81E0EFCF6D
:102FA000CF93DF93EC01FB018581882309F4D2C024
:102FB0009E0130572332310508F0B2C00E948911BA
:102FC0009093D0018093CF01FE01E150F047E232AF
:102FD000F10520F4E954F84D0C9404278091CF01B9
:102FE00081608093CF0193C08091D00188608093ED
:102FF000D0018DC08091CF018260F3CF8091CF014D
:103000008460EFCF8091CF018860EBCF8091D001B9
:103010008160EDCF8091D0018260E9CF8091CF01B6
:103020008061DFCF8091CF018062DBCF8091CF01C3
:103030008064D7CF0E94100C8091CF018068D1CFDF
:103040008091CF018C60CDCF8091D0018360CFCFB4
:103050008091CF018E7FC5CF8091D001877FC7CF70
:103060008091CF018D7FBDCF8091CF018B7FB9CF74
:103070008091CF01877FB5CF8091D0018E7FB7CF70
:103080008091D0018D7FB3CF8091CF018F7EA9CF6A
:103090008091CF018F7DA5CF8091CF018F7BA1CF74
:1030A0000E94100C8091CF018F779BCF8091CF0130
:1030B000837F97CF8091D0018C7F99CF8091CF0172
:1030C00082FB992790F921E0922790FB82F990FBEF
:1030D00083F987CF8091D001982F909591708E7F42
:1030E000892B90FB81F983CF9091CF01892F8F7B22
:1030F00096FF806476CF0E94100C9091CF01892FAB
:1031000097FB87F980586DCF81E00E94171280915C
:10311000CF019091D0010E948E110E94100C80E08E
:10312000DF91CF91089580E0F0CF9091CF01892F6A
:103130008F7E94FF806155CF9091CF01892F8E7F34
:1031400090FF81604ECF9091D001892F877F93FFB0
:1031500088604DCF81E0E4CF282F35EB2303C001F9
:10316000112497FF04C080589109892F0895805831
:103170009F4FFBCF8091B50180FF0DC0609108018A
:1031800070E0660F771F6038710570F56115710585
:1031900069F1862F089581FF07C06091080184E0DE
:1031A000689FB0011124EFCF6091080182FD0AC031
:1031B0008091B4018823A9F0209107016091080152
:1031C000821710F088E0ECCF869FC001112433E015
:1031D000880F991F3A95E1F7622F70E00E94F02660
:1031E000D2CF68E070E0D5CF8FE7089581E00895F1
:1031F0008091B50180FF0CC06091040170E075956D
:103200006795759567956115710549F1862F089544
:1032100081FF06C06091040170E075956795F3CF5A
:103220006091040182FD0BC09091B3019923A1F03C
:103230006091030180910401961738F0682F70E0C7
:103240006038710500F38FE70895899FC00111244C
:1032500070E00E94F026F4CF61E070E0D7CF81E00B
:1032600008959091B8012091B901922B2091BB0152
:10327000922B2091BA01922B31F098E09093B401F7
:1032800091E09093B3018D3C31F40E94BA1881957E
:103290008093B90108958E3C19F40E94BA18F8CFB2
:1032A0008F3C31F40E94BA1881958093B80108953B
:1032B000803D19F40E94BA18F8CF893D29F40E9484
:1032C000F8188093BA0108958A3D21F40E94F818F5
:1032D0008195F7CF8B3D31F40E94F818819580934A
:1032E000BB0108958C3D19F40E94F818F8CF9FE2B5
:1032F000980F983070F4815D990B21E030E001C0A7
:10330000220F8A95EAF78091B701822B8093B7014B
:1033100008958D3D31F48091B50181608093B501B0
:1033200008958E3D21F48091B5018260F7CF8F3DE5
:10333000B9F78091B5018460F1CF4091B8018D3C1F
:1033400059F48091B90187FF0DC01092B901411164
:103350000BC01092B40108C08E3C81F48091B90179
:1033600018169CF3442381F08091BA019091BB011F
:10337000892B09F05AC01092B30108958F3C49F48B
:1033800047FFF0CF1092B8018091B9018111ECCFC5
:10339000E0CF803D19F41416ACF3E4CF9091BA015C
:1033A000893D29F41916F4F61092BA01DBCF8A3D53
:1033B00019F497FFD7CFF8CF9091BB018B3D29F43B
:1033C00097FFD0CF1092BB01CDCF8C3D19F41916C9
:1033D000CCF3C8CF9FE2980F983090F4815D990BA1
:1033E00021E030E0B90102C0660F771F8A95E2F74D
:1033F000CB0180959091B70189238093B701B2CF1B
:103400008D3D31F48091B5018E7F8093B501AACFB7
:103410008E3D21F48091B5018D7FF7CF8F3D09F06E
:10342000A1CF8091B5018B7FF0CF08950E946B1DD5
:103430009C019091B8018091B901982B21F03093B3
:10344000B2012093B1019091BA018091BB01982BF8
:1034500021F03093B0012093AF0186EB91E00E9400
:10346000251C089586E0E6EBF1E0DF011D928A95C8
:10347000E9F71092B4011092B3011092B5010895CA
:10348000A6E0B0E0E6E4FAE10C941A2786E0E6EB69
:10349000F1E0DE01119601900D928A95E1F7298104
:1034A0003A814B815C816D817E8180E090E026963F
:1034B000E2E00C943627FC01828181110EC08381E9
:1034C00081110BC08481811108C091E08581811137
:1034D00001C090E0892F8170089581E0FCCFA6E0C3
:1034E000B0E0E5E7FAE10C94192786E0E6EBF1E0BD
:1034F000DE01119601900D928A95E1F71092B801C4
:103500001092B9011092BA011092BB018B819C817B
:10351000892B89F08091B1019091B2010E94831DA5
:10352000AC019091B4019923C9F1809109018417EC
:10353000150608F440C08D819E81892B91F0809101
:10354000AF019091B0010E94831DAC019091B30135
:10355000992309F46AC0809105018417150608F4BF
:1035600072C0BE016F5F7F4F86EB91E00E949E1C90
:10357000811105C086EB91E00E945B1A81110E94C7
:10358000161A86E0FE013196A6EBB1E001900D928D
:103590008A95E1F72696E3E00C94352720910A01FD
:1035A0008AE0289F900111242417350720F69F5F99
:1035B0009093B40102C09F3FD1F71B81112359F0B2
:1035C0000E94BA189FEF11160CF491E0899F802D8C
:1035D00011248093B8011C81112359F00E94BA185C
:1035E0009FEF11160CF491E0899F802D1124809398
:1035F000B9018091B801882309F49DCF1091B901D8
:10360000112309F498CF0E94AC18882351F08093BD
:10361000B801812F0E94AC18882329F08093B9014A
:103620008ACF81E0F4CF81E0F9CF209106018AE0D2
:10363000289F900111242417350708F092CF9F5F2F
:103640009093B30102C09F3FD1F71D81112359F020
:103650000E94F8189FEF11160CF491E0899F802DBD
:1036600011248093BA011E81112359F00E94F81889
:103670009FEF11160CF491E0899F802D1124809307
:10368000BB018091BA01882309F46BCF1091BB0173
:10369000112309F466CF0E94AC18882351F080935F
:1036A000BA01812F0E94AC18882329F08093BB01B6
:1036B00058CF81E0F4CF81E0F9CF0F931F93CF93E0
:1036C000DF93C42FD22FFC0185818823C9F040935A
:1036D000BE010E946B1D9093BD018093BC0180E2EE
:1036E0008C0F883040F4C77081E001C0880FCA9504
:1036F000EAF70E94DE09DF91CF911F910F910895A3
:103700001091BE01141332C08091BC019091BD0193
:103710000E94831D883C910548F5C0E2CD0F1D171E
:10372000B9F080E2810F883040F4177081E001C069
:10373000880F1A95EAF70E94E509C83048F481E03D
:103740009D2F977001C0880F9A95EAF70E94DE09B5
:10375000802F0E94D509C83070F6D77081E001C073
:10376000880FDA95EAF70E94E509C5CF80E28C0F51
:10377000883008F6C77081E001C0880FCA95EAF763
:10378000F2CF0F93DB0188519C4787309105A0F55C
:10379000FC01E752F84D0C94042706E221EE41EEBD
:1037A0006AE17CE7CD010E945D1B80E00F910895E6
:1037B00007E225EE45EE6BE17CE7F4CF06E221EE71
:1037C00040EE68E17CE7EECF07E225EE44EE69E1EA
:1037D0007CE7E8CF06E221EE42EE6CE17CE7E2CF47
:1037E00007E225EE46EE6DE17CE7DCCF08E221E062
:1037F00045EE6EE17CE7D6CF15968C91882319F0C3
:103800001092BE01D3CF81E0D1CF9093C0018093BD
:10381000BF010895E091BF01F091C001309729F0F8
:103820000190F081E02D0995089580E008950E94AF
:103830000A1C0895E091BF01F091C001309721F07A
:103840000280F381E02D09950895E091BF01F09188
:10385000C001309739F022E0DC012C930680F7811B
:10386000E02D0995089540910101509102019A01BE
:103870002E5F3F4F485F5F4F80E02417350709F404
:103880000895F90191919F019923B9F38F5FF5CFC5
:10389000882371F02091010130910201F9013296E3
:1038A000285F3F4F9191981729F0E217F307D1F75E
:1038B00080E0089581E008959C01FC0132969FEF1D
:1038C00080E04191461751F09F3F19F4411101C02A
:1038D000982F8F5F8630A9F79F3F09F40895290F2D
:1038E000311D97FD3A95F90162830895FC013296E6
:1038F00008962191261303C0DF0111971C92E81747
:10390000F907B9F70895682F80910101909102019C
:103910000E945C1C0895682F809101019091020122
:103920000E94761C0895E0910101F0910201329607
:1039300086E0DF011D928A95E9F70895DC01FB011D
:1039400011969C9111978181981322C012968C91A7
:103950001297882319F0928189131AC013968C91BB
:103960001397882319F09381891312C015968C91AF
:103970001597882319F0958189130AC014969C9194
:10398000992321F081E02481291303C080E001C044
:1039900081E08170089508950E94CB1C08958111E3
:1039A00006C081E08093C1010E94CC1C089582E092
:1039B000F9CF83E08093C1010E94CC1C08950E943E
:1039C000CF1C089581E08093C1010E94CC1C089512
:1039D0000E94E21C0895089508950E94EC1C089529
:1039E000089508950E94EB1C08950E94F01C0E9407
:1039F0001C150E94F11C80E00E94031591E08111CA
:103A000001C090E0892F089585B7806885BF85B78C
:103A1000806885BF08951F921FB61F9211248F934F
:103A20009F93AF93BF938091C201811113C0809186
:103A3000D3019091D401A091D501B091D6014196C6
:103A4000A11DB11D8093D3019093D401A093D50102
:103A5000B093D601BF91AF919F918F911F901FBEE0
:103A60001F9018958091DB01843031F10E94CD08C0
:103A70001092C20188E190E020E40FB6F894A89576
:103A8000809360000FBE2093600083B7817F8460C5
:103A900083BF83B7816083BF7894889583B78E7F17
:103AA00083BF0FB6F894A8958091600088618093D9
:103AB0006000109260000FBE08950E94100C0E94DA
:103AC000D408089582E084BD93E095BD9AEF97BD38
:103AD00080936E0008952FB7F8948091D301909150
:103AE000D401A091D501B091D6012FBF08952FB771
:103AF000F8946091D3017091D4018091D501909197
:103B0000D6012FBF08959C014FB7F8948091D3013F
:103B10009091D401A091D501B091D6014FBF821BE5
:103B2000930B089578941F921FB61F9211248F93C0
:103B30009F93AF93BF938091D3019091D401A091B3
:103B4000D501B091D6010196A11DB11D8093D3017D
:103B50009093D401A093D501B093D601BF91AF91BA
:103B60009F918F911F901FBE1F90189581E08093A9
:103B7000E00080E28093D8001092C9008FE19EE4BB
:103B80000197F1F700C0000087E090EBDC01809323
:103B9000E4019093E501A093E601B093E70188E189
:103BA0009CE00FB6F894A895809360000FBE9093A8
:103BB0006000FFCF88E19CE00FB6F894A895809351
:103BC00060000FBE90936000FFCF289A219A229A3E
:103BD00023982B9880E58CBD089590910B019F3F11
:103BE00009F071C08F3F09F46EC0611144C010929A
:103BF000C4019091C401423009F441C0433009F43A
:103C000042C094604130E1F141E050E04217530777
:103C1000E0F19091C4014031510509F452C0C0F562
:103C20004230510509F446C04830510509F446C0F8
:103C30009CB52091C401922B9CBD9091C301992306
:103C400019F09DB591609DBD80930B01E82FE29521
:103C5000EF70F0E031A1282F2F7081E090E001C0DB
:103C6000880F2A95EAF7382B31A392A180958923F2
:103C700082A381E0089590E29093C401BACF986046
:103C80009093C401C1CF9C60FBCF440F551FBECFA2
:103C90004034510549F04038510541F0403251055A
:103CA00039F621E02093C301926001C093609093A4
:103CB000C401BECF91E09093C301BACF21E020931D
:103CC000C3019160F4CF80E00895CF93DF938EBD60
:103CD0000E946B1DEC010DB407FE05C08EB590E08F
:103CE000DF91CF9108950E946B1D8C1B9D0B843634
:103CF000910588F38EEF9FEFF3CFCF93DF931EBC38
:103D00000E946B1DEC010DB407FE05C08EB590E05E
:103D1000DF91CF9108950E946B1D8C1B9D0B843603
:103D2000910588F38EEF9FEFF3CF80910B018F3FCA
:103D300029F1E82FE295EF70F0E041A18F7021E0CA
:103D400030E0B90102C0660F771F8A95E2F7CB0118
:103D5000942F982B91A392A1892B82A38FEF80930C
:103D60000B018DB58E7F8DBD9CB58091C401809572
:103D700089238CBD1092C4011092C30108958091D3
:103D8000CD010895089508959B01BA019091DB013A
:103D90009430E9F48F708093E9009FEF8091E80000
:103DA000915085FD06C085ED8A95F1F700009111CF
:103DB000F5CF8091E80085FF0AC050E040E0C901DE
:103DC0000E94B7208091E8008E778093E8000895E4
:103DD00046E050E0BC0182E00E94C41E0895CF93EB
:103DE000DF93EC0148E050E0BC0181E00E94C41E7A
:103DF00088E0FE01A5ECB1E001900D928A95E1F713
:103E0000DF91CF9108958091DA01811109C00E945C
:103E100047220E94A4228091E20084608093E20005
:103E200008951092DA0108950E94E21C08956091AD
:103E3000D70181E0611101C080E00E94D91C089582
:103E40009091DB0181E0943009F080E06091D7012E
:103E50000E94DF1C089542E061EC81E00E94C321D2
:103E600042E261EC82E00E94C3219091DB0181E09B
:103E7000943009F080E06091D7010E94CF1C089532
:103E80008091DD01833009F461C030F48130D1F1DB
:103E9000823009F49EC008958A3009F48AC08B30BC
:103EA00009F46FC0893009F050C08091DC01813283
:103EB00009F04BC08091E0019091E101029708F078
:103EC00044C08091E800877F8093E8008091E800FB
:103ED00082FF37C09091F3008091F200029731F495
:103EE0008091F100813011F0863021F48091F10051
:103EF0008093CD018091E8008B778093E8000E9449
:103F0000F72123C08091DC01813AF9F48091E80027
:103F1000877F8093E8008091E0019091E101892BF7
:103F200061F468E085EC91E070E00E9406218091E8
:103F3000E8008B778093E800089560E090E080E0EF
:103F4000F3CF8091DB018111C1CF08958091DC0115
:103F5000813AD9F78091E0019091E101892BA9F78D
:103F60008091E800877F8093E8008091E80080FFDF
:103F7000FCCF809116018093F1008091E8008E774C
:103F8000BCCF8091DC01813201F78091E0019091FA
:103F9000E101892BD1F68091E800877F8093E800CA
:103FA0000E94F7218091DE01809316010E94100C7F
:103FB00008958091DC01813241F68091E800877F8D
:103FC0008093E8000E94F7218091DF018093CE0169
:103FD00008958091DC01813A09F0B7CF8091E80023
:103FE000877F8093E8008091E80080FFFCCF80917C
:103FF000CE01C1CF84B7877F84BF0FB6F894A89550
:1040000080916000886180936000109260000FBE14
:1040100080E890E00FB6F89480936100909361007F
:104020000FBE0E94E81C08950E9447220E94A4220D
:10403000E2EEF0E080818460808378940E94232502
:1040400008958CE091E00E94051C08958091DB01A9
:10405000853031F48091DB01853019F00E945D1DBF
:1040600008950E94321D8091D901882399F30E94FE
:10407000F51C882379F30E94A1200E94100CEACF3E
:1040800008959A014091E2015091E3010E94492074
:104090000895492F55274330510519F168F44130EF
:1040A000510509F444C04230510509F445C090E07F
:1040B00080E050E040E025C04132510549F14232F4
:1040C0005105A9F784E490E04CE75DE061157105C6
:1040D000C1F089E490E043E35DE06130710589F06F
:1040E000E6CF99278130910581F0009729F002975A
:1040F000F1F6ECEAFCE002C0E2EEFCE0849190E034
:10410000AF01F901518340830895EAEBFCE0F6CF5B
:1041100089E090E048EF5CE06115710591F389E07A
:1041200090E041E15DE06130710559F3C0CF82E17B
:1041300090E041E25DE0E5CF8BE390E046EE5CE0AD
:10414000E0CF80E189BD82E189BD09B400FEFDCFE9
:104150008091D8008F7D8093D8008091E0008260AC
:104160008093E0008091E00081FDFCCF0895AF9244
:10417000BF92CF92DF92FF920F931F93CF93DF9363
:104180006C01EB018A010E941622F82E811123C0D6
:104190000115110539F0F80180819181C81BD90BF7
:1041A000C80ED91EB12CA12C2097A9F08091E8004F
:1041B00085FD22C08091E8008E778093E80001158C
:1041C0001105A1F0F80180819181A80EB91EB1827C
:1041D000A08285E0F82E8F2DDF91CF911F910F9156
:1041E000FF90DF90CF90BF90AF9008950E9416226D
:1041F0008823D1F2F82EEFCFF60181916F018093E1
:10420000F1002197FFEFAF1ABF0ACECFFC018091DA
:10421000E2019091E30186179707A0F061157105FF
:1042200029F49091E8009E779093E80090E0611562
:10423000710551F4911108C08091E80082FF34C0EB
:1042400080E00895BC01F2CF8091DB018823C1F1A9
:104250008530C1F18091E80083FD30C08091E80095
:1042600082FDEACF8091E80080FFE1CF8091F300EA
:104270002091F200382F6115710519F028303105B1
:1042800058F091E02830310509F090E02091E800E5
:104290002E772093E800CBCF81918093F10061507D
:1042A00071092F5F3F4FE7CF8091DB01882341F0F9
:1042B000853041F08091E80083FFBECF81E0089512
:1042C00082E0089583E00895FC018091E2019091DD
:1042D000E30186179707A0F06115710529F4809115
:1042E000E8008E778093E80090E06115710551F445
:1042F000911108C08091E80082FF35C080E00895E8
:10430000BC01F2CF8091DB018823C9F18530C9F16E
:104310008091E80083FD31C08091E80082FDEACF02
:104320008091E80080FFE1CF8091F3002091F200BE
:10433000382F6115710519F02830310558F091E0DA
:104340002830310509F090E08091E8008E77809365
:10435000E800CBCF84918093F100319661507109D0
:104360002F5F3F4FE6CF8091DB01882341F08530FE
:1043700041F08091E80083FFBDCF81E0089582E0A5
:10438000089583E00895982F973028F08F708093D8
:10439000E90081E008959093E900242F762F50E002
:1043A000981731F07091EC002091ED005091F000E1
:1043B00021FD02C09F5FE8CF3091EB003E7F30933C
:1043C000EB003091ED003D7F3093ED003091EB003C
:1043D00031603093EB007093EC002093ED0050932C
:1043E000F0002091EE0027FDE5CF80E00895809158
:1043F000DC0187FF13C08091E80082FF06C0809136
:10440000E8008B778093E80004C08091DB01811184
:10441000F2CF08958091DB018823D9F38091E800E1
:1044200080FFF8CF8091E8008E77ECCF2091E400F8
:104430003091E50095E6A9012091EC00822F817072
:1044400020FF06C08091E80080FF06C080E008954C
:104450002091E80022FD1AC08091DB01882389F0B9
:10446000853089F08091EB0085FD0FC02091E4003C
:104470003091E50042175307F9F29150E1F684E0DC
:10448000089582E0089583E0089581E008950E94F0
:10449000B6220E94BE22E0EEF0E08081816080833F
:1044A000E8EDF0E080818F77808319BCA7EDB0E064
:1044B0008C918E7F8C9380818F7E80831092DA0125
:1044C00008950F931F93CF93DF930E94B6220E940B
:1044D000BE22C8EDD0E088818F778883888180688C
:1044E000888388818F7D888319BC1092DB011092AC
:1044F000D7011092D9011092D80100EE10E0F80116
:1045000080818B7F808388818160888342E060E046
:1045100080E00E94C321E1EEF0E080818E7F808305
:10452000E2EEF0E08081816080838081886080831A
:10453000F80180818E7F8083888180618883DF910C
:10454000CF911F910F910895E8EDF0E080818F7E6B
:104550008083E7EDF0E080818160808384E082BF2A
:1045600081E08093DA010E9461220895E8EDF0E095
:1045700080818E7F80831092E20008951092DA008D
:104580001092E10008951F920F920FB60F9211241E
:104590002F933F934F935F936F937F938F939F934B
:1045A000AF93BF93EF93FF938091E10082FF0BC025
:1045B0008091E20082FF07C08091E1008B7F8093B1
:1045C000E1000E9422258091DA0080FF19C08091CD
:1045D000D80080FF15C08091DA008E7F8093DA00CA
:1045E0008091D90080FF96C080E189BD82E189BDBC
:1045F00009B400FEFDCF81E08093DB010E94031F20
:104600008091E10080FF19C08091E20080FF15C019
:104610008091E2008E7F8093E2008091E2008061D1
:104620008093E2008091D80080628093D80019BC0A
:1046300085E08093DB010E94171F8091E10084FFD9
:104640002BC08091E20084FF27C080E189BD82E118
:1046500089BD89B5982F917080FFFBCF8091D800DC
:104660008F7D8093D8008091E1008F7E8093E10060
:104670008091E2008F7E8093E2008091E200816071
:104680008093E2008091D701882309F449C084E037
:104690008093DB010E94201F8091E10083FF29C0ED
:1046A0008091E20083FF25C08091E100877F8093A5
:1046B000E10082E08093DB011092D7018091E1005C
:1046C0008E7F8093E1008091E2008E7F8093E200F4
:1046D0008091E20080618093E20042E060E080E04F
:1046E0000E94C3218091F00088608093F0000E94B6
:1046F000141FFF91EF91BF91AF919F918F917F9187
:104700006F915F914F913F912F910F900FBE0F903E
:104710001F90189519BC1092DB010E94111F70CFD9
:104720008091E30087FD93E09093DB01B3CF1F926C
:104730000F920FB60F9211242F933F934F935F93D5
:104740006F937F938F939F93AF93BF93CF93DF9399
:10475000EF93FF93D091E900DF708091EC00C82FB8
:10476000C17080FDC0E81092E9008091F000877F61
:104770008093F00078940E94DB231092E9008091EE
:10478000F00088608093F000CD2BCF70C093E900DB
:10479000FF91EF91DF91CF91BF91AF919F918F9159
:1047A0007F916F915F914F913F912F910F900FBE2D
:1047B0000F901F901895AAE2B0E0E1EEF3E20C949E
:1047C00019278CED91E02091F100FC012193CF019C
:1047D000F1E0843E9F07B9F70E94401F8091E800F6
:1047E00083FF1EC18091DC019091DD019A3008F0B9
:1047F00017C1E92FF0E0E052F84D0C9404278038FF
:1048000099F0823809F00CC18091E0018F708730F7
:1048100008F006C18093E9008091EB0085FB8827B2
:1048200080F91092E90006C08091D8019091D901D9
:10483000911182609091E800977F9093E8008093B7
:10484000F1001092F1008091E8008E77E5C0882396
:1048500009F4D3C0823009F0E3C08091DE018111F8
:10486000D6C08091E0018F702FEF280F263008F01E
:10487000D7C08093E9002091EB0020FFC8C093309F
:1048800031F48091EB0080628093EB00C0C0909186
:10489000EB0090619093EB0021E030E001C0220F2B
:1048A0008A95EAF72093EA001092EA008091EB00E3
:1048B0008860EACF8111B4C01091DE011F7780912A
:1048C000E3008078812B8093E3008091E800877F6C
:1048D0008093E8000E94F7218091E80080FFFCCFE0
:1048E0008091E30080688093E30082E0111183E00F
:1048F0008093DB0195C08058823008F091C0809190
:10490000DE019091DF018C3D23E09207A1F583E069
:104910008A838AE289834FB7F894DE01139620E0F8
:104920003EE051E2E32FF0E050935700E49120FF86
:1049300003C0E295EF703F5FEF708E2F90E0EA309A
:10494000C0F0C7968D939D932F5F243159F74FBFC9
:104950008091E800877F8093E8006AE270E0CE01F2
:1049600001960E9406218091E8008B778093E800F1
:1049700057C0C096E7CF6091E0017091E101AE01B0
:104980004F5F5F4F0E944120BC01892B09F448C052
:104990009091E800977F9093E80089819A810E9426
:1049A0006421E1CF8038E1F58091E800877F809332
:1049B000E8008091D7018093F10045CF811130C08C
:1049C0009091DE01923060F58091E800877F8093BE
:1049D000E8009093D7010E94F7218091D7018823A6
:1049E00011F084E005C08091E30087FDFACF81E0FB
:1049F0008093DB010E942B1F13C08091DE01813068
:104A000079F481E0933009F080E08093D90110922D
:104A1000E9008091E800877F8093E8000E94F721F9
:104A20008091E80083FF0AC08091E800877F80932F
:104A3000E8008091EB0080628093EB00AA96E3E0AF
:104A40000C9435270895CF938091DB018823A1F042
:104A5000C091E900CF709091EC00892F817090FD9A
:104A600080E8C82B1092E9008091E80083FD0E9445
:104A7000DB23CF70C093E900CF9108955058BB2736
:104A8000AA270E9456250C9435260E94272638F026
:104A90000E942E2620F039F49F3F19F426F40C943E
:104AA00024260EF4E095E7FB0C941E26E92F0E94C5
:104AB000462658F3BA17620773078407950720F054
:104AC00079F4A6F50C9468260EF4E0950B2EBA2F17
:104AD000A02D0B01B90190010C01CA01A001112404
:104AE000FF27591B99F0593F50F4503E68F11A16B0
:104AF000F040A22F232F342F4427585FF3CF469541
:104B000037952795A795F0405395C9F77EF41F1662
:104B1000BA0B620B730B840BBAF09150A1F0FF0F2C
:104B2000BB1F661F771F881FC2F70EC0BA0F621F18
:104B3000731F841F48F4879577956795B795F79508
:104B40009E3F08F0B0CF9395880F08F09927EE0F9D
:104B50009795879508950E94B2256894B1110C9499
:104B6000692608950E944E2688F09F5798F0B92F25
:104B70009927B751B0F0E1F0660F771F881F991F92
:104B80001AF0BA95C9F714C0B13091F00E946826A6
:104B9000B1E008950C946826672F782F8827B85FB6
:104BA00039F0B93FCCF3869577956795B395D9F7EA
:104BB0003EF490958095709561957F4F8F4F9F4FF4
:104BC0000895E89409C097FB3EF490958095709500
:104BD00061957F4F8F4F9F4F9923A9F0F92F96E949
:104BE000BB279395F695879577956795B795F111BE
:104BF000F8CFFAF4BB0F11F460FF1BC06F5F7F4F5B
:104C00008F4F9F4F16C0882311F096E911C077236C
:104C100021F09EE8872F762F05C0662371F096E875
:104C2000862F70E060E02AF09A95660F771F881F44
:104C3000DAF7880F9695879597F9089597F99F6702
:104C400080E870E060E008959FEF80EC0895002414
:104C50000A941616170618060906089500240A94E1
:104C600012161306140605060895092E0394000C67
:104C700011F4882352F0BB0F40F4BF2B11F460FFF6
:104C800004C06F5F7F4F8F4F9F4F089557FD90581F
:104C9000440F551F59F05F3F71F04795880F97FB00
:104CA000991F61F09F3F79F08795089512161306BA
:104CB0001406551FF2CF4695F1DF08C016161706E9
:104CC0001806991FF1CF869571056105089408951E
:104CD000E894BB2766277727CB0197F908950E94B0
:104CE00082260C9435260E94272638F00E942E2614
:104CF00020F0952311F00C941E260C9424261124E8
:104D00000C9469260E94462670F3959FC1F3950F77
:104D100050E0551F629FF001729FBB27F00DB11D3F
:104D2000639FAA27F00DB11DAA1F649F6627B00DCF
:104D3000A11D661F829F2227B00DA11D621F739FB8
:104D4000B00DA11D621F839FA00D611D221F749FC6
:104D50003327A00D611D231F849F600D211D822F0D
:104D6000762F6A2F11249F5750409AF0F1F0882334
:104D70004AF0EE0FFF1FBB1F661F771F881F915061
:104D80005040A9F79E3F510580F00C941E260C94CC
:104D900069265F3FE4F3983ED4F38695779567954F
:104DA000B795F795E7959F5FC1F7FE2B880F911D8B
:104DB0009695879597F90895AA1BBB1B51E107C0EB
:104DC000AA1FBB1FA617B70710F0A61BB70B881F9B
:104DD000991F5A95A9F780959095BC01CD0108952A
:104DE00097FB072E16F4009407D077FD09D00E9498
:104DF000DC2607FC05D03EF4909581959F4F0895E1
:104E0000709561957F4F0895EE0FFF1F0590F49107
:104E1000E02D09942F923F924F925F926F927F9272
:104E20008F929F92AF92BF92CF92DF92EF92FF92BA
:104E30000F931F93CF93DF93CDB7DEB7CA1BDB0B66
:104E40000FB6F894DEBF0FBECDBF09942A8839880B
:104E500048885F846E847D848C849B84AA84B98412
:104E6000C884DF80EE80FD800C811B81AA81B9811E
:104E7000CE0FD11D0FB6F894DEBF0FBECDBFED0132
:104E80000895FB01DC0104C08D910190801921F48B
:104E900041505040C8F7881B990B0895FB01DC0175
:104EA00002C001900D9241505040D8F70895F999F1
:104EB000FECF92BD81BDF89A992780B50895A8E1EB
:104EC000B0E042E050E00C949B27DC01A40FB51F3A
:104ED0004150504048F0CB01840F951F2E910E9405
:104EE000762741505040D0F70895262FF999FECFEC
:104EF00092BD81BDF89A019700B4021639F01FBA2D
:104F000020BD0FB6F894FA9AF99A0FBE0895039649
:104F1000272F0E9476270E947527252F0E9476272B
:104F2000242F0C9476270196272F0E9476270C9425
:104F30007527DC01CB01FC01F999FECF06C0F2BD5B
:104F4000E1BDF89A319600B40D9241505040B8F747
:104F50000895F894FFCF2D0A2D0A7D0A7D0A5C0A78
:104F6000E20A5C0A5C0AE70A580B670B670B281811
:104F70009C183018FA17FE173418021838184418FD
:104F80000E1895181218481816184C1874181A1874
:104F900050187B18201856185E1806183C180A1866
:104FA000401824185A186A1884189318F4172C18E3
:104FB000A318DE1BE41BCD1BD81BEA1BF01BF61B42
:104FC000FF2327241025272410255A247B2410256D
:044FD000D224DE24E5
:104FD400018401280850011E0A1401FFBF1EEF1EA0
:104FE400C31EE81EC21E010C178516FB16F316001D
:00000001FF
